:020000040804EE
:1000000000000824B905090805060908B909080807
:10001000BF090808C5090808CB0908080000000046
:100020000000000000000000000000006909050851
:100030000506090800000000030A0508130A050860
:100040000506090805060908050609080506090840
:100050000506090805060908050609080506090830
:100060000506090805060908050609080506090820
:100070000506090805060908050609080506090810
:10008000050609080506090805060908B911090841
:10009000C9110908C5110908D5110908050609087B
:1000A00005060908050609080506090805060908E0
:1000B00005060908050609080506090805060908D0
:1000C00005060908050609080506090805060908C0
:1000D00005060908050609080506090805060908B0
:1000E00005060908050609080000000005060908BC
:1000F0000506090805060908050609080506090890
:100100000506090831FD080805060908050609085D
:10011000050609080506090805060908050609086F
:10012000050609080506090805060908050609085F
:10013000050609080506090805060908050609084F
:100140000506090805060908000000000000000077
:10015000050609080506090805060908050609082F
:10016000050609080506090805060908050609081F
:10017000050609080506090805060908000000002B
:1001800005060908050609080506090805060908FF
:1001900005060908050609080506090805060908EF
:1001A00005060908050609080506090805060908DF
:1001B00005060908050609080506090805060908CF
:1001C00005060908050609080506090805060908BF
:1001D00005060908050609080506090805060908AF
:1001E000050609080506090805060908050609089F
:1001F000050609080506090805060908050609088F
:10020000050609080506090805060908050609087E
:10021000050609080506090805060908050609086E
:10022000050609080506090805060908050609085E
:1002300005060908B505090805060908050609089F
:10024000050609080506090805060908050609083E
:10025000050609080506090805060908050609082E
:10026000050609080506090805060908050609081E
:10027000050609080506090805060908050609080E
:10028000050609080506090805060908000000001A
:10029000050609080506090810B5054C237833B989
:1002A000044B13B10448AFF300800123237010BD49
:1002B000A014002400000000C03C0B0808B5034B4C
:1002C0001BB103490348AFF3008008BD00000000E4
:1002D000A4140024C03C0B08154B002B08BF134B83
:1002E0009D46A3F5803A00218B460F461348144AD9
:1002F000121A58F05DFE0F4B002B00D098470E4BA2
:10030000002B00D098470020002104000D000D486C
:10031000002802D00C4841F0E7FA58F009F8200014
:10032000290012F007FF41F0FBFC00BF00000800AD
:10033000000008240000000091300508A0140024EB
:10034000A0AD0524E918080800000000002070474F
:10035000704703689B6B18477047092A04BF012345
:100360004371437923B90079431A58425841704781
:100370000020704703798B4204D112F1FF3018BF7F
:100380000120704700207047034BB0FBF3F202FBE3
:100390001300024B1860704740420F000800002411
:1003A000054B1B685A1C05D0044A1068C31A5842F2
:1003B00058417047012070470400002408000024C1
:1003C00010B5084C22681AB10021074858F0F0FD1A
:1003D0000023064A1360064A23601380054A1380EF
:1003E00010BD00BF10700324948003249480042463
:1003F0009A8004249880042410B50446142141F006
:10040000FFFC204610BD00002DE9F74322230C46D7
:100410009046471E0125DFF870900B7017F8013FDA
:100420005BB30022222B0092CDF8032001D05C2B7D
:100430000ED15C228DF801308DF800200222AE181A
:10044000B31C434513D90020207003B0BDE8F083EE
:10045000A3F120025E2A06D94A460721684659F0D0
:1004600081F80622EBE78DF800300122E7E76019FA
:10047000694658F09FFC3546D0E72222012062559C
:100480002C446370E1E700BF97020A08F8B50D4DF0
:100490000D4FA5F1C00645F8187D6C697CB1636805
:1004A000013B63605BB9236820469B689847A3685B
:1004B000013BA3601BB923682046DB689847B5421F
:1004C000E9D1F8BDF41D0024A0190A0810B54FF4B5
:1004D00080510446074859F08DFEB0F5805F08D280
:1004E000C0F57F62214603480F32BDE8104059F045
:1004F000D5BD10BD7C70032470B5064C064EA4F526
:10050000B955A4F53974204626600DF0D5FCAC42EF
:10051000F7D170BD14350024D4FF09082DE9F0434C
:1005200089B004460D461422002103A858F040FD6E
:100530006368227A1421002B03A800926FF0080947
:10054000A7BFC3F30A03154A23F06043144A59F0C6
:1005500009F82B68024603A95B682846984704F10E
:1005600009070646A9EB0409DFF8388009EB070301
:10057000227A93420ED217F8013B4246142103A877
:1005800058F0F0FF2B68022203A95B6828469847C1
:100590000644EBE7304609B0BDE8F08304070A08DB
:1005A00014070A089B020A08831E052B05D9163872
:1005B0003F288CBF00200120704701207047F0B514
:1005C00000F5803442F6AA25D7180C1B241105FB30
:1005D0000404BA420BD012F8016B0868265408686C
:1005E0000130B0FBF5F605FB16000860F1E78A68FC
:1005F0001A448A60F0BD2DE9FF411F4600EB01134C
:10060000BDF82860054603F57F4306F10B08D3F8D3
:10061000E840E033C4F52A542A34A045DDE90CEC67
:1006200006D9DA6800200132DA6004B0BDE8F08152
:1006300001F6FE718DF804200B2301AA00EB0114D2
:10064000CDF807E0CDF80BC02146ADF80560FFF707
:10065000B6FF284633463A462146FFF7B0FF012051
:10066000E3E700002DE9F0431D4E87B000241D4F45
:10067000B146A35DABB1E5B2284610F041F90030B8
:10068000E35D18BF012083420BD0002B19F8043022
:1006900038550CBF02460022032B0CD0012B06D18B
:1006A0004AB90134672CE4D107B0BDE8F083022BCE
:1006B000F7D1002AF5D14FF000088DF814508DF8CD
:1006C00016008DF815800FF0D3FF03232A4607216B
:1006D000009305ABCDE902080348FFF78CFFE0E784
:1006E000EC80042453810424906500242DE9F04F0C
:1006F0000026ADF5057D2B4F35462B4B5FFA85F96E
:10070000EB5C002B43D0294BEC5CACB907EB060A41
:100710000DF1100BBA5950461FFA84F81269904730
:1007200028B3B4F5007F3AD0BB5950465B6998476F
:100730000BF804000134EDE74FF43974DFF874A0CE
:100740006C4354F80A3004EB0A0B5B6B584698472D
:10075000021E1CDD54F80A30B2F5007F04A9584689
:100760009B6BA8BF4FF4007298471FFA80F8B8F14E
:10077000000F0CD00FF07CFF0022029004AB03921C
:100780000521CDF800804A460948FFF734FF0135BE
:100790001836082DB1D10DF5057DBDE8F08FA046C6
:1007A000E8E700BF341D00242C1D00247C800324B6
:1007B00090650024F41D00242DE9F04FCFB01C22D9
:1007C0000021002506AC0DF13808DFF8A8A020466E
:1007D000274658F0EDFB224B6360224BE360224B2F
:1007E0006361224BE361224B1A7822705A7822729D
:1007F0009A78DB782274237614F835305FFA85FB1B
:100800002BB300267B681FFA86F9196818460593F2
:100810000969884758B1B6F5807F1FD0059B1A68D3
:1008200018465269904708F806000136EAE7B9F120
:10083000000F0CD00FF01CFF002302905A460393C8
:100840000221CDF8009043465046FFF7D4FE013513
:100850000837042DD0D14FB0BDE8F08FB146E9E79D
:10086000B49E0424EC9F042424A104245CA2042448
:100870008480032490650024194B30B51C6885B032
:10088000236820461B699847164B1B78DBB1164836
:1008900003F014FBB8B1144803F00BFB98B14FF40C
:1008A00000721249104803F021FB051E0BDD0FF00A
:1008B000DFFE0022ADB20D4B06210095CDE902020C
:1008C0000B48FFF798FE23682046D3F8A0309847DE
:1008D00018B1084B4FF0FF321A6005B030BD00BFB1
:1008E000CC0F0A08F15F032488800324F0650224FA
:1008F000906500240400002470B500F5803442F6B1
:10090000AA25049E091B1E44091105FB0101B342DF
:1009100008D0885C013203F8010BB2FBF5F005FB4F
:100920001022F4E770BD2DE9F04F8FB00446CDE9F9
:1009300007239DF8643006938B1E05939DF81430B1
:10094000052B00F2B680189B0A2B40F2B28001F60C
:10095000FE7300EB01184FF6E4724FF0000900EB54
:10096000031358F80250CB460393059B039900EB01
:10097000031303F580339E6800F58033CB1A42F6EB
:10098000AA211B114B43049308EB020309930A2E7F
:1009900051D90B234FF0000A2A46039900932046B1
:1009A0000BABCDE90BAACDF833A0FFF7A5FFBDF83F
:1009B0002D700B37BE423ED39DF82C30079A9342E0
:1009C00016D1189BA3EB0903BB4234D3089B2A46DC
:1009D000009720464B44B9440399FFF78DFF3D44EF
:1009E00042F6AA23F61BB5FBF3F203FB1255CEE742
:1009F000069B002BF3D0099B42F6AA2204981B68A1
:100A000020185B44B3FBF2F102FB1133294610F8C6
:100A100001C001310AF1010A00F803C00133574552
:100A2000B1FBF2FC02FB1C11B3FBF2FC02FB1C331A
:100A3000EDD8BB44D3E7069BBBB34FF6E47342F655
:100A4000AA22049858F8033004EB000C5B44B3FB73
:100A5000F2F102FB113300218E4210D06719049885
:100A6000013501313F5C0CF803700133B5FBF2F73F
:100A700002FB1755B3FBF2F702FB1733ECE7059BBC
:100A80005E4404EB03144FF6E47304F58034A6606F
:100A900058F803301E4442F6AA23B6FBF3FB03FBCF
:100AA0001B664FF6E07348F8036048460FB0BDE898
:100AB000F08F4FF00009F8E78B1E2DE9F04F9246BA
:100AC000DAB287B08046052A2ED801F6FE7100EB17
:100AD000031300264FF00B0B00EB011403F58033DA
:100AE000B14665689F680A2F1FD903ABCDF800B0E7
:100AF0002A4621464046CDE90399CDF81390FFF7E9
:100B0000FBFEBDF80D300B339F420ED39DF80C2039
:100B10001D44FF1A524542F6AA22B5FBF2F108BF66
:100B2000F61802FB1155DEE70026304607B0BDE897
:100B3000F08F000030B5D2430144094D81420DD001
:100B400010F8013B5A40082342F30004013B2C40BB
:100B500013F0FF0384EA5202F6D1EFE7D04330BD31
:100B60002083B8EDF0B587B005460E46034601AACE
:100B700000F1100C17461868083353F8041C14468B
:100B8000634503C42246F6D1186800221021206074
:100B900038460592FFF7CEFFE98902463046FFF757
:100BA000C9FF07B0F0BD2DE9F04384464768002037
:100BB0000446251DBD4218D8DCF80060A7EB0508E7
:100BC0003444B4F802E01FFA8EF9C1450CD8B4F8E9
:100BD0000080884505D138B92E4401201660A3F85D
:100BE00000E064882C44E4E70020BDE8F08373B59E
:100BF00000241E4602AB154601AA019423F8064DB7
:100C0000FFF7D1FF18B986F0010002B070BDBDF842
:100C10000230012B09BF019B20461B782B70F4E7A3
:100C200073B500241E4602AB154601AA019423F8B1
:100C3000064DFFF7B8FF18B986F0010002B070BD8D
:100C4000BDF80230022B09BF019B20461B882B8078
:100C5000F4E773B500241E4602AB154601AA0194C1
:100C600023F8064DFFF79FFF18B986F0010002B088
:100C700070BDBDF80230042B09BF019B20461B68E4
:100C80002B60F4E708B5FFF78EFF18B99DF8080050
:100C900080F0010008BDF0B585B016461F46002261
:100CA0009DF8284004AB039223F8062D03AA009474
:100CB000FFF7E8FF054618B1039921B91CB9347054
:100CC000284605B0F0BDBDF80A4044B1BC4206D28A
:100CD0002246304658F06EF800233355F0E70025E1
:100CE000EEE773B504461E1D08461D4611466368AF
:100CF000A2689B1A9E4215D8ADF80400ADF80650C4
:100D0000236801989850A3680433A36025B1206834
:100D10002A46184458F04EF8A36801202B44A360DB
:100D200002B070BD0020FBE70B4630B513F8042F6E
:100D300000F10B040271421D13F8015F02F8015B20
:100D40009442F9D1CB7A00F14B04C3720B4613F8ED
:100D50000C2F027300F10D0213F8015F02F8015B22
:100D6000A242F9D191F94B3080F84B3030BD0000F0
:100D70002DE9F0416722002133484FF47A7458F08E
:100D800017F94FF480320021304858F011F96022F1
:100D900000212F4858F00CF92E4B00222E4803F169
:100DA000C00143F8180C43E9052443E90222183333
:100DB0008B42F6D14FF439770725DFF8CC8000203D
:100DC0003E46264A264940F08DFD07FB1580254CFE
:100DD0000DF024F841F23C42234B03FB0523234A48
:100DE00015F1FF35E250F0D21C4A0020204940F0B6
:100DF00079FD204803F070F9184A1F491D4840F05A
:100E000071FD1E4803F004F8144A1D491B48BDE853
:100E1000F04140F067BDC5F107057543134EAB08BF
:100E20002C44184D5D43104B25F0404503FB054510
:100E3000AC4206D0A4F53974266020460DF03CF88B
:100E4000F6E754F0F5FC00BF286500249065002407
:100E5000906501244C1D002490FF09080000002427
:100E60008D040408F41D00241CFDFFFFD4FF0908B5
:100E7000F90404089C8004248B3F04088880032420
:100E8000C53D04088905DC293032002408B54FF43B
:100E9000E13104480DF008FE0AF090FE024B1860A4
:100EA00008BD00BF94A30424E88004242DE9F04F7A
:100EB00040F6EC7302F6EB748BB015464FF0000869
:100EC000564EB4FBF3F4A4B2554B012C1B6838BF4B
:100ED00001240393CDE9010140F6EC731FFA88F277
:100EE00003FB08FE75456DD9A5EB0E0940F6EB71C5
:100EF000894588BF99460023ADF81E2005AA0DF14B
:100F0000240B0993039B9246ADF8204005934FF0C4
:100F10000103ADF822908DF818309DF808308DF857
:100F20001930019BCDF81A303E4B1F4694460833CA
:100F3000BCE80300DC4543F8080C43F8041C624697
:100F4000F4D1DCF800001860B9F1000F05D0364983
:100F50004A463046714457F02DFF31465046FFF760
:100F600001FE0AAA2F4B42F8040DD4460833BCE810
:100F70000300944543F8080C43F8041CE246F4D1FE
:100F8000DCF800000121DFF89CC041F2130A186070
:100F900009F114030020DFF894E000930B461CF8DD
:100FA00001BBBBF1000F10D1504533D800F80E3013
:100FB0004A1CACEB0709084601230099494514D99E
:100FC0001146ECE74FF0000995E7514522D801336F
:100FD000ACEB07094A1C01F80EB0DBB2FF2BECD1D9
:100FE00000F80E3010468A1CE6E741F213018842F1
:100FF00010D80E4943546AB10D4808F101080DF0AC
:10100000C1FB00210A480DF07DFB1FFA88F3A342C3
:10101000FFF462AF0BB0BDE8F08F00BF28350024AD
:1010200000070A0814350024F0650124F85F032442
:1010300094A304242DE9F04F97B0894693464FF4CA
:10104000803116AA9A4600235E4D22F84A9D8046BA
:1010500008A8BDF884700895CDE90913022348F269
:101060000101DDE92264FFF73CFE0246BAF1000F00
:1010700008D038B15A46534648F2020108A8FFF793
:1010800030FE0246209B1B78002B50D04FF480513D
:101090002098019259F0AEF8019A62B1B0F5805FE4
:1010A00009D283B2209A48F2030108A8FFF719FE7B
:1010B000002840F0848044B100262378002B7BD0A8
:1010C000204658F07DFF002E63D14FF4803200237C
:1010D00048F201010BA80B950EACCDE90C2316AA22
:1010E000042322F8463D0223FFF7FBFD364B224640
:1010F00003F118061868083353F8041C2546B34258
:1011000003C52C46F6D1186899889B7928600BA8EE
:10111000A98048F20701AB711E23FFF7E2FD0D9A8B
:1011200003214046FFF7C2FE17B0BDE8F08F77B14C
:10113000002AC0D016AA022348F2040108A822F807
:10114000487DFFF7CEFD0028B5D01EB90DE0EEB109
:10115000002AB0D016AA042348F2050108A842F8D4
:10116000446DFFF7BEFD0028A5D00FF081FA0023E3
:10117000069006AA079348F20601082308A8FFF77D
:10118000B0FD0646002896D07CB196E7002AECD147
:1011900091E7A028224648F2070128BFA02083B289
:1011A00008A8FFF79EFD00288FD0B9F1000F0A9A1A
:1011B0000CBF02210321B4E7002EF6D185E7002FF2
:1011C000B8D1C2E7F0650124FB010A081FB500236E
:1011D0000392054A00921A46CDE90133FFF72AFF30
:1011E00005B05DF804FB00BFF8050A082DE9F041E1
:1011F0001A4F80463A78012A07D10025184A032160
:10120000FFF7E4FF2846BDE8F081164E357805BBB0
:10121000154B1C68236820469B68984728B9134AD9
:1012200004214046FFF7D2FFECE723680221204665
:10123000D3F89830984723680D492046D3F8B43046
:10124000984723680B492046D3F8B83098470123C4
:101250003370022301253B70D4E700BFBC14002487
:10126000A8050A0814700324CC0F0A08D6050A083A
:1012700089030408A10304082DE9F04FD5B0002428
:10128000894601230DF12E080CAD15210646424674
:10129000A8F800402C808DF82D400D94ADF8324018
:1012A000FFF7BEFC38B9AE4A01214846FFF78EFF72
:1012B00055B0BDE8F08F01232A4616213046FFF7CE
:1012C000AFFC0028EFD023460DF12D021821304647
:1012D000FFF78DFC0028E6D000940DF132030DAA33
:1012E00017213046FFF7CEFC06900028DBD0BDF872
:1012F00032307E2BD7D89B4E27460AF05FFC7F22E8
:101300003060214634A857F053FE0594CDE9078597
:10131000E1B2306809F0C5FB0546B0B190F86B301A
:10132000092B12D0079B1A88B0F866309A420CD16C
:10133000089B1A88B0F868309A4206D10D9B83B991
:10134000059B2F460133DBB205930134052CDFD119
:10135000059B012B02D1002F40F08F80824A05218E
:10136000A3E70DF13C0A4FF0120800214246504617
:1013700057F01EFE306818B900238DF8D030E4E72E
:101380004FF4807300222946CDE90032CDE902A84E
:101390000623802209F043FF83460028ECD19AF807
:1013A0001030002BE8D00DF138080423C8F80000F5
:1013B000294601908022CDE902834FF440730093C7
:1013C0000623306809F02BFF014610B18DF8D0B02C
:1013D000BBE798F8033098F802B00DF150084BEADB
:1013E000032B7E2340461A46099357F0E1FD099BE3
:1013F000CDF804B080222946CDE902839AF8103056
:1014000043F4407300930623306809F008FF002876
:10141000B2D198F800000128AED9032200238242FD
:1014200012D218F8021001330029A5D118F81310B0
:101430000232A1F1200CBCF15E0F9DD80DF1D00C51
:101440009C440CF8011CEAE754AA00211A4402F853
:10145000801C002B3FF479AF34A858F0B1FDBDF8E3
:101460003230024698427FF470AF0D9934A857F09D
:101470006FFC00283FF464AF67E79DF82D303946D4
:101480003A4A8DF8403000230F920FAA8DF8413070
:10149000344B186809F03FFF002852D19DF84140B5
:1014A000002C4ED10D9E324B324D334A1F609DF8B9
:1014B0002D10002E08BF2A46BDF830002F4B304DAE
:1014C000304EDFF8E48019700090BDF82E302E48C1
:1014D000CDE901122D4A4FF4805158F043F82246CD
:1014E0009DF82D10384609F022FAD0B190F84C2022
:1014F000012A16D052BB264B026D7821CDE901326C
:1015000090F85E30424614A80093069B002B14BF4F
:101510002B46334658F026F814A8FEF7D7FF0023D1
:1015200006938CB11B48FEF7D1FF0023164A4846AC
:101530000193194600921A46CDE90233FFF77AFD6E
:10154000B6E6154A0221B0E60124C8E7022A05D012
:10155000124B1349032A18BF0B46CDE7114BCBE7BB
:1015600027060A08E88004243C060A082C070A0813
:10157000C014002400060A08FB050A08F05F0324D3
:10158000BC5F0A0825060A087C7003248E060A0838
:101590000B060A0843050A0860060A081B060A0823
:1015A00013060A0806060A08D2060A08F0B500243F
:1015B000C7B006460D46FE22214606A88DF8134008
:1015C000ADF81440ADF8164057F0F2FC494B1B78CB
:1015D0002BB9494A01212846FFF7F8FD71E00123A4
:1015E0000DF1130223213046FFF701FB0028F0D054
:1015F0009DF81330012BECD8012305AA2121304698
:10160000FFF70EFB0028E4D0BDF81430002BE0D02B
:1016100023460DF1160236213046FFF701FB002864
:10162000D7D0012306AA202130460093FE23FFF7DE
:1016300032FB0028CDD0314B1E46E15CE2B20029DE
:1016400041D00134082CF8D12D4A0321C3E74FF4CF
:1016500039732C49634358185B58BDF81610DB6981
:1016600011B9A2F5804291B298473AE00123FE20D9
:10167000FD2206A933559DF81360234B1E55234BBD
:1016800000FB043058F084FDBDF81420204B4FF4CB
:10169000805123F814201F4A1F4B002E08BF134609
:1016A0001E4E1F4A00933046234657F05BFF00232F
:1016B00028461A461946CDE90233CDE90063FFF703
:1016C000B9FC47B0F0BD9DF81330002BBFD11823F3
:1016D000144806A96343C2581844176ABDF8142079
:1016E000B847003018BF01200028BFD10E4A04219E
:1016F00071E700BF0C70032422020A082C1D00248D
:101700007C020A08F41D00247C8003242B1500248D
:101710001C1D00241A020A081E020A087C700324F9
:101720005B020A08341D00243F020A082DE9F04735
:10173000944F8AB000230446D7F800800D468DF8F8
:1017400016308DF81730ADF81A30CDE90833B8F1FE
:10175000000F07D18C4A01212846FFF737FD0AB058
:10176000BDE8F08701230DF116021A21FFF73FFAB9
:101770000028EFD09DF81630022BEBD801230DF195
:10178000170219212046FFF732FA0028E2D0012380
:1017900008AA06212046FFF75CFA0028DAD0089B49
:1017A000B3F57A4FD6D89DF81620022A02D1B3F5A8
:1017B000805FCFD800260DF11A0309AA05210096F3
:1017C0002046FFF75FFA0028C4D09DF816309DF838
:1017D0001790002B6ED18DF818308DF81930ADF8B8
:1017E0001C30ADF81E30B9F1000F53D1012306AA09
:1017F0001B212046FFF7FBF900284BD001230DF1F8
:1018000019021C212046FFF7F2F9002842D00123DB
:1018100007AA1D212046FFF703FA00283AD001232A
:101820000DF11E021E212046FFF7FAF990B39DF834
:101830001820564B1606BDF81C101868BDF81E403F
:101840009DF8193028D5089E009141460396504EC8
:10185000CDE9014609F0E3FC002840F09080BDF896
:10186000204000269DF817204A4F4FF480519DF8E4
:101870001630009238460196474A57F073FE2346C9
:10188000434A31462846CDE90266CDE90076FFF7A6
:10189000D1FB64E7414A5EE7BDF81A60009141461A
:1018A0000396099ECDE9014609F00DFD002866D199
:1018B0000446D6E7012BDFF8F4A014BF4FF003086D
:1018C0004FF0020832469AF80010386809F02FF8F5
:1018D000044638B190F84C30434503D190F85E305F
:1018E0004B4537D016B12E4A022135E70126E9E7EC
:1018F0000122CDE90032264B224609F073FB3BE082
:10190000646E089824EAE4748442A8BF0446A4B232
:10191000002CA6D09DF817700EF0AAFE00940421AA
:101920001B4B3A46CDE902061E48FEF764FE98E7D7
:10193000012A099BBDF81A6005D1CDE90062224653
:1019400009F023FBB2E70122CDE90062224609F04B
:101950003AFBABE70D4B9DF8162018689DF9173040
:101960003968002BE4DA012A089BC1D1CDE90032A5
:10197000074B224609F018FB06460028C0D00A4A49
:101980000421E9E6C014002482000A08E880042447
:10199000F06502247C7003240E010A08AD000A08D9
:1019A000D4000A0890650024FA000A08F05F0324B6
:1019B0002DE9F041344BADF5EA6D01250224029387
:1019C0004FF48051314B324E324FDFF8F4800193A7
:1019D0000095314B314A324857F0C4FDA0B2FEF7B2
:1019E000E3FD68B1002D14BF33463B46424610214B
:1019F00000940EA8002557F0B5FD0EA8FEF766FD71
:101A00000134562CEAD1274B274C1B78274D284808
:101A1000002B18BF254602F015FB18B1244802F030
:101A200031FB00B9214C234B12A81F4A19681F4BE8
:101A3000002908BF1A46204BD96D0D91D96C0C9125
:101A4000D96B0B91D96A0A91D9690991D968089122
:101A5000996D0791996C0691996B0591996A04911A
:101A6000996903914FF4E1619B680094CDE90123EA
:101A70002B46124A57F076FD12A8FEF727FD0DF50A
:101A8000EA6DBDE8F08100BF50030A0891030A081F
:101A9000BC5F0A0825060A08A0020A08A6020A086E
:101AA0007C7003240C700324FB050A0800060A0856
:101AB0009C800424C014002490650124BC030A08FF
:101AC000B4030A082DE9F04FADF22C5D40F6B833AF
:101AD000044625220F460DA80021069357F068FA08
:101AE000012306AA32212046FFF7B3F840B9804A05
:101AF00001213846FFF76AFB0DF22C5DBDE8F08F3F
:101B0000069B47F2CC42643B9342F0D80025252344
:101B10000DAA204600951946FFF7BDF80028E6D02B
:101B20003846FFF763FB06460028E5D0714A9DF86A
:101B3000341014689046236889B10DA9AAA8D3F877
:101B400064900EF012FC2A46AAA92046C847044613
:101B5000AAA80EF0BFFB3CB9674A0421C9E720469A
:101B6000DB6D98470446F6E7644D002464482C700A
:101B7000FEF7ACFC0EF06AFD069BDFF894B100EBBB
:101B8000030905950EF062FDA9EB0000D8F800509E
:101B9000002840F388800F2C2B6800F2848017A85F
:101BA0005B6F2946984717A802F04CFA38B92B68A2
:101BB00028461B69984705200EF066FD20E017A90E
:101BC00007A802F025FA17A802F0DCFAE0B117A97D
:101BD0000AA802F0A5FA0DF1A80A802200215046B9
:101BE00057F0E6F94FF4C07200214AA857F0E0F927
:101BF000079870B90AA80EF06DFB07A80EF06AFBF3
:101C000017A802F0C2F9BDE759460AA80EF0ADFBCD
:101C1000E1E780225146FEF7F7FB0028EAD00A9858
:101C20000028E7D04FF4C0724AA9FEF7EDFB002868
:101C3000E0D0344B17A8002E18BF5B461E4602F0BA
:101C4000C3F94AAB02904FF420712F4AAAA8CDE9FC
:101C500000A3334657F086FC4FF4805106462748D0
:101C600058F0C8FAB6F5207F14D203300644B6F512
:101C7000805F0FD2AAA8FEF729FC0AA801340EF053
:101C800029FB07A80EF026FB17A8E4B2002602F0F5
:101C90007CF977E70AA80EF01DFB07A80EF01AFBE7
:101CA00017A802F072F92B682846DB6E9847174890
:101CB000FEF70CFC0023059A384601931946009262
:101CC0001A46CDE90233FFF7B5F915E7AAA80EF0D9
:101CD00001FB53F0ADFD0AA80EF0FCFA07A80EF0C8
:101CE000F9FA17A802F051F9F3E7F7E7F9E700BFAF
:101CF00046050A08CC0F0A085F050A087C70032411
:101D000076050A0825060A0883050A0843050A0815
:101D1000BC5F0A082DE9F04FADF5057D04460E467F
:101D20002522002109A857F043F9604802F08AF9FA
:101D300040B95F4A01213046FFF748FA0DF5057DAD
:101D4000BDE8F08F594802F09DF90028F1D000233A
:101D500009AA2046009325231946FEF79CFF002878
:101D6000E7D09DF8243043B109A9504802F092FA17
:101D7000054630B94F4A0421DDE74C4802F07AFAB3
:101D8000F6E74D4F0024A846DFF82091DFF83CA18C
:101D9000DFF83CB149483C70FEF798FB0597484690
:101DA00002F086FA84422DDA13AF2246494606A88D
:101DB00002F090FAE0220021384657F0F9F806A820
:101DC00002F0B8FB20B906A802F076FB0134E6E782
:101DD000E0223946FEF718FB0028F4D00097B8F14E
:101DE000000F14BF53465B46354AE4214BA857F019
:101DF000B9FB4BA8FEF76AFB06A84FF0000802F0FB
:101E00005BFBE3E70024DFF8A480DFF8C090DFF895
:101E1000C0A02C48FEF75AFB404602F0B7FA8442B5
:101E20002BDA13AF2246414606A802F0CFFAE02291
:101E30000021384657F0BCF806A802F011F820B986
:101E400006A801F0BFFF0134E6E7E0223946FEF7BD
:101E5000DBFA0028F4D00097002D14BF4B46534600
:101E6000174AE4214BA857F07DFB4BA8FEF72EFB49
:101E700006A8002501F0A6FFE5E71348FEF726FBBC
:101E80000023059A30460193194600921A46CDE97F
:101E90000233FFF7CFF851E706A802F00DFB53F02D
:101EA000C7FC06A801F08EFFF9E700BF9C80042460
:101EB00020000A083A000A087C70032459000A0826
:101EC00067000A086C000A0843050A08BC5F0A0894
:101ED00025060A087FB5044615480E46154602F049
:101EE000B1F828B9204601F093FF204604B070BD38
:101EF0000F4802F0C7F80028F4D001A832460C4978
:101F000002F03CFA01A802F023FB40B12A4601A9E5
:101F1000204602F051FB01A802F0CEFAE5E7204688
:101F200001F076FFF7E701A802F0C6FA53F080FC53
:101F30009C8004242DE9F0419EB005460C46904655
:101F400014AE252200210AA857F032F825220021DC
:101F5000304657F02DF8012725230AAA0097284676
:101F60001946FEF798FE38B93B4A01212046FFF793
:101F70002DF91EB0BDE8F0810097252332462621B9
:101F80002846FEF788FE0028EED007A832460AA9A8
:101F9000FFF7A0FF07A801F091FF28B92F4A0521FC
:101FA0002046FFF713F94EE0B8F1000F3FD00023B1
:101FB0000DF11502272128468DF815300693ADF84E
:101FC00016300123FEF713FE70B39DF81530012B78
:101FD0002AD8012306AA0521284600930DF11603ED
:101FE000FEF750FE00B39DF8153007A8BDF8162087
:101FF000B3FA83F306995B0901F04AFFA0B100250B
:10200000174F0AAB174A4FF480510096384657F0E5
:10201000A9FA00212B46144A2046CDE90211CDE948
:102020000071FFF707F80EE0104A0421B8E74FF4FB
:102030007A420D4907A801F059FF002801DA0C4A3D
:10204000F3E785B2DCE707A801F0BCFE91E707A83B
:1020500001F0B8FE53F0ECFB41010A0865010A08E3
:102060007C700324CA010A08F06502248B010A0867
:10207000AB010A082DE9F04100248EB0214B5FFA34
:1020800084F8E35C002B38D01F4E204B204F002CEF
:1020900018BF1E46304608F0E7FA70B3314609A86B
:1020A00008F022FB00239DF82C500DF12D01CDF8F6
:1020B0001A300DF11A00CDF81E300A9B8DF8195018
:1020C000002BB4BF23F06042C3F30A02DB0F05927A
:1020D0002A468DF81830063556F06CFE0EF0C8FA18
:1020E00000230290424603930321009505AB384636
:1020F000FEF781FACEE70124C0E7002CFBD00EB03A
:10210000BDE8F081F25F03242C8904241C8D042493
:10211000906500242DE9F04FDFF8A882DBB09E48DF
:102120000CF0A6FB002801F003849B480CF012FC85
:10213000041EC1F2FD83994E356841F0EB83002DFA
:10214000EDD02346DFF858C2A64622E0C818A842C0
:1021500026D84F1E1B1B204654FA87F74344B8422B
:102160000BD0B0F5805F1BD20130013200EB0C04C4
:1021700013F8009004F8019CF1E7FF2907D0AA4268
:1021800005D2B0F5805F0BD200F80CE001300446B8
:102190001346AB4207D213F808105A1C0029D5D1B8
:1021A00000233360BBE70023132C3360B7D97C4B8B
:1021B00015AA03F110061868083353F8041C1546D5
:1021C000B34203C52A46F6D118680422754928602F
:1021D00015A856F0BDFDD8B99DF85830012B17D180
:1021E0009DF85930012B13D1BDF8607087B1BDF84F
:1021F0005E50AF420CD9BDF86290A4F11400814545
:1022000006D1694915A8FEF7ADFC199B984206D086
:10221000664A0121DDF85A00FEF7D8FF74E3DDF8C5
:102220005A60634C25B9FEF7CBF8624B26601F80DD
:102230002468B44211D15F4B1B88BB420DD1DFF83B
:1022400088A1BAF80030AB4207D1DFF880B1DBF8E3
:102250000030C3F58032914503D9574A01213046F9
:10226000DAE7564E4A465049F018059356F0A2FD5B
:10227000059B09EB03026B1C9BB2CBF800209F422D
:10228000AAF800307FF44BAF0023CDE90862ADF827
:102290001C309A4217D9D11A03295BD9F5180021AD
:1022A0008B4209D970182F88B0F800C0BC4551D0B6
:1022B000408804300144F3E704336988D01A81422E
:1022C00048D80B44E5E745D1012307AA08A81946D9
:1022D000FEF7A6FC814600283CD0BDF81C5000212A
:1022E000DFF8ECC040F21D6EAF1EDFF8E8A0DDE9BC
:1022F000083005930E1D864200F2C580059BA0EBB9
:10230000060B5A185188594524D81288012A40D002
:10231000302F1FD8DFE807F0191E1E1E1E1E1E1EBE
:1023200021251E2A1E1E301E3560676B1E6D6F71C3
:1023300078801E1E1E1E1E1E1E1E1E1E1E1E848930
:102340009093989FA3A5ABADB000022A21D02E3A5E
:10235000032A1ED91A4A01217AE2042A19D00E3A18
:10236000F6E7032A15D0122AF4D112E0153A032A0F
:102370008CBF0022012233E01F2A0AD0343A012AFE
:10238000E7E7203A92B2162AE4D82AFA02F2D307F3
:10239000E0D53144AEE700BF94A30424F45F0324E6
:1023A0001445002400070A0828450024A7070A0846
:1023B000948004249A800424BC070A08948003248F
:1023C000E1070A081455002498800424107003249F
:1023D000280018000B004000222A14BF002201220E
:1023E000002AD6D1B6E7322AD3D0252ABCE7242A40
:1023F000F3E7332AF1E7252AEFE7A2F1250BBBF13A
:10240000010FC6D9372AAFE7283A92B2102AA1D8CD
:10241000A94B23FA02F2BAE722F00402282AA3E722
:10242000032AB6D0053A062A93E7033A92B20A2A5B
:1024300090D82EFA02F2AAE7043A012A98E7142A61
:1024400088D82CFA02F2A2E7A2F1190BBBF1050F12
:102450009FD9053A93E7222A9BD0052A84E7253A9B
:10246000EBE7A2F1250BBBF1020FF6D891E7282A82
:10247000B3E722F00202D1E722F0020BBBF1280FF2
:1024800087D02D2A70E781427FF464AF6A1E312A1B
:1024900001F23C82DFE812F032003B003A0A3A0ACD
:1024A0003A0A3A0A3A0A3A0A3A0AFB00A101F50145
:1024B00034023B024B025302F602210326035C0363
:1024C000610338047104B504BA043905EE053A0A0B
:1024D0003A0A3A0A3A0A3A0A3A0A3A0A3A0A3A0ADC
:1024E0003A0A3A0A3A0A2B0642071308590807091A
:1024F0000D0979098009820982098209FFF758FAD2
:1025000000236E4A0193CDE902330092F5E10023E6
:1025100001254FF4805202218DF8283008A88DF84B
:102520003430ADF868200AAA2D932B468DF8405020
:10253000FEF75DFB08B9624A0DE79DF82830023BC3
:10254000052BF8D82B460DAA312108A8FEF74FFB22
:102550000028F0D02B461AAA2E2108A8FEF760FB0F
:102560000028E8D0BDF86830013B9BB2B3F57A4F44
:10257000E1D22B4610AA2F2108A8FEF738FB00282D
:10258000D9D09DF84030012BD5D82B462DAA30212B
:1025900008A8FEF75EFB0028CDD04A4B2D9A9A4240
:1025A000C9D80EF053F82D9D474E0544474FDFF82C
:1025B00034919DF8342030469DF82810FEF77CFABF
:1025C00000283BD09DF840309DF8342000339DF822
:1025D00028103D4818BF01230193BDF868300093CF
:1025E0003B4BFEF7A0F99DF840500646394A3A4861
:1025F0009DF83410B6B2002D18BF0246324D9DF83A
:1026000028302E48CDE90012344A4FF4805156F05C
:10261000A9FF9DF834209DF828102846FEF74CFAB3
:102620009DF828304FF6FF72023B9042D9B228BF86
:102630001046052980B219D900231CE00EF006F8D7
:10264000281A0028BEDDFEF7B7F8FFF713FDFEF7E6
:1026500009F83B780BB1FEF749F899F800300BB157
:10266000FEF70AF901200EF00FF8A2E705EB0315BB
:1026700005F58035EB6800210190CDE902310F4B63
:1026800000933346124A2046FEF7D4FC3CE1002377
:102690000822012504218DF8283008A88DF834205F
:1026A0000AAA8DF840302D932B468DF86850FEF71E
:1026B0009EFAC8B90A4A4EE60B0001007C7003245A
:1026C00001080A08E0930400906500240C700324BC
:1026D000F065022400060A08FB050A0819080A0822
:1026E0007C080A08147003249DF82830032BE1D8D5
:1026F0002B462DAA0E2108A8FEF7ABFA0028D9D048
:102700002D9B9D4A323B9342D4D82B460DAA0F21D4
:1027100008A8FEF76CFA0028CCD09DF83430073BAF
:10272000012BC7D82B4610AA102108A8FEF75FFA84
:102730000028BFD09DF84030022BBBD82B461AAAE8
:10274000112108A8FEF753FA0028B3D09DF868209D
:10275000531E012BAED89DF83430072B41F0168163
:102760009DF84030002B41F0F68040F2133140F2EA
:102770003333022A14BF0A461A4601F0F6B89DF810
:102780004030002B41F00F8140F2334140F21343BF
:1027900001F0E7B840F2314140F2114301F0E1B8F5
:1027A00076480BF005FF764A01219DF82830754DDB
:1027B000D1542D9A0092744A4FF48051284656F015
:1027C000D1FE0023CDE90233CDE9005395E06F48F7
:1027D000E7E76F48E5E76F48E3E700231AAA03211C
:1027E00008A88DF868302D930123FEF700FA08B988
:1027F000694AB0E59DF86830012BF9D801232DAA6C
:10280000122108A8FEF725FA0028F1D02D99634B74
:10281000994208D0624B994205D0624B994202D04E
:10282000614B9942E4D19DF868205D4B92B9994281
:1028300008D05C4B994205D0584B5B4A99420CBF7B
:1028400019461146594807F0D9FE80B9584A042163
:102850002046E1E4994208D0524B994205D04F4BB3
:10286000514A99420CBF194611465248EBE7524A69
:1028700001219DF86830434DD1542D9A00924F4A62
:102880009AE74F4F00253F4E09F098F9DFF85CA119
:10289000DFF85CB138604B483570FDF717FEE9B2E0
:1028A000386808F0FEF8E8B190F86B20092A19D0D2
:1028B00090F87120B421444B0392B0F86820B9F12C
:1028C000000F18BF53464FF000090292B0F866207F
:1028D0000DEB0100CDE900525A4656F043FE2DA8FB
:1028E000FDF7F4FD0135052DD9D13848FDF7EEFD92
:1028F0000023CDE90233CDE900631A461946C2E64A
:10290000214608A8FEF7B8FCFDF75AFD07E4304B56
:10291000196851B12A4B186808F03DF9034620B9EF
:1029200001902C4ACDE90200EFE52B4A8FE7002306
:10293000274A13600193294ACDE90233E5E5284D82
:102940002B78022B02D1274A032181E72122002183
:102950001AA8012656F02CFB402200212DA856F083
:1029600027FB009621231AAA342108A8FEF793F921
:1029700000283FD11C4AEEE4CE083D00B49E04245A
:10298000848003247C70032497080A08EC9F0424A5
:1029900024A104245CA20424B2080A0848E8010027
:1029A00090D0030020A1070040420F002C8904248E
:1029B000D4080A081C8D0424F25F0324F6080A08D0
:1029C000E880042476050A0825060A0843050A0853
:1029D000C014002484090A0893090A08AB090A08EC
:1029E000BC140024A8050A08BD090A08BC5F0A082F
:1029F00047090A08009640232DAA352108A8FEF7AA
:102A00004AF90028B6D009232DAA1AA9AB482E707E
:102A10000AF010FB2122002107461AA856F0C8FA36
:102A2000402200212DA856F0C3FADFF890920DF055
:102A30000DFE00F5EA46303648460AF0B9F903289B
:102A40000FD1032F9E4F04D09C480AF0B1F9032800
:102A500010D101239B4A3B700023CDE9023301933F
:102A600053E50DF0F3FD301A0028EADD32200DF0B9
:102A70000BFEE1E7002691483E700AF02AF92E701D
:102A8000914AE4E60025914FDFF850922E46DFF898
:102A900050A2AB4617F8013F6BB156F8093009EB6D
:102AA00006009B6A984755F80A300AEB05005B6AF6
:102AB000984787F800B0183605F53975C02EE9D16A
:102AC0007E480AF006F900237D4A1370804A13708D
:102AD0000193804ACDE9023317E5214608A8FEF7A5
:102AE00065FD11E700255AAA0123222102F8B45DF1
:102AF00008A8FEF77CF848B39DF8B430072B25D81A
:102B0000754EF25C12B31822744903EB4300534331
:102B100001EBC000CB589B6A98479DF8B4004FF476
:102B2000397343436E481A581844526A90479DF8C7
:102B3000B4306C4A4FF48051F5546B4E304656F029
:102B400011FDCDE90255CDE9006514E1674A02E4C3
:102B5000214608A8FEF7B6FFD6E60125122200217D
:102B600010A856F025FA0095122310AA242108A8CF
:102B7000FEF791F810B95E4AFFF7EDBB2046FEF76D
:102B800035FB00283FF4C0AE5A4B10A92DA81D6894
:102B90002B689E6E0DF0E9FB00222DA92846B04758
:102BA00006462DA80DF096FB0EB9534A4FE60DF0E0
:102BB0004DFD00F51C561AA8103601F08DFA0DF0E7
:102BC00045FD301A2B6800282CDD5B6F29462DA8A7
:102BD00098472DA801F036FA0746002830D02DA9D5
:102BE0000DA801F015FA06E02DA801F0CEF91AA8FB
:102BF00001F0CBF95BE010A90AA80DF0B6FB0AA919
:102C00000DA80DF07FFC07460AA80DF063FB0DA888
:102C10000DF060FBA7B12DA91AA8FEF785F82DA825
:102C200001F0B3F92B682846DB6E984713E00AA839
:102C30000DF050FB002FD7D00DA80DF04BFBD3E7C4
:102C40002B6828461B69984705200DF01DFD2DA80F
:102C500001F09BF9B3E71AA801F0F4F928B9274A63
:102C600004212046FEF7B2FA1AE01AA801F0F4FA9D
:102C70000028F4D01C4D1AA92148FEF755F810ABD6
:102C8000204A4FF48051284656F06CFC0023204621
:102C90001A461946CDE90233CDE90053FEF7CAF9C9
:102CA0001AA801F072F92FE62DA80DF013FB52F0CF
:102CB000BFFD99E7BEE797E799E700BF2497042493
:102CC0000C700324D9090A08080A0A082B1D0024DD
:102CD000BC140024200A0A082C1D0024341D0024E2
:102CE000F41D0024340A0A087C700324450A0A08EB
:102CF0005A0A0A08CC0F0A086E0A0A088D0A0A083E
:102D00009C800424A60A0A08A64801F09BF930B169
:102D1000A44801F0B7F910B1A24801F047F92DA875
:102D2000002501F0D9F92DA99E48FDF7FDFF2DA83A
:102D300001F02BF92DA801F06BF89B4B2E9A2DA8D2
:102D40005A602F9A9A6001F03DF8984B984A1D708E
:102D50004FF0FF331360974A1360974B186803686E
:102D6000DB689847954B1D70954B1D70954B0195F1
:102D70000093CDE902552B46BFE5002520462D9551
:102D8000ADF86850FEF732FA00283FF4BDAD00956B
:102D90001AAB2DAA332108A8FDF774FF00283FF4D1
:102DA000B3AD4FF0FF3382490B602D9BB3B1BDF83B
:102DB0006820062A02D0844AFFF7CDBA5A1E0A2696
:102DC000053312F8010FA0F13007092FF3D806FBE5
:102DD00005059342A5F13005F3D10D60764B022134
:102DE00018680368D3F898309847784B2D99784A3B
:102DF000002918BF1A460023CDE902330193FFF7DB
:102E000084BB214608A8FEF785FF7DE52522002129
:102E10001AA8012556F0CCF8252200212DA856F03D
:102E2000C7F8252300951AAA194608A88DF8285036
:102E3000FDF731FF10B9674AFFF78DBA00952523DA
:102E40002DAA262108A8FDF726FF0028F3D02B463F
:102E50000AAA372108A8FDF7CAFE0028EBD09DF882
:102E60002830012BE7D80DA82DAA1AA9FFF732F8B0
:102E70000DA801F023F828B9574A04212046FEF78F
:102E8000A5F93AE09DF828300DA813B101F066F8D5
:102E900001E001F074F80028EED09DF82830424D92
:102EA000424EF3B10E9B6B600F9BAB6001239DF80C
:102EB00028103370494D4A4A4A4B2846002918BF0A
:102EC0001346494A4FF4805156F04CFB00232046EC
:102ED0001A461946CDE90233CDE90053FEF7AAF8A8
:102EE0000BE010A800F094FF119B10A86B60129BE0
:102EF000AB6000F067FF0023D9E70DA800F062FF88
:102F000002E50DA800F05EFFD1E6002501232DAA01
:102F1000282108A8ADF8B4508DF834508DF84050F1
:102F20008DF86850FDF77CFE10B9304AFFF713BAF0
:102F300001230DAA292108A8FDF759FE0028F4D085
:102F40009DF83430012BF0D8012310AA2B2108A8BA
:102F5000FDF74DFE0028E8D09DF84030022BE4D864
:102F60002B461AAA382108A8FDF741FE0028DCD01C
:102F70009DF86830012BD8D8BDF8B4502846FDF72D
:102F800013FB0028D1D09DF83430012B03D19DF8DC
:102F90004020002AC9D1164A515D01292CD9154A71
:102FA000D2E400BF9C80042488800324F15F0324C2
:102FB0000400002408000024CC0F0A081470032425
:102FC000BC140024C80A0A08F40A0A0838070A08C8
:102FD00071070A08130B0A08340B0A087C700324D3
:102FE000FB050A0800060A08560B0A08680B0A08BF
:102FF00028650024920B0A080121E8B251556BBBE9
:103000009DF840308B4227D0022B14BF00210321B2
:103010000DF07EFBBDF8B4000122AE4BAE4D1A544C
:103020009DF834309A1A53425341AC4A1354C0B2FB
:103030000DF066FC0030AA4A18BF0120BDF8B4307C
:10304000A849D0549DF83400A74A002818BF0A4662
:103050000092A64AFFF7B0BB0221D9E70DF058FB5A
:103060009DF868109DF8B400003118BF01210DF0E3
:10307000D3FBCFE7002501232DAA282108A8ADF80E
:10308000B4508DF86850FDF7CBFD10B9984AFFF7A2
:1030900062B901231AAA2C2108A8FDF7A8FD00286F
:1030A000F4D09DF86870032FF0D8BDF8B4603046B6
:1030B000FDF77AFA0028E9D0864B9B5D002BE5D01E
:1030C0008C4BF0B29F550DF01BFC0030BDF8B430B6
:1030D000834A4FF4805118BF01207F4ED0543046B0
:1030E0009DF868200092844A56F03CFA29E50023B6
:1030F000FF22032108A88DF818308DF819308DF8BB
:103100001A308DF81B2006AAADF81E300D931093CF
:103110001A93ADF828300123FDF769FD10B9774AFD
:10312000FFF719B99DF81830012BF8D801230DF1DC
:103130001E020A2108A8FDF773FD0028EFD0012325
:103140000DAA072108A8FDF784FD0028E7D00D9BF4
:103150006B4AA3F57A739342E1D801230DF119026A
:10316000082108A8FDF743FD0028D8D09DF81930A4
:10317000032BD4D801230DF11A02092108A8FDF769
:1031800036FD0028CBD09DF81A30012BC7D801237B
:103190000DF11B020B2108A8FDF729FD0028BED068
:1031A000012310AA062108A8FDF753FD0028B6D078
:1031B00000231AAA052108A800930AABFDF762FDB7
:1031C0000028ACD0BDF82870109B9F4238BF1F4626
:1031D000B7F57A4F58D89DF81890BDF81E50B9F140
:1031E000000F284614BF03260226FDF7DDF900284C
:1031F0004AD0444B5A5D0AB1964245D15E550025EE
:10320000414B424EB9F1000F08BF1E4633683046AD
:10321000DB6A984701219DF81E000DF079FA012123
:103220009DF81E000DF0F8FA33680D9A3046D3F879
:103230001C909DF81A309DF81910B3FA83F32D9263
:103240008DF8B8105B098DF8BA508DF8B9302DABF8
:1032500093E80600C847DFF8C09029469DF81E0095
:103260000DF0DAFABD4212D0BDF82820304633689E
:1032700095429B6836BF1A9A9DF81B10515D98477E
:1032800009F805000135EDE7214AFFF75DBB012193
:103290009DF81E000DF0C0FA336830460E4E1B6AD2
:1032A00098479DF819209DF818304FF480510292EC
:1032B00030460D9A0192BDF81E200092154A56F034
:1032C00051F90021ABB2CDE90211CDE90061FFF760
:1032D000D9B900BF157003247C700324C4140024E2
:1032E000538104249A070A08A1070A08AC0B0A08AC
:1032F000C60B0A08EC800424F00B0A08080C0A0824
:1033000098ECFA0228650024F49604240C9704240F
:103310001D0C0A08480C0A08F06502240023012548
:103320000DF11B0203218DF81B3008A88DF81E300B
:1033300010931A932D93ADF834302B468DF8285006
:10334000FDF755FC10B98B4AFFF705B89DF81B3007
:10335000012BF8D82B460DF11E020C2108A8FDF711
:1033600046FC0028EFD09DF81E30083B6F2BEAD8B2
:103370002B4610AA072108A8FDF76BFC0028E2D015
:10338000109B7D4A934202D07C4A9342DBD10123B9
:103390001AAA062108A8FDF75CFC0028D3D01A9BC6
:1033A000202BD0D801230AAA0D2108A8FDF71FFC65
:1033B0000028C8D09DF82830012BC4D800232DAA9E
:1033C000052108A800930DABFDF75CFC064600281C
:1033D000B9D0BDF83430202BB5D89DF81B20684BF0
:1033E000684D002A08BF1D462B682846DB699847B0
:1033F0002B68109928469B6A9847BDF834300BB368
:103400002B6828469DF81E10DB6A98472B68BDF88C
:1034100034202846DB6C2D999847BDF8343098420B
:1034200002D0594AFFF713BA2B681A9A1B6B22B1C4
:103430009DF82860B6FA86F6760931462846984700
:103440000028EED11A9A9DF81E10002A35D02B685C
:103450002846DFF868A19E6B0123B04700262B6841
:10346000B7B228461B69B946984718B11A9B01366E
:10347000BB4218D81A9B4B451CD1109A4FF480516F
:10348000424D01929DF81E2028469DF81B30009267
:103490003F4A56F067F800213B46CDE90211CDE9DD
:1034A0000051FFF7EFB82B6828465B6998470AF888
:1034B0000700D4E7374AFFF7CAB91746DDE700230C
:1034C00010AA042108A88DF840302D93ADF868307B
:1034D0000123FDF78CFB10B92F4AFEF73CBF9DF886
:1034E0004030032BF8D82D4AD35C002BF4D00123B5
:1034F0002DAA052108A800931AABFDF7C3FB0028ED
:10350000EAD09DF840302D99BDF86820032B13D8E0
:10351000DFE803F0020C0E1021480BF033F9BDF880
:10352000683083420AD01F4AFFF791B91E48F4E77A
:103530001E48F2E71E48F0E70020F0E79DF8403013
:10354000124D00901B4AFFF737B900230DF11E0200
:10355000032108A88DF81E308DF8283010931A9397
:10356000ADF834300123FDF742FB48BB124AFEF7A9
:10357000F2BE00BF800C0A08A0860100801A060077
:10358000CC970424449C0424980C0A087C700324DF
:10359000D60C0A08A90C0A08140D0A088480032412
:1035A000B49E04243F0D0A08EC9F042424A10424A3
:1035B0005CA20424590D0A08720D0A08F065022461
:1035C0009DF81E30012BD1D8A24AD35C002BCDD060
:1035D000012310AA132108A8FDF73BFB0028C5D042
:1035E00001230AAA142108A8FDF701FB0028BDD079
:1035F0009DF82820012AB9D8109B002A36D1B3F5AE
:10360000006FB3D201231AAA052108A800930DABBD
:10361000FDF738FB0028A9D0BDF834000828A5D84C
:103620009DF82820109B22B323F0604343F0004311
:10363000894DC2B21A998DF8BC20CDE92D530023D3
:10364000CDF8BD30CDF8C13020B119B10DF1BD00BC
:1036500055F0B0FB9DF81E302DA96BB97F4806F0E0
:10366000D5FF00280ADC7E4AFFF7F1B8B3F1005F0E
:10367000C7E7C3F30A03DBE77A48F0E79DF8285071
:10368000794A7A481099002D18BF02469DF81E30DD
:10369000774DCDE90012774A4FF48051284655F016
:1036A00061FFFFF78EB8214608A8FEF73FF8FFF745
:1036B0002BB9002310AA222108A88DF840302D93A1
:1036C000ADF868300123FDF792FA10B96A4AFEF7A7
:1036D00042BE9DF84030072BF8D8684AD35C002BD7
:1036E000F4D001232DAA052108A800931AABFDF7F9
:1036F000C9FA0028EAD09DF84020614B11B29B5CCA
:10370000A3B918235F4D01EB41002D995343BDF838
:10371000682005EBC000EB585B6898470746BDF88A
:103720006830BB422AD0584AFFF791B84FF4397538
:10373000564E574FC1EBC11105FB02F037F812206E
:1037400083593044534FDB6A07EB4101984798B1E6
:103750009DF84000BDF8682068432D998359304496
:103760005B68984707469DF840006843835930449A
:103770001B6B98470028D2D10027D0E79DF8403036
:103780003B4D0097444AFFF717B80022214608A88E
:10379000FEF7D0FBFFF7B8B80122F7E700270123B7
:1037A0001AAA282108A8ADF868708DF840702D97E6
:1037B000FDF736FA40B1BDF868603046FCF7F4FE1C
:1037C00010B1364B9B5D13B9354AFEF7C4BD302DA1
:1037D00019D1F0B2334D0DF093F80030244E4FF470
:1037E000805118BF0120BDF868302F4A287030463C
:1037F00055F0B8FE01232A463946CDE90277CDE9D6
:103800000067FEF740BF012310AA2A2108A8FDF790
:10381000EEF958B19DF84030012B07D8BDF868305B
:10382000224AD35C2BB9224AFFF78EB8214AFEF711
:1038300092BD322D44D101232DAA2D2108A8FDF7D8
:1038400008FA20B12D9B1C4A013B934238D91B4AF0
:10385000FEF781BDF25F03247CFF09082C89042454
:103860008C0D0A081C8D042400060A08FB050A08B2
:103870007C700324AA0D0A08D80D0A082C1D002408
:103880007C800324341D0024F30D0A08F41D002459
:103890001C1D00242B1500240D0E0A08157003248E
:1038A0002B0E0A08F0650224590E0A08C4140024DD
:1038B0007A0E0A08670E0A083F420F00A20E0A0895
:1038C0009DF840109DF86800003118BF01210CF0F0
:1038D000A3FF322D0BD12D980CF0D8FE9DF840108F
:1038E0009DF86800B1FA81F149090CF095FF334960
:1038F0009DF84000324ABDF86830002818BF0A46DB
:103900002D99304DCDE900212F4AC5E62F4A0221DD
:10391000FEF79EBF41F213039D4203D9002333609B
:10392000FEF7F2BF6B1C08F805403360FEF7F7BBEB
:10393000FCF742FFFEF79EFBFCF794FE244B1B783E
:103940000BB1FCF7D3FE234B1B780BB1FCF794FFB4
:103950005BB0BDE8F08F012B1ED140F2313140F257
:103960001133022A0CBF0A461A469DF828302D99B9
:10397000032B3EF618AF01A050F823F0A12704084E
:10398000CF270408D3270408D7270408082B3EF4C0
:10399000F6AE40F21342E8E7022BFAD140F23231A0
:1039A00040F21233DDE7012B3EF4F4AE022BF0D1EE
:1039B00040F2124140F23243FEF7DBBEFB050A083B
:1039C00000060A087C700324BE0E0A08E90E0A08E5
:1039D0000C70032414700324014809F043B900BF9C
:1039E00024970424014809F03DB900BF249704241A
:1039F000704710B504465C213EF002FA204610BD27
:103A00000B4A1F2102600022C0E90921C0E90B22F4
:103A100080F8342080F835200264A0F8442080F833
:103A20004620C0E90E22C0E91222C0E915227047E3
:103A30000C0F0A0800231F22036380F8353003644B
:103A400080F84630C0E90A23C0E90E33C0E91233DA
:103A5000C0E9153370478B6A8362CB6AC3620B6B14
:103A6000036391F8343080F8343091F8353080F8C1
:103A700035308B6B8363CB6BC3630B6C0364B1F822
:103A80004430A0F8443091F8463080F846308B6CD2
:103A90008364CB6CC364B1F85030A0F850304B6DE8
:103AA00043658B6D8365704708B5FFF7D4FF08BD8C
:103AB00070B586B005460E46684603F063FFEC6CB1
:103AC0006846002CCCBF0234002403F099FF02307A
:103AD000241AA86A241808D4AC626846AE6403F0BD
:103AE0008FFFE864012006B070BD0020FBE710B531
:103AF000036C23B190F84640023304B10233941CA6
:103B00001B1B846A1B194FF0000457BF83622046B9
:103B100080F84640C0E90F1258BF012010BD30B5F3
:103B2000046C24B190F84650023405B102341D1DD6
:103B3000641B856A64195FBFC0E90F230123846297
:103B4000A0F844104EBF002080F84630184630BD23
:103B500030B5846D1D1D002CCCBF04340024641BC3
:103B6000856A641957BF84620020A0F85010C0E92C
:103B7000152358BF012030BD70B50546806B0E4639
:103B800088B1047814B156F01BFA841C304656F004
:103B900017FA0230241AA86A24185DBFAC6201200B
:103BA000AE63002070BD0446F0E790F83530826ABD
:103BB000002B0CBF6FF0020300239B185FBF8362D2
:103BC000012380F8341080F8353054BF18460020A7
:103BD000704704307047406A704790F8350070476E
:103BE00038B50446406A1546C0F11F03934208DB0E
:103BF0000430204455F0DEF8626A01202A446262F3
:103C000038BD0020FCE770B50446406A0E461D46EC
:103C100011460233C0F11F029A420FDB23186A1CBF
:103C20001A71821C063062622A465E71204455F089
:103C3000C1F8636A01202B44636270BD0020FCE779
:103C400070B586B00546684603F09CFE684603F0F2
:103C5000D7FE022804466846CCBF0626022603F09B
:103C6000CDFE2346024631462846FFF7CCFF06B07C
:103C700070BD13460A46FF21FFF7C5BF70B588B077
:103C8000064610461D4608AC1A4624F8201D01467B
:103C90000DF1020055F08EF8AB1C2246FF21304694
:103CA000FFF7B1FF08B070BD70B588B0064610468A
:103CB0001D4608AC1A4624F8201D01460DF10200ED
:103CC00055F078F8AB1C224616213046FFF79BFFD3
:103CD00008B070BD07B5012302AA02F8011D1946FC
:103CE000FFF791FF03B05DF804FB70B505460E4683
:103CF0001446104656F064F93146034622462846DB
:103D0000BDE87040FFF77FBF70B5054608460C461A
:103D100056F056F91D2807D9224628461D230821AA
:103D2000BDE87040FFF76FBF224628460921BDE875
:103D30007040FFF7DABF38B50023C16A0546436219
:103D400029B1026B1AB1BDE83840FFF749BF95F8B9
:103D500035307BB395F834102846FFF7BBFF044697
:103D6000A96C21B12846FFF76BFF0440E4B2E96B70
:103D700061B12B6C53B195F84620EAB10A4628464A
:103D8000B5F84410FFF77AFF0440E4B26A6D42B11F
:103D9000AB6D33B1B5F850102846FFF785FF0440EE
:103DA000E4B2A96B21B12846FFF7AEFF0440E4B2AC
:103DB000204638BD0124D3E71A462846FFF759FFAD
:103DC000E2E700000C4B10B504460360406838B1D0
:103DD00000F022FC20B9606810B103685B68984766
:103DE000A06838B101F0F7F920B9A06810B10368F4
:103DF0005B689847204610BD1C0F0A0810B50446A2
:103E0000FFF7E0FF0C2120463DF0FAFF204610BDF1
:103E1000024A02600022C0E9012270471C0F0A0812
:103E2000064B10B5C0E9003100230446836011B190
:103E3000084600F0ECFB204610BD00BF1C0F0A082E
:103E4000064B10B5036000230446C0E9013111B1EF
:103E5000084601F0BBF9204610BD00BF1C0F0A0840
:103E60000346406808B100F0C9BB986808B101F08A
:103E7000ABB90148704700BFBC5F0A080346406801
:103E800008B100F0D1BB986808B101F0CDB9704716
:103E900010B4446824B120465DF8044B00F0D0BB58
:103EA000806818B15DF8044B01F0C4B95DF8044BAB
:103EB0007047806808B101F011BA7047436823B9B0
:103EC0008068003018BF012070470120704708B596
:103ED000836823B1FFF7D2FFC0F3400008BD184646
:103EE000FCE7806808B101F011BA7047F8B50546E3
:103EF00040680E46174618B300F0A0FBB842A8BFB2
:103F000038460446686800F097FB01462246304672
:103F100054F050FFA86888B101F0F0F990B9A86892
:103F20003C4601F085F98742A8BF0446A86801F025
:103F30007DF901462246304654F03CFF2046F8BD4C
:103F40000446E7E72846FFF7C2FF0028E7D02846E7
:103F5000FFF7C7FF0028E2D10446EFE710B58468F9
:103F60005CB1FFF78BFF10F0200F204614BF022139
:103F70000121BDE8104001F067BA204610BD8068FD
:103F800010B1002101F060BA70477047024B186809
:103F900003681B69184700BFBC120A08024B186867
:103FA00003685B69184700BFBC120A08054B1B6811
:103FB00010B41A6801795469421D184623465DF809
:103FC000044B184710110A080B4B10B5044618682B
:103FD0000368621D21799B6A98474FF6FF7301467B
:103FE000984206D0054B18680268BDE81040926AF6
:103FF000104794F94B0010BD10110A08BC120A08B2
:1040000010B504464C213DF0FBFE204610BD0000DB
:1040100010B504468AB048794B7A8A7A0390887939
:104020000290C879019005A8097A0091044955F0D9
:10403000E1FA05A920460CF098F920460AB010BD17
:10404000240F0A08002307B50622694605300093AD
:10405000ADF8043054F07CFE003018BF012003B0EE
:104060005DF804FB08B502790B799A4208D1062263
:104070000531053054F06CFEB0FA80F0400908BDFF
:104080000020FCE70A4B10B50446186803681B695A
:104090009847236820461B6A984740B1054B621D2C
:1040A000217918680368BDE810405B6B184710BDA4
:1040B000BC120A0810110A0808B502790B799A4255
:1040C00008D106220531053054F042FE003018BFF9
:1040D000012008BD0120FCE7064A7F210260002282
:1040E00080F84B10C2720273C0F80520A0F80920B6
:1040F000704700BF4C0F0A080171002110B5C17252
:1041000001737F21054C80F84B1004601168C0F8E2
:1041100005109288A0F8092010BD00BF4C0F0A08B6
:104120002DE9F0410F46164905460CF01EF93A7B81
:1041300000218A4220DD7B1801F10208597B9B7B1C
:104140004C1E083B012B0FD8214628460CF0E1F805
:104150000026B44210DD08EB060328463B44597B99
:104160000CF078F90136F4E704EB0801E1E72846A2
:104170000CF0B0F851F05CFB2846BDE8F08100BFC0
:10418000BC5F0A081FB5014601A8FFF7C9FF0398E5
:10419000041C01A818BF01240CF09CF8204604B0B0
:1041A00010BD00002DE9F04F002485B00E462549D2
:1041B000A046074601920CF0D8F8337BA3423DD9C4
:1041C000631C5FFA83FA331993F80DB006EB0A0308
:1041D0005B7B9A1E012A1DD9063B012B25D8102591
:1041E000023405FB05F34FF00009E4B200930BF134
:1041F000FF330D340293EBB234440393029B4B45DF
:1042000013DD019B984507D0009B08F10108A944E4
:104210001C44F3E70225E3E70399204603F0F2FB91
:10422000014638460CF0D9F8EEE70BEB0A04E4B28D
:10423000C3E738460CF04EF851F0FAFA384605B0AC
:10424000BDE8F08FBC5F0A0810B504460022FFF7F6
:10425000A9FF204610BD0000054B1B6810B41A686A
:1042600001791469421D184623465DF8044B18472E
:1042700010110A08064B014618684A1D10B403685D
:1042800009799C690023A4465DF8044B604700BF90
:1042900010110A08054B30B4044618680368621D03
:1042A0009D690B462179AC4630BC604710110A0865
:1042B000074B1B6810B51A680179D46A421D18466D
:1042C000A04718B1BDE8104001F0EFB910BD00BF24
:1042D00010110A080E4B70B50446186815464A1DA1
:1042E00003680979DB6A9847064668B101F0DDF991
:1042F000A84209DD2946304601F0D9F90146204699
:1043000000F008F9204670BD204600F0FBF8F9E700
:1043100010110A082DE9F84F9946174B05469046AB
:1043200018684A1D09790368DB6A98470746F0B1A7
:10433000002401F0BAF982462646544517DA214690
:10434000384601F0B4F9834600F03EFF014640468E
:1043500055F0B8F948B94E4506D15946284600F0FF
:10436000D9F82846BDE8F88F01360134E5E728463C
:1043700000F0C8F8F5E700BF10110A0810B50446B0
:104380000023FFF7C7FF204610BD0000F8B50E4B15
:1043900001791B681A68D46A421D1846A047064670
:1043A00078B1002401F081F907462546BC4209DABC
:1043B0002146304601F07BF9013401F0F5F905445E
:1043C000F4E705462846F8BD10110A081A4B2DE9F6
:1043D000F0470546186817464A1D03680979DB6AE5
:1043E0009847804618B3002401F05FF981462646BD
:1043F0004C451CDA2146404601F059F9824601F04D
:10440000D3F90021814206EB01030DDA9F4209D165
:10441000504601F0CBF901462846FFF711FD28462A
:10442000BDE8F0870131EDE701341E46E0E728469C
:10443000FFF7EEFCF3E700BF10110A0808B51346BA
:1044400002798A4208D106221946053054F080FCD0
:10445000B0FA80F0400908BD0020FCE710B5044622
:10446000012000FA01F1227304F10D00E1721946F6
:1044700054F0A0FC9DF9083084F84B3010BD70B5A5
:104480000D461146C27A04461E4642F01002C27220
:104490002A46007B0D30204454F08CFC237B84F8AA
:1044A0004B601D44257370BDC37A13F0180F14BF01
:1044B00001200020704700000C4B10B5044603603B
:1044C000406838B100F0A8F820B9606810B10368FE
:1044D0005B689847A06838B100F07DFE20B9A068FD
:1044E00010B103685B689847204610BD800F0A082A
:1044F00010B50446FFF7E0FF0C2120463DF080FC9C
:10450000204610BD024A02600022C0E90122704725
:10451000800F0A08064B10B5036000230446C0E96B
:10452000013111B1084600F051FE204610BD00BF18
:10453000800F0A080346406808B100F05FB8986829
:1045400008B100F041BE0148704700BFBC5F0A08D7
:10455000436823B98068003018BF012070470120EC
:1045600070472DE9F84F054688680F4691469A46F0
:10457000F0B1002401F018F980462646444517DAC8
:104580002146B86801F012F9834600F01DFE01468D
:10459000484655F097F848B9564506D15946284639
:1045A000FFF74EFC2846BDE8F88F01360134E5E7F9
:1045B0002846FFF72DFCF5E710B504460023FFF76A
:1045C000D0FF204610BD40687047704700207047FC
:1045D00010B5044620213DF013FC204610BD00001C
:1045E000054B10B5044640F8043B03F0CBF900231B
:1045F0002046E36110BD00BF900F0A08043003F0AD
:10460000FBB9043003F0FAB9043003F0F9B9C36917
:104610000133C36118467047C369013BC361184643
:10462000704742F60300704790F82000704790F8FA
:1046300021007047406A7047806A7047808D7047DC
:10464000436A9A42A8BF1A462DE9F0410446828582
:1046500092B2806A0F4654F0ADFB94F82E300BB145
:10466000636AA38594F8203098060FD5A28E91072F
:104670000CD51F4B218E1868013103685D6DA38D29
:10468000AC46A26A89B2BDE8F0416047DA0609D5B6
:10469000A38EDB0706D5164B218E186801310368FF
:1046A0001D6DECE794F83230F3B1124B21461868D7
:1046B00003685B6A9847104B01463A461D682B68B1
:1046C00028461E6BA38DB047094B186803681B6B07
:1046D000984748B9094B186803689B68984718B110
:1046E0002B6828465B6D9847A08DBDE8F08100BF20
:1046F00010110A085C120A08CC0F0A0810120A08E6
:1047000038B505460C46084655F05AFC2146024687
:104710002846BDE83840FFF793BF01867047008EFA
:104720007047008E013080B27047806B7047836B9A
:10473000994208D2C36B0022914202D05B680132D9
:10474000FAE718687047002070470000114B0360BB
:104750000B7903710B4630B553F8052F01F149046D
:10476000C0F8052000F10D029B88A0F80930CB7A33
:10477000C3720B7B037301F10D0353F8045BA34277
:1047800042F8045BF9D11B88138091F94B3080F813
:104790004B3030BD4C0F0A0838B5044608200D4692
:1047A0003DF0FAFA0023C0E9005363682BB960605A
:1047B0002368A0600133236038BDA3685860F7E721
:1047C00070B50446002540682368AB4206D94668A8
:1047D00008213DF015FB01353046F5E70023C4E91B
:1047E0000033A36070BD0000F8B5044615461F46AF
:1047F000FFF7F6FE264B0021B7F5007F84F8205026
:1048000023604FEA1523A1854FF0100284F8213070
:104810003B46A8BF4FF40073218684F8321004F1A0
:10482000440063629DF8183084F8331084F82E3009
:10483000A1862164C4E90E1154F0BAFB15F0300FC3
:1048400020D02C2004F138063DF0A6FA022304F112
:1048500034021049054600F0EBF82846FFF7D7FE72
:1048600029463046FFF798FF0CE02C2128463DF002
:10487000C7FA3046FFF7A4FF2046FFF7A6FE50F028
:10488000D7FFF6E7384653F045FFA0622046F8BD53
:10489000AC0F0A089C0F0A0870B5154B044600259A
:1048A0000360A36B9D4212D2E36B0022954202D0BB
:1048B0005B680132FAE71E683046FFF7ADFE20B9AB
:1048C0001EB1336830465B6898470135E9E704F16B
:1048D00038052846FFF774FFA06A08B153F022FF9D
:1048E0002846FFF76DFF2046FFF76FFE204670BD9C
:1048F000AC0F0A0810B50446FFF7CEFF542120463E
:104900003DF07EFA204610BDF0B5C56C97B0044668
:1049100017461E467DB103A8FFF718FF21466846DB
:10492000FFF77EFA694603A8A8476846FFF74AFAE8
:1049300003A8FFF72AFBA16A30461C9A394454F0B9
:1049400039FA17B0F0BD6846FFF73CFA03A8FFF745
:104950001CFB50F06DFFF9E770B50E4611460122C1
:10496000044696B080F833201A46FFF769FE256D9D
:1049700085B1314603A8FFF7E9FE21466846FFF7F7
:104980004FFA694603A8A8476846FFF71BFA03A831
:10499000FFF7FBFA16B070BD6846FFF713FA03A8DD
:1049A000FFF7F3FA50F044FFF9E702F00302838EB9
:1049B000934230B5044697B017D08286002A0CBFC8
:1049C00044224022024455687DB103A8FFF7BEFE91
:1049D00021466846FFF724FA694603A8A8476846B7
:1049E000FFF7F0F903A8FFF7D0FA17B030BD68461B
:1049F000FFF7E8F903A8FFF7C8FA50F019FFF9E745
:104A00004FF4245070470000034B10B50446036078
:104A1000FFF7DBFD204610BDC00F0A0810B50446A5
:104A2000FFF7F2FF2C2120463DF0EAF9204610BDA9
:104A300070B51D4604461646FFF7D2FD064BB5F588
:104A4000007F266220462360A8BF4FF40075002334
:104A50006562238570BD00BFC00F0A08406A7047B9
:104A6000006A704701857047024B186803681B692C
:104A7000184700BFBC120A08024B186803685B693C
:104A8000184700BFBC120A08064B186810B5036827
:104A90001B699847044B18680368BDE810401B6BFE
:104AA000184700BFBC120A0810110A08064B186804
:104AB00010B503681B699847044B18680368BDE884
:104AC0001040DB6B184700BFBC120A0810110A081F
:104AD000024B186803689B6C184700BF10110A0846
:104AE0000C30704768307047024B186803681B69C8
:104AF000184700BF5C120A08024B186803685B691C
:104B0000184700BF5C120A08024B186803689B69CB
:104B1000184700BF5C120A08024B186803681B693B
:104B2000184700BF10120A08024B186803685B6937
:104B3000184700BF10120A08024B186803685B6A26
:104B4000184700BF10120A08074B10B50446186832
:104B500003681B699847054B204619680B68DB6C96
:104B60009847204610BD00BFBC120A0810110A0861
:104B7000074B10B50446186803681B699847054B36
:104B8000204619680B689B6A9847204610BD00BFF5
:104B9000BC120A0810120A08024B18680368DB6A84
:104BA000184700BF10120A08024B186803689B6977
:104BB000184700BFC0140A08024B18680368DB6975
:104BC000184700BFC0140A08024B186803681B6B23
:104BD000184700BF10120A08024B18680368DB6808
:104BE000184700BF10110A08024B186803681B6AB7
:104BF000184700BFC0140A08024B186803685B6AB4
:104C0000184700BFC0140A08024B1B68C3F8F01015
:104C1000704700BFBC120A08024B1B68C3F8F810AB
:104C2000704700BFBC120A08024B1B68C3F8F4109F
:104C3000704700BFBC120A08024B1B68C3F8EC1097
:104C4000704700BFBC120A08024B1B68C3F8FC1077
:104C5000704700BFBC120A08024B1B68C3F8001162
:104C6000704700BFBC120A08024B18680368D3F8EB
:104C70009C301847BC120A08024B18680368D3F826
:104C8000A0301847BC120A08F0B5012187B00446CD
:104C90000A200BF087FD00210A200BF003FE4FF4E1
:104CA000FA700BF0F1FC01210A200BF0FBFD4FF430
:104CB000FA700BF0E9FC294B1D682B6828469B68AD
:104CC0009847064620B923682046DB6898470DE0E0
:104CD00064200BF0D9FC2B6828469B699847064650
:104CE00038B1236800262046DB689847304607B075
:104CF000F0BD05AA2B680DF10D01284601920DF1BA
:104D00001202009204AADF690DF10E03B8470028D1
:104D1000D9D12B684FF0FF322846D96A6FF0404353
:104D200088470028CFD12B6840F2FF322846196B04
:104D30000023884706460028D3D12B680DF10F02C7
:104D40000DF1160128465B6B98470028BBD1044B38
:104D50000126186803689B689847C7E7BC120A08D1
:104D60005C120A080C4B10B5044618680368DB682F
:104D700098470A4B18680368DB68984700210A20A7
:104D80000BF090FD04F10C00FEF754FE04F16800F6
:104D9000BDE81040FEF74EBE5C120A08BC120A08BD
:104DA00010B500238CB00446059305A9ADF8183062
:104DB0000F4B186803681B6A98479DF814109DF8FC
:104DC000183007A803919DF815109DF8192002913D
:104DD0009DF8161001919DF817100091054954F0A7
:104DE00009FC07A920460BF0C0FA20460CB010BD04
:104DF000BC120A08240F0A080C30FEF759BE70B521
:104E00000368044608469D6AFFF794FB0146204666
:104E10002B46BDE8704018470C30FEF799BE0C30A9
:104E2000FEF765BE0C30FEF77ABE6830FEF7A4BE12
:104E30006830FEF739BE10B500F10C042046FEF7CD
:104E400033FE2046FEF7C9FE28B920460621BDE8FC
:104E50001040FEF7AABE10BD2DE9F743044600F14D
:104E60000C0568342846FEF766FF2046FEF763FF10
:104E70000E4B28461E683368DF68FEF7AAFE8046A0
:104E80002846FEF7A8FE05462046FEF7A2FE81460C
:104E90002046FEF7A0FE4B46C0B24146EAB2009063
:104EA0003046B84703B0BDE8F08300BF10120A08CF
:104EB0007FB50C4B164601A81C6823689D690BF052
:104EC00082FA324601A92046A84704E001A80BF067
:104ED00001FA50F0ADFC044601A80BF0FBF92046A6
:104EE00004B070BD10120A087FB50C4B164601A81D
:104EF0001C682368DD690BF066FA324601A920467A
:104F0000A84704E001A80BF0E5F950F091FC044635
:104F100001A80BF0DFF9204604B070BD10120A089A
:104F20007FB50C4B164601A81C6823681D6A0BF060
:104F30004AFA324601A92046A84704E001A80BF02E
:104F4000C9F950F075FC044601A80BF0C3F92046DE
:104F500004B070BD10120A0802290BBF044B054BA8
:104F6000186818680BBF036803685B6B9B6D184774
:104F700010120A0810110A0870B5054604460D4BB8
:104F800005F1680644F80C3B2046FEF739FD304633
:104F9000FEF736FD06212046FEF707FE08E0304604
:104FA000FEF726FD2046FEF723FD50F041FCF9E711
:104FB000284670BDD80F0A0810B5054C2046FFF7EB
:104FC000DBFF2046034A0449BDE810403CF08ABCA0
:104FD000BC81042400000024DD4F0408064B10B5FA
:104FE000044640F8683BFEF703FD04F10C00FEF7B1
:104FF000FFFC204610BD00BFD80F0A0810B50446BC
:10500000FFF7ECFFC42120463CF0FAFE204610BD1D
:105010000E4B196810B594B00B6801A8DB6C98476B
:1050200001A8FFF70FF848B101A8FEF7CDFF04462D
:1050300001A8FEF7AAFF204614B010BD7F24F7E7B1
:1050400001A8FEF7A2FF50F0F3FB00BF10110A0801
:105050004FF420507047000010B50446FFF7C0FA27
:10506000044B204623600023C4E90833C4E90A3313
:1050700010BD00BFA4100A08018442847047008C50
:105080007047408C7047406A7047436A994208D223
:10509000836A0022914202D05B680132FAE7186805
:1050A00070470020704738B5044608460D46FFF7A4
:1050B000AEFA08203CF070FE0023C0E90053A36A5A
:1050C0002BB9A062636AE0620133636238BDE36AB0
:1050D0005860F7E770B50446002540682368AB4286
:1050E00006D9466808213CF08BFE01353046F5E7CD
:1050F0000023C4E90033A36070BD10B5044624301A
:10510000FFF7E8FF0023236210BD000070B5134BCA
:10511000044600250360636A9D4212D2A36A0022FE
:10512000954202D05B680132FAE71E683046FFF70D
:1051300073FA20B91EB1336830465B689847013571
:10514000E9E72046FFF7D9FF04F12400FFF7C2FF8B
:105150002046FFF73AFA204670BD00BFA4100A08A7
:1051600010B50446FFF7D2FF302120463CF048FE40
:10517000204610BD044B10B5044640F8043B0BF02C
:10518000A9F8204610BD00BFB8100A0810B50446A3
:10519000FFF7F0FF142120463CF032FE204610BD00
:1051A00038B50446074B08461146254645F8043BEA
:1051B00002F028FC014628460BF0D7F800232046D1
:1051C000236138BDB8100A0840687047036901338D
:1051D0000361184670470369013B03611846704735
:1051E00070B504461E46BDF81450FFF7D9FF0D4BAD
:1051F000012225762D0A23602046BDF81030A682B4
:10520000E382BDF8183065766383002384F8252097
:1052100084F82430C4E90733C4E90A33C4E90C3301
:1052200070BD00BFC8100A08007E7047C069704793
:10523000006A70472DE9F0439846274B85B0044635
:105240001E680F46818A9146336830469B6B9847AB
:1052500018B9002005B0BDE8F08333683046A18A54
:105260005B6C9847033885B2E0694D45A8BF4D4651
:10527000294653F0B5FFE0610028EAD0237E1A07E3
:105280001CD5B8F1000F19D003A83368628B0190C8
:10529000E8B2A18A00903046D3F860803B46C04710
:1052A0000028D7D09DF80C30012BD2D02A463946A1
:1052B000E06953F07FFD25620120CBE75B07C8D58D
:1052C0003368E8B2628B00903046D3F864803B4686
:1052D000A18AC047EAE700BF10110A08064B10B5C3
:1052E000044618680368A18A9B6B9847002394F8CA
:1052F000240084F8243010BD10110A08034601224E
:1053000090F8250083F8252070470000154B818A0E
:10531000F0B51E68C1B00446336830469B6B9847B1
:10532000054648B133683046628BDF6D6B46A18A13
:10533000B84720B900252562284641B0F0BD9DF848
:105340000030012BF6D0411EE069216253F048FF86
:10535000E0610028EED0226A0DF1010153F02AFD30
:10536000EAE700BF10110A08408B704738B50446C1
:1053700008460D46FFF72AFF08203CF00DFD0023EC
:10538000C0E90053E36A2BB9E062A36A20630133EA
:10539000A36238BD236B5860F7E770B5044600255B
:1053A00040682368AB4206D9466808213CF028FDD6
:1053B00001353046F5E70023C4E90033A36070BD32
:1053C00003688B4208D9436800228A4202D05B6896
:1053D0000132FAE71868704700207047F8B50546B3
:1053E000134B0446002645F8283BA36A9E420ED282
:1053F00031462846FFF7E4FF0746FFF7ECFE20B9E9
:105400001FB13B6838465B6898470136EDE7284690
:10541000FFF7C3FFE06918B153F084F90023E3619B
:105420002846FFF7BAFF2046FFF7A4FE2046F8BD46
:10543000C8100A0810B50446FFF7D0FF38212046EF
:105440003CF0DEFC204610BD2DE9F04306468DB051
:105450000546002456F8287FDFF87C80ADF80E1052
:10546000BC4219DA21463046FFF7AAFF8146FFF712
:10547000ABFE414654F0C8F960B902220DF10E01AD
:10548000484600F0B3F8041C18BF012420460DB0B4
:10549000BDE8F0830134E3E72C7E14F03004F5D04E
:1054A0006A8B04A8AB8A013292B2009200221146A4
:1054B00000F08AF802220DF10E0104A800F096F81F
:1054C000041C04A818BF012400F062F8DEE704A859
:1054D00000F05EF850F0ACF99C0F0A0870B5044675
:1054E000036296B00D46C0691946164653F078FE21
:1054F000E06110B9206216B070BD01233146226A06
:1055000084F82430002384F8253053F053FC666B74
:10551000002EF0D01D4B05F1490103932B798DF836
:1055200010302B4653F8052F9B88CDF811200DF134
:105530001902ADF81530EB7A8DF817302B7B8DF80A
:10554000183005F10D0353F8040B8B4242F8040B9D
:10555000F9D11B8821466846138095F84B308DF8A9
:105560005730FEF76DFC694603A8B0476846FEF762
:1055700029FC03A8FEF709FDBDE76846FEF722FCFB
:1055800003A8FEF702FD50F053F9F9E74C0F0A08A3
:10559000074B10B504460360806918B153F0C2F898
:1055A0000023A3612046FFF7E5FD204610BD00BFA4
:1055B000D8100A0810B50446FFF7EAFF202120465C
:1055C0003CF01EFC204610BD38B504461D46FFF7D2
:1055D000E7FD054BA58220462360BDF81030E3822D
:1055E0000023C4E9063338BDD8100A082DE9FF416D
:1055F0001C4B04460F46818A1E689046336830462D
:105600009B6B984718B9002004B0BDE8F08133685F
:105610003046A18A5B6C9847033885B2A06945453E
:10562000A8BF4546294653F0DBFDA0610028EAD01B
:1056300003A83368E28A0190E8B2A18A009030465C
:10564000D3F860803B46C0470028DCD09DF80C3082
:10565000012BD8D02A463946A06953F0ABFBE5614F
:105660000120D1E710110A08034A02600022C0E9B4
:105670000122C260704700BFE8100A0838B504462E
:1056800008460D46FFF7A2FD08203CF085FB0023ED
:10569000C0E90053A3682BB9A0606368E0600133E0
:1056A000636038BDE3685860F7E740687047436857
:1056B000994208D283680022914202D05B6801328D
:1056C000FAE7186870470020704770B50446002557
:1056D00040682368AB4206D9466808213CF090FB3D
:1056E00001353046F5E70023C4E90033A36070BDFF
:1056F00070B50646002473689C4212D2B36800223B
:10570000944202D05B680132FAE71D682846FFF731
:1057100062FD20B91DB12B6828465B6898470134AB
:10572000E9E7301DFFF7D1FF70BD000038B5044632
:10573000054B054644F8043BFFF7DAFF2046FFF728
:10574000C4FF284638BD00BFE8100A0810B504465B
:10575000FFF7ECFF102120463CF052FB204610BD25
:1057600038B504461D46FFF71BFD0B4BA58204F11F
:1057700018002360BDF810300849E3820AF0F5FDF7
:1057800004E02046FFF7F6FC50F052F800232046D4
:10579000C4E90933E36238BDF8100A08BC5F0A089F
:1057A000808A7047C08A7047406A7047436A99424E
:1057B00008D2836A0022914202D05B680132FAE784
:1057C000186870470020704738B5044608460D46F3
:1057D000FFF7FCFC08203CF0DFFA0023C0E900538F
:1057E000A36A2BB9A062636AE0620133636238BDC9
:1057F000E36A5860F7E770B50446002540682368FF
:10580000AB4206D9466808213CF0FAFA0135304629
:10581000F5E70023C4E90033A36070BD70B5154BF4
:10582000044600250360636A9D4212D2A36A0022E7
:10583000954202D05B680132FAE71E683046FFF7F6
:10584000CAFC20B91EB1336830465B689847013501
:10585000E9E704F124052846FFF7CDFF2846FFF7C6
:10586000CAFF04F118000AF035FD2046FFF782FC5C
:10587000204670BDF8100A0810B50446FFF7CEFFA9
:10588000302120463CF0BCFA204610BDA0F8A810FC
:105890007047C0F8AC1070472DE9FF41013A13F88A
:1058A000014B05460F46D6B20268CDE90233526C71
:1058B00090470C2C02462968029B79D02FD8052CE2
:1058C00069D01AD8022C60D00BD8012C53D00623F3
:1058D0002246284600930023D1F8DC603946B047C1
:1058E0006EE0032C54D0042CF1D10093D1F89440F5
:1058F000334639462846A04762E0092C52D007D8E3
:10590000062C4BD0082CE2D10093D1F8A440EFE74D
:105910000A2C4DD00B2CDAD1D1F8B4402DE0162C46
:1059200051D00FD8112C40D005D8102CCFD10093D6
:10593000D1F8B840DCE7122C18D0132CC7D1D1F81D
:10594000C8401AE01D2C04D00CD8182C3FD01B2CBA
:10595000BDD100932246D1F8D4803346394628463B
:10596000C0472DE01E2C36D0522CB0D1CDE90063BB
:10597000D1F8C46020E0D1F8844032463946284648
:10598000A44604B0BDE8F0416047D1F88840F4E790
:10599000D1F89040F1E7D1F89C40EEE70093D1F8C0
:1059A000A040A5E7D1F8AC40E7E7D1F8C040E4E774
:1059B000CDE90063D1F8B060234639462846B047A8
:1059C00004B0BDE8F0810093D1F8CC4090E700939B
:1059D000D1F8D0408CE7D1F8D840CEE700F18C0365
:1059E0004FF6FF72B0F8B010914204D11C309842CB
:1059F000F8D1002070470120704708B503689B6A02
:105A000098474FF6FF73C01A18BF012008BD000069
:105A100038B50A4B04460D46186803681B69984759
:105A2000204604F18C03B0F8B020AA4204D01C3008
:105A30009842F8D1002038BD0120FCE7BC120A08CA
:105A400000F18C0390F9C820002A04DB1C30984236
:105A5000F8D1002070470120704730B500231C2486
:105A600004FB0302B2F8B0508D4204D00133052B81
:105A7000F6D1002002E092F8C800C00930BD30B570
:105A800000231C2404FB0302B2F8B0508D4202D163
:105A9000B2F8C00030BD0133052BF3D11720F9E770
:105AA0001FB50224ADF80D2002688DF80C4000935C
:105AB0000323D2F8F04003AAA04704B010BD1FB5DD
:105AC0000424ADF80920ADF80B30069A03688DF870
:105AD0000840009202AAD3F8F0400523A04704B082
