:020000040804EE
:10000000000008242506090871060908250A0808C1
:100010002B0A0808310A0808370A080800000000FF
:10002000000000000000000000000000D5090508E5
:1000300071060908000000006F0A05087F0A05081C
:100040007106090871060908710609087106090890
:100050007106090871060908710609087106090880
:100060007106090871060908710609087106090870
:100070007106090871060908710609087106090860
:100080007106090871060908710609082512090890
:1000900035120908311209084112090871060908C8
:1000A0007106090871060908710609087106090830
:1000B0007106090871060908710609087106090820
:1000C0007106090871060908710609087106090810
:1000D0007106090871060908710609087106090800
:1000E0007106090871060908000000007106090878
:1000F00071060908710609087106090871060908E0
:10010000710609089DFD08087106090871060908AD
:1001100071060908710609087106090871060908BF
:1001200071060908710609087106090871060908AF
:10013000710609087106090871060908710609089F
:10014000710609087106090800000000000000009F
:10015000710609087106090871060908710609087F
:10016000710609087106090871060908710609086F
:1001700071060908710609087106090800000000E7
:10018000710609087106090871060908710609084F
:10019000710609087106090871060908710609083F
:1001A000710609087106090871060908710609082F
:1001B000710609087106090871060908710609081F
:1001C000710609087106090871060908710609080F
:1001D00071060908710609087106090871060908FF
:1001E00071060908710609087106090871060908EF
:1001F00071060908710609087106090871060908DF
:1002000071060908710609087106090871060908CE
:1002100071060908710609087106090871060908BE
:1002200071060908710609087106090871060908AE
:1002300071060908210609087106090871060908EE
:10024000710609087106090871060908710609088E
:10025000710609087106090871060908710609087E
:10026000710609087106090871060908710609086E
:10027000710609087106090871060908710609085E
:1002800071060908710609087106090800000000D6
:10029000710609087106090810B5054C237833B9B1
:1002A000044B13B10448AFF300800123237010BD49
:1002B000A014002400000000483D0B0808B5034BC3
:1002C0001BB103490348AFF3008008BD00000000E4
:1002D000A4140024483D0B08154B002B08BF134BFA
:1002E0009D46A3F5803A00218B460F461348144AD9
:1002F000121A58F095FE0F4B002B00D098470E4B6A
:10030000002B00D098470020002104000D000D486C
:10031000002802D00C4841F01DFB58F03FF82000A7
:10032000290012F03DFF41F031FD00BF0000080040
:100330000000082400000000FD300508A01400247F
:10034000A0AD0524551908080000000000207047E2
:10035000704703689B6B18477047092A04BF012345
:100360004371437923B90079431A58425841704781
:100370000020704703798B4204D112F1FF3018BF7F
:100380000120704700207047034BB0FBF3F202FBE3
:100390001300024B1860704740420F000800002411
:1003A000054B1B685A1C05D0044A1068C31A5842F2
:1003B00058417047012070470400002408000024C1
:1003C00010B5084C22681AB10021074858F028FEE1
:1003D0000023064A1360064A23601380054A1380EF
:1003E00010BD00BF10700324948003249480042463
:1003F0009A8004249880042410B50446142141F006
:1004000035FD204610BD00002DE9F74322230C46A0
:100410009046471E0125DFF870900B7017F8013FDA
:100420005BB30022222B0092CDF8032001D05C2B7D
:100430000ED15C228DF801308DF800200222AE181A
:10044000B31C434513D90020207003B0BDE8F083EE
:10045000A3F120025E2A06D94A460721684659F0D0
:10046000B9F80622EBE78DF800300122E7E76019C2
:10047000694658F0D7FC3546D0E722220120625564
:100480002C446370E1E700BFD7020A08F8B50D4DB0
:100490000D4FA5F1C00645F8187D6C697CB1636805
:1004A000013B63605BB9236820469B689847A3685B
:1004B000013BA3601BB923682046DB689847B5421F
:1004C000E9D1F8BDF41D0024281A0A0810B54FF42C
:1004D00080510446074859F0ADFEB0F5805F08D260
:1004E000C0F57F62214603480F32BDE8104059F045
:1004F000F5BD10BD7C70032470B5064C064EA4F506
:10050000B955A4F53974204626600DF00BFDAC42B8
:10051000F7D170BD1435002414000A082DE9F0430A
:1005200089B004460D461422002103A858F078FD36
:100530006368227A1421002B03A800926FF0080947
:10054000A7BFC3F30A03154A23F06043144A59F0C6
:1005500041F82B68024603A95B682846984704F1D6
:1005600009070646A9EB0409DFF8388009EB070301
:10057000227A93420ED217F8013B4246142103A877
:1005800059F028F82B68022203A95B68284698478F
:100590000644EBE7304609B0BDE8F08344070A089B
:1005A00054070A08DB020A08831E082B05D91638EF
:1005B0003F288CBF0020012070470120704770B594
:1005C000064608460D461446FFF7EEFF28B12CB14B
:1005D000735D0BB19C4201D1745570BD0020FCE7E6
:1005E000F0B500F5803442F6AA25D7180C1B24116B
:1005F00005FB0404BA420BD012F8016B08682654BC
:1006000008680130B0FBF5F605FB16000860F1E75D
:100610008A681A448A60F0BD2DE9FF411F4600EB4D
:100620000113BDF82860054603F57F4306F10B086A
:10063000D3F8E840E033C4F52A542A34A045DDE974
:100640000CEC06D9DA6800200132DA6004B0BDE8AB
:10065000F08101F6FE718DF804200B2301AA00EB56
:100660000114CDF807E0CDF80BC02146ADF80560C8
:10067000FFF7B6FF284633463A462146FFF7B0FF5C
:100680000120E3E72DE9F0431D4E87B000241D4F04
:10069000B146A35DABB1E5B2284610F067F9003072
:1006A000E35D18BF012083420BD0002B19F8043002
:1006B00038550CBF02460022032B0CD0012B06D16B
:1006C0004AB90134672CE4D107B0BDE8F083022BAE
:1006D000F7D1002AF5D14FF000088DF814508DF8AD
:1006E00016008DF815800FF0F9FF03232A46072125
:1006F000009305ABCDE902080348FFF78DFFE0E763
:10070000EC80042453810424906500242DE9F04FEB
:100710000026ADF5057D2B4F35462B4B5FFA85F94D
:10072000EB5C002B43D0294BEC5CACB907EB060A21
:100730000DF1100BBA5950461FFA84F81269904710
:1007400028B3B4F5007F3AD0BB5950465B6998474F
:100750000BF804000134EDE74FF43974DFF874A0AE
:100760006C4354F80A3004EB0A0B5B6B584698470D
:10077000021E1CDD54F80A30B2F5007F04A9584669
:100780009B6BA8BF4FF4007298471FFA80F8B8F12E
:10079000000F0CD00FF0A2FF0022029004AB0392D6
:1007A0000521CDF800804A460948FFF735FF01359D
:1007B0001836082DB1D10DF5057DBDE8F08FA046A6
:1007C000E8E700BF341D00242C1D00247C80032496
:1007D00090650024F41D00242DE9F04FCFB01C22B9
:1007E0000021002506AC0DF13808DFF8A8A020464E
:1007F000274658F015FC224B6360224BE360224BE6
:100800006361224BE361224B1A7822705A7822727C
:100810009A78DB782274237614F835305FFA85FBFA
:100820002BB300267B681FFA86F9196818460593D2
:100830000969884758B1B6F5807F1FD0059B1A68B3
:1008400018465269904708F806000136EAE7B9F100
:10085000000F0CD00FF042FF002302905A46039382
:100860000221CDF8009043465046FFF7D5FE0135F2
:100870000837042DD0D14FB0BDE8F08FB146E9E77D
:10088000B49E0424EC9F042424A104245CA2042428
:100890008480032490650024194B30B51C6885B012
:1008A000236820461B699847164B1B78DBB1164816
:1008B00003F03AFBB8B1144803F031FB98B14FF4A0
:1008C00000721249104803F047FB051E0BDD0FF0C4
:1008D00005FF0022ADB20D4B06210095CDE90202C5
:1008E0000B48FFF799FE23682046D3F8A0309847BD
:1008F00018B1084B4FF0FF321A6005B030BD00BF91
:1009000054100A08F15F032488800324F065022450
:10091000906500240400002470B500F5803442F690
:10092000AA25049E091B1E44091105FB0101B342BF
:1009300008D0885C013203F8010BB2FBF5F005FB2F
:100940001022F4E770BD2DE9F04F8FB00446CDE9D9
:1009500007239DF8643006938B1E05939DF8143091
:10096000052B00F2B680189B0A2B40F2B28001F6EC
:10097000FE7300EB01184FF6E4724FF0000900EB34
:10098000031358F80250CB460393059B039900EBE1
:10099000031303F580339E6800F58033CB1A42F6CB
:1009A000AA211B114B43049308EB020309930A2E5F
:1009B00051D90B234FF0000A2A4603990093204691
:1009C0000BABCDE90BAACDF833A0FFF7A5FFBDF81F
:1009D0002D700B37BE423ED39DF82C30079A9342C0
:1009E00016D1189BA3EB0903BB4234D3089B2A46BC
:1009F000009720464B44B9440399FFF78DFF3D44CF
:100A000042F6AA23F61BB5FBF3F203FB1255CEE721
:100A1000069B002BF3D0099B42F6AA2204981B6880
:100A200020185B44B3FBF2F102FB1133294610F8A6
:100A300001C001310AF1010A00F803C00133574532
:100A4000B1FBF2FC02FB1C11B3FBF2FC02FB1C33FA
:100A5000EDD8BB44D3E7069BBBB34FF6E47342F635
:100A6000AA22049858F8033004EB000C5B44B3FB53
:100A7000F2F102FB113300218E4210D06719049865
:100A8000013501313F5C0CF803700133B5FBF2F71F
:100A900002FB1755B3FBF2F702FB1733ECE7059B9C
:100AA0005E4404EB03144FF6E47304F58034A6604F
:100AB00058F803301E4442F6AA23B6FBF3FB03FBAF
:100AC0001B664FF6E07348F8036048460FB0BDE878
:100AD000F08F4FF00009F8E78B1E2DE9F04F92469A
:100AE000DAB287B08046052A2ED801F6FE7100EBF7
:100AF000031300264FF00B0B00EB011403F58033BA
:100B0000B14665689F680A2F1FD903ABCDF800B0C6
:100B10002A4621464046CDE90399CDF81390FFF7C8
:100B2000FBFEBDF80D300B339F420ED39DF80C2019
:100B30001D44FF1A524542F6AA22B5FBF2F108BF46
:100B4000F61802FB1155DEE70026304607B0BDE877
:100B5000F08F000030B5D2430144094D81420DD0E1
:100B600010F8013B5A40082342F30004013B2C409B
:100B700013F0FF0384EA5202F6D1EFE7D04330BD11
:100B80002083B8EDF0B587B005460E46034601AAAE
:100B900000F1100C17461868083353F8041C14466B
:100BA000634503C42246F6D1186800221021206054
:100BB00038460592FFF7CEFFE98902463046FFF737
:100BC000C9FF07B0F0BD2DE9F04384464768002017
:100BD0000446251DBD4218D8DCF80060A7EB0508C7
:100BE0003444B4F802E01FFA8EF9C1450CD8B4F8C9
:100BF0000080884505D138B92E4401201660A3F83D
:100C000000E064882C44E4E70020BDE8F08373B57D
:100C100000241E4602AB154601AA019423F8064D96
:100C2000FFF7D1FF18B986F0010002B070BDBDF822
:100C30000230012B09BF019B20461B782B70F4E783
:100C400073B500241E4602AB154601AA019423F891
:100C5000064DFFF7B8FF18B986F0010002B070BD6D
:100C6000BDF80230022B09BF019B20461B882B8058
:100C7000F4E773B500241E4602AB154601AA0194A1
:100C800023F8064DFFF79FFF18B986F0010002B068
:100C900070BDBDF80230042B09BF019B20461B68C4
:100CA0002B60F4E708B5FFF78EFF18B99DF8080030
:100CB00080F0010008BDF0B585B016461F46002241
:100CC0009DF8284004AB039223F8062D03AA009454
:100CD000FFF7E8FF054618B1039921B91CB9347034
:100CE000284605B0F0BDBDF80A4044B1BC4206D26A
:100CF0002246304658F096F800233355F0E7002599
:100D0000EEE773B504461E1D08461D46114663688E
:100D1000A2689B1A9E4215D8ADF80400ADF80650A3
:100D2000236801989850A3680433A36025B1206814
:100D30002A46184458F076F8A36801202B44A36093
:100D400002B070BD0020FBE70B4630B513F8042F4E
:100D500000F10B040271421D13F8015F02F8015B00
:100D60009442F9D1CB7A00F14B04C3720B4613F8CD
:100D70000C2F027300F10D0213F8015F02F8015B02
:100D8000A242F9D191F94B3080F84B3030BD0000D0
:100D90002DE9F0416722002133484FF47A7458F06E
:100DA0003FF94FF480320021304858F039F9602281
:100DB00000212F4858F034F92E4B00222E4803F121
:100DC000C00143F8180C43E9052443E90222183313
:100DD0008B42F6D14FF439770725DFF8CC8000201D
:100DE0003E46264A264940F0B3FD07FB1580254CB8
:100DF0000DF04AF841F23C42234B03FB0523234A02
:100E000015F1FF35E250F0D21C4A0020204940F095
:100E10009FFD204803F096F9184A1F491D4840F0ED
:100E200097FD1E4803F02AF8144A1D491B48BDE8E7
:100E3000F04140F08DBDC5F107057543134EAB0879
:100E40002C44184D5D43104B25F0404503FB0545F0
:100E5000AC4206D0A4F53974266020460DF062F845
:100E6000F6E754F01BFD00BF2865002490650024C0
:100E7000906501244C1D0024D0FF090800000024C7
:100E80008D040408F41D00241CFDFFFF14000A0853
:100E9000F90404089C800424F73F04088880032494
:100EA000313E04088905DC293032002408B54FF4AE
:100EB000E13104480DF02EFE0AF0B6FE024B186038
:100EC00008BD00BF94A30424E88004242DE9F04F5A
:100ED00040F6EC7302F6EB748BB015464FF0000849
:100EE000564EB4FBF3F4A4B2554B012C1B6838BF2B
:100EF00001240393CDE9010140F6EC731FFA88F257
:100F000003FB08FE75456DD9A5EB0E0940F6EB71A4
:100F1000894588BF99460023ADF81E2005AA0DF12A
:100F2000240B0993039B9246ADF8204005934FF0A4
:100F30000103ADF822908DF818309DF808308DF837
:100F40001930019BCDF81A303E4B1F4694460833AA
:100F5000BCE80300DC4543F8080C43F8041C624677
:100F6000F4D1DCF800001860B9F1000F05D0364963
:100F70004A463046714457F055FF31465046FFF718
:100F800001FE0AAA2F4B42F8040DD4460833BCE8F0
:100F90000300944543F8080C43F8041CE246F4D1DE
:100FA000DCF800000121DFF89CC041F2130A186050
:100FB00009F114030020DFF894E000930B461CF8BD
:100FC00001BBBBF1000F10D1504533D800F80E30F3
:100FD0004A1CACEB0709084601230099494514D97E
:100FE0001146ECE74FF0000995E7514522D801334F
:100FF000ACEB07094A1C01F80EB0DBB2FF2BECD1B9
:1010000000F80E3010468A1CE6E741F213018842D0
:1010100010D80E4943546AB10D4808F101080DF08B
:10102000E7FB00210A480DF0A3FB1FFA88F3A34257
:10103000FFF462AF0BB0BDE8F08F00BF283500248D
:1010400040070A0814350024F0650124F85F0324E2
:1010500094A304242DE9F04F97B0894693464FF4AA
:10106000803116AA9A4600235E4D22F84A9D80469A
:1010700008A8BDF884700895CDE90913022348F249
:101080000101DDE92264FFF73CFE0246BAF1000FE0
:1010900008D038B15A46534648F2020108A8FFF773
:1010A00030FE0246209B1B78002B50D04FF480511D
:1010B0002098019259F0BEF8019A62B1B0F5805FB4
:1010C00009D283B2209A48F2030108A8FFF719FE5B
:1010D000002840F0848044B100262378002B7BD088
:1010E000204658F08DFF002E63D14FF4803200234C
:1010F00048F201010BA80B950EACCDE90C2316AA02
:10110000042322F8463D0223FFF7FBFD364B22461F
:1011100003F118061868083353F8041C2546B34237
:1011200003C52C46F6D1186899889B7928600BA8CE
:10113000A98048F20701AB711E23FFF7E2FD0D9A6B
:1011400003214046FFF7C2FE17B0BDE8F08F77B12C
:10115000002AC0D016AA022348F2040108A822F8E7
:10116000487DFFF7CEFD0028B5D01EB90DE0EEB1E9
:10117000002AB0D016AA042348F2050108A842F8B4
:10118000446DFFF7BEFD0028A5D00FF0A7FA00239D
:10119000069006AA079348F20601082308A8FFF75D
:1011A000B0FD0646002896D07CB196E7002AECD127
:1011B00091E7A028224648F2070128BFA02083B269
:1011C00008A8FFF79EFD00288FD0B9F1000F0A9AFA
:1011D0000CBF02210321B4E7002EF6D185E7002FD2
:1011E000B8D1C2E7F06501243B020A081FB500230D
:1011F0000392054A00921A46CDE90133FFF72AFF10
:1012000005B05DF804FB00BF38060A082DE9F0417F
:101210001A4F80463A78012A07D10025184A03213F
:10122000FFF7E4FF2846BDE8F081164E357805BB90
:10123000154B1C68236820469B68984728B9134AB9
:1012400004214046FFF7D2FFECE723680221204645
:10125000D3F89830984723680D492046D3F8B43026
:10126000984723680B492046D3F8B83098470123A4
:101270003370022301253B70D4E700BFBC14002467
:10128000E8050A081470032454100A0816060A0810
:1012900089030408A10304082DE9F04FD5B0002408
:1012A000894601230DF12E080CAD15210646424654
:1012B000A8F800402C808DF82D400D94ADF83240F8
:1012C000FFF7BEFC38B9AE4A01214846FFF78EFF52
:1012D00055B0BDE8F08F01232A4616213046FFF7AE
:1012E000AFFC0028EFD023460DF12D021821304627
:1012F000FFF78DFC0028E6D000940DF132030DAA13
:1013000017213046FFF7CEFC06900028DBD0BDF851
:1013100032307E2BD7D89B4E27460AF085FC7F22A1
:101320003060214634A857F07BFE0594CDE907854F
:10133000E1B2306809F0EBFB0546B0B190F86B30D4
:10134000092B12D0079B1A88B0F866309A420CD14C
:10135000089B1A88B0F868309A4206D10D9B83B971
:10136000059B2F460133DBB205930134052CDFD1F9
:10137000059B012B02D1002F40F08F80824A05216E
:10138000A3E70DF13C0A4FF01208002142465046F7
:1013900057F046FE306818B900238DF8D030E4E7E6
:1013A0004FF4807300222946CDE90032CDE902A82E
:1013B0000623802209F069FF83460028ECD19AF8C1
:1013C0001030002BE8D00DF138080423C8F80000D5
:1013D000294601908022CDE902834FF440730093A7
:1013E0000623306809F051FF014610B18DF8D0B0E6
:1013F000BBE798F8033098F802B00DF150084BEABB
:10140000032B7E2340461A46099357F009FE099B99
:10141000CDF804B080222946CDE902839AF8103035
:1014200043F4407300930623306809F02EFF002830
:10143000B2D198F800000128AED9032200238242DD
:1014400012D218F8021001330029A5D118F8131090
:101450000232A1F1200CBCF15E0F9DD80DF1D00C31
:101460009C440CF8011CEAE754AA00211A4402F833
:10147000801C002B3FF479AF34A858F0C1FDBDF8B3
:101480003230024698427FF470AF0D9934A857F07D
:1014900097FC00283FF464AF67E79DF82D3039468C
:1014A0003A4A8DF8403000230F920FAA8DF8413050
:1014B000344B186809F065FF002852D19DF841406F
:1014C000002C4ED10D9E324B324D334A1F609DF899
:1014D0002D10002E08BF2A46BDF830002F4B304D8E
:1014E000304EDFF8E48019700090BDF82E302E48A1
:1014F000CDE901122D4A4FF4805158F06BF8224685
:101500009DF82D10384609F048FAD0B190F84C20DB
:10151000012A16D052BB264B026D7821CDE901324B
:1015200090F85E30424614A80093069B002B14BF2F
:101530002B46334658F04EF814A8FEF7C7FF002399
:1015400006938CB11B48FEF7C1FF0023164A48469C
:101550000193194600921A46CDE90233FFF77AFD4E
:10156000B6E6154A0221B0E60124C8E7022A05D0F2
:10157000124B1349032A18BF0B46CDE7114BCBE79B
:1015800067060A08E88004247C060A086C070A0833
:10159000C014002440060A083B060A08F05F032432
:1015A00044600A0865060A087C700324CE060A080F
:1015B0004B060A0883050A08A0060A085B060A0803
:1015C00053060A0846060A0812070A08F0B500245E
:1015D000C7B006460D46FE22214606A88DF81340E8
:1015E000ADF81440ADF8164057F01AFD494B1B7882
:1015F0002BB9494A01212846FFF7F8FD71E0012384
:101600000DF1130223213046FFF701FB0028F0D033
:101610009DF81330012BECD8012305AA2121304677
:10162000FFF70EFB0028E4D0BDF81430002BE0D00B
:1016300023460DF1160236213046FFF701FB002844
:10164000D7D0012306AA202130460093FE23FFF7BE
:1016500032FB0028CDD0314B1E46E15CE2B20029BE
:1016600041D00134082CF8D12D4A0321C3E74FF4AF
:1016700039732C49634358185B58BDF81610DB6961
:1016800011B9A2F5804291B298473AE00123FE20B9
:10169000FD2206A933559DF81360234B1E55234B9D
:1016A00000FB043058F094FDBDF81420204B4FF49B
:1016B000805123F814201F4A1F4B002E08BF1346E9
:1016C0001E4E1F4A00933046234657F083FF0023E7
:1016D00028461A461946CDE90233CDE90063FFF7E3
:1016E000B9FC47B0F0BD9DF81330002BBFD11823D3
:1016F000144806A96343C2581844176ABDF8142059
:10170000B847003018BF01200028BFD10E4A04217D
:1017100071E700BF0C70032462020A082C1D00242C
:10172000BC020A08F41D00247C8003242B1500242D
:101730001C1D00245A020A085E020A087C70032459
:101740009B020A08341D00247F020A082DE9F04795
:10175000944F8AB000230446D7F800800D468DF8D8
:1017600016308DF81730ADF81A30CDE90833B8F1DE
:10177000000F07D18C4A01212846FFF737FD0AB038
:10178000BDE8F08701230DF116021A21FFF73FFA99
:101790000028EFD09DF81630022BEBD801230DF175
:1017A000170219212046FFF732FA0028E2D0012360
:1017B00008AA06212046FFF75CFA0028DAD0089B29
:1017C000B3F57A4FD6D89DF81620022A02D1B3F588
:1017D000805FCFD800260DF11A0309AA05210096D3
:1017E0002046FFF75FFA0028C4D09DF816309DF818
:1017F0001790002B6ED18DF818308DF81930ADF898
:101800001C30ADF81E30B9F1000F53D1012306AAE8
:101810001B212046FFF7FBF900284BD001230DF1D7
:1018200019021C212046FFF7F2F9002842D00123BB
:1018300007AA1D212046FFF703FA00283AD001230A
:101840000DF11E021E212046FFF7FAF990B39DF814
:101850001820564B1606BDF81C101868BDF81E401F
:101860009DF8193028D5089E009141460396504EA8
:10187000CDE9014609F009FD002840F09080BDF84F
:10188000204000269DF817204A4F4FF480519DF8C4
:101890001630009238460196474A57F09BFE234681
:1018A000434A31462846CDE90266CDE90076FFF786
:1018B000D1FB64E7414A5EE7BDF81A6000914146FA
:1018C0000396099ECDE9014609F033FD002866D153
:1018D0000446D6E7012BDFF8F4A014BF4FF003084D
:1018E0004FF0020832469AF80010386809F055F8AF
:1018F000044638B190F84C30434503D190F85E303F
:101900004B4537D016B12E4A022135E70126E9E7CB
:101910000122CDE90032264B224609F099FB3BE03B
:10192000646E089824EAE4748442A8BF0446A4B212
:10193000002CA6D09DF817700EF0D0FE0094042164
:101940001B4B3A46CDE902061E48FEF765FE98E7B6
:10195000012A099BBDF81A6005D1CDE90062224633
:1019600009F049FBB2E70122CDE90062224609F005
:1019700060FBABE70D4B9DF8162018689DF91730FA
:101980003968002BE4DA012A089BC1D1CDE9003285
:10199000074B224609F03EFB06460028C0D00A4A03
:1019A0000421E9E6C0140024C2000A08E8800424E7
:1019B000F06502247C7003244E010A08ED000A0839
:1019C00014010A08906500243A010A08F05F032414
:1019D0002DE9F041344BADF5EA6D01250224029367
:1019E0004FF48051314B324E324FDFF8F480019387
:1019F0000095314B314A324857F0ECFDA0B2FEF76A
:101A0000D3FD68B1002D14BF33463B46424610213A
:101A100000940EA8002557F0DDFD0EA8FEF756FD38
:101A20000134562CEAD1274B274C1B78274D2848E8
:101A3000002B18BF254602F03BFB18B1244802F0EA
:101A400057FB00B9214C234B12A81F4A19681F4BA2
:101A5000002908BF1A46204BD96D0D91D96C0C9105
:101A6000D96B0B91D96A0A91D9690991D968089102
:101A7000996D0791996C0691996B0591996A0491FA
:101A8000996903914FF4E1619B680094CDE90123CA
:101A90002B46124A57F09EFD12A8FEF717FD0DF5D2
:101AA000EA6DBDE8F08100BF90030A08D1030A087F
:101AB00044600A0865060A08E0020A08E6020A0805
:101AC0007C7003240C7003243B060A0840060A08B5
:101AD0009C800424C014002490650124FC030A089F
:101AE000F4030A082DE9F04FADF22C5D40F6B8334F
:101AF000044625220F460DA80021069357F090FAC0
:101B0000012306AA32212046FFF7B3F840B9804AE4
:101B100001213846FFF76AFB0DF22C5DBDE8F08F1E
:101B2000069B47F2CC42643B9342F0D80025252324
:101B30000DAA204600951946FFF7BDF80028E6D00B
:101B40003846FFF763FB06460028E5D0714A9DF84A
:101B5000341014689046236889B10DA9AAA8D3F857
:101B600064900EF038FC2A46AAA92046C8470446CD
:101B7000AAA80EF0E5FB3CB9674A0421C9E7204654
:101B8000DB6D98470446F6E7644D002464482C70EA
:101B9000FEF79CFC0EF090FD069BDFF894B100EB85
:101BA000030905950EF088FDA9EB0000D8F8005058
:101BB000002840F388800F2C2B6800F2848017A83F
:101BC0005B6F2946984717A802F072FA38B92B685C
:101BD00028461B69984705200EF08CFD20E017A9C8
:101BE00007A802F04BFA17A802F002FBE0B117A910
:101BF0000AA802F0CBFA0DF1A80A80220021504673
:101C000057F00EFA4FF4C07200214AA857F008FAB4
:101C1000079870B90AA80EF093FB07A80EF090FB86
:101C200017A802F0E8F9BDE759460AA80EF0D3FB61
:101C3000E1E780225146FEF7E7FB0028EAD00A9848
:101C40000028E7D04FF4C0724AA9FEF7DDFB002858
:101C5000E0D0344B17A8002E18BF5B461E4602F09A
:101C6000E9F94AAB02904FF420712F4AAAA8CDE9B6
:101C700000A3334657F0AEFC4FF480510646274888
:101C800058F0D8FAB6F5207F14D203300644B6F5E2
:101C9000805F0FD2AAA8FEF719FC0AA801340EF043
:101CA0004FFB07A80EF04CFB17A8E4B2002602F089
:101CB000A2F977E70AA80EF043FB07A80EF040FB55
:101CC00017A802F098F92B682846DB6E984717484A
:101CD000FEF7FCFB0023059A384601931946009253
:101CE0001A46CDE90233FFF7B5F915E7AAA80EF0B9
:101CF00027FB53F0D3FD0AA80EF022FB07A80EF035
:101D00001FFB17A802F077F9F3E7F7E7F9E700BF41
:101D100086050A0854100A089F050A087C700324E7
:101D2000B6050A0865060A08C3050A0883050A08F5
:101D300044600A082DE9F04FADF5057D04460E46D6
:101D40002522002109A857F06BF9604802F0B0F98C
:101D500040B95F4A01213046FFF748FA0DF5057D8D
:101D6000BDE8F08F594802F0C3F90028F1D00023F4
:101D700009AA2046009325231946FEF79CFF002858
:101D8000E7D09DF8243043B109A9504802F0B8FAD1
:101D9000054630B94F4A0421DDE74C4802F0A0FA6D
:101DA000F6E74D4F0024A846DFF82091DFF83CA16C
:101DB000DFF83CB149483C70FEF788FB0597484680
:101DC00002F0ACFA84422DDA13AF2246494606A847
:101DD00002F0B6FAE0220021384657F021F906A8B1
:101DE00002F0DEFB20B906A802F09CFB0134E6E716
:101DF000E0223946FEF708FB0028F4D00097B8F13E
:101E0000000F14BF53465B46354AE4214BA857F0F8
:101E1000E1FB4BA8FEF75AFB06A84FF0000802F0C2
:101E200081FBE3E70024DFF8A480DFF8C090DFF84F
:101E3000C0A02C48FEF74AFB404602F0DDFA84427F
:101E40002BDA13AF2246414606A802F0F5FAE0224B
:101E50000021384657F0E4F806A802F037F820B918
:101E600006A801F0E5FF0134E6E7E0223946FEF777
:101E7000CBFA0028F4D00097002D14BF4B465346F0
:101E8000174AE4214BA857F0A5FB4BA8FEF71EFB11
:101E900006A8002501F0CCFFE5E71348FEF716FB86
:101EA0000023059A30460193194600921A46CDE95F
:101EB0000233FFF7CFF851E706A802F033FB53F0E7
:101EC000EDFC06A801F0B4FFF9E700BF9C800424F4
:101ED00060000A087A000A087C70032499000A0846
:101EE000A7000A08AC000A0883050A0844600A082B
:101EF00065060A087FB5044615480E46154602F0E9
:101F0000D7F828B9204601F0B9FF204604B070BDCB
:101F10000F4802F0EDF80028F4D001A832460C4931
:101F200002F062FA01A802F049FB40B12A4601A979
:101F3000204602F077FB01A802F0F4FAE5E720461C
:101F400001F09CFFF7E701A802F0ECFA53F0A6FCC1
:101F50009C8004242DE9F0419EB005460C46904635
:101F600014AE252200210AA857F05AF82522002194
:101F7000304657F055F8012725230AAA009728462E
:101F80001946FEF798FE38B93B4A01212046FFF773
:101F90002DF91EB0BDE8F081009725233246262199
:101FA0002846FEF788FE0028EED007A832460AA988
:101FB000FFF7A0FF07A801F0B7FF28B92F4A0521B6
:101FC0002046FFF713F94EE0B8F1000F3FD0002391
:101FD0000DF11502272128468DF815300693ADF82E
:101FE00016300123FEF713FE70B39DF81530012B58
:101FF0002AD8012306AA0521284600930DF11603CD
:10200000FEF750FE00B39DF8153007A8BDF8162066
:10201000B3FA83F306995B0901F070FFA0B10025C4
:10202000174F0AAB174A4FF480510096384657F0C5
:10203000D1FA00212B46144A2046CDE90211CDE900
:102040000071FFF707F80EE0104A0421B8E74FF4DB
:102050007A420D4907A801F07FFF002801DA0C4AF7
:10206000F3E785B2DCE707A801F0E2FE91E707A8F5
:1020700001F0DEFE53F012FC81010A08A5010A08F6
:102080007C7003240A020A08F0650224CB010A08C6
:10209000EB010A082DE9F04100248EB0214B5FFAD4
:1020A00084F8E35C002B38D01F4E204B204F002CCF
:1020B00018BF1E46304608F00DFB70B3314609A824
:1020C00008F048FB00239DF82C500DF12D01CDF8B0
:1020D0001A300DF11A00CDF81E300A9B8DF81950F8
:1020E000002BB4BF23F06042C3F30A02DB0F05925A
:1020F0002A468DF81830063556F094FE0EF0EEFAAA
:1021000000230290424603930321009505AB384615
:10211000FEF782FACEE70124C0E7002CFBD00EB018
:10212000BDE8F081F25F03242C8904241C8D042473
:10213000906500242DE9F04FDFF8A882DBB09E48BF
:102140000CF0CCFB002801F029849B480CF038FCF3
:10215000041EC1F2238499490A6841F01184002ABF
:10216000EDD02346DFF858C2A64622E0F018904290
:1021700026D8771E1B1B204654FA87F74344B842E3
:102180000BD0B0F5805F1BD20130013500EB0C04A1
:1021900013F8009004F8019CF1E7FF2E07D0954258
:1021A00005D2B0F5805F0BD200F80CE00130044698
:1021B0002B46934207D213F808605D1C002ED5D140
:1021C00000230B60BBE70023132C0B60B7D97C4BBB
:1021D00015AA03F110061868083353F8041C1546B5
:1021E000B34203C52A46F6D118680422754928600F
:1021F00015A856F0E5FDD8B99DF85830012B17D138
:102200009DF85930012B13D1BDF8607087B1BDF82E
:102210005E50AF420CD9BDF86290A4F11400814524
:1022200006D1694915A8FEF7ADFC199B984206D066
:10223000664A0121DDF85A00FEF7D8FF83E3DDF896
:102240005A60634C25B9FEF7BBF8624B26601F80CD
:102250002468B44211D15F4B1B88BB420DD1DFF81B
:1022600088A1BAF80030AB4207D1DFF880B1DBF8C3
:102270000030C3F58032914503D9574A01213046D9
:10228000DAE7564E4A465049F018059356F0CAFD13
:10229000059B09EB03026B1C9BB2CBF800209F420D
:1022A000AAF800307FF44BAF0023CDE90862ADF807
:1022B0001C309A4217D9D11A03295BD9F51800218D
:1022C0008B4209D970182F88B0F800C0BC4551D096
:1022D000408804300144F3E704336988D01A81420E
:1022E00048D80B44E5E745D1012307AA08A81946B9
:1022F000FEF7A6FC814600283CD0BDF81C5000210A
:10230000DFF8ECC040F21D6EAF1EDFF8E8A0DDE99B
:10231000083005930E1D864200F2C580059BA0EB98
:10232000060B5A185188594524D81288012A40D0E2
:10233000302F1FD8DFE807F0191E1E1E1E1E1E1E9E
:1023400021251E2A1E1E301E3560676B1E6D6F71A3
:1023500078801E1E1E1E1E1E1E1E1E1E1E1E848910
:102360009093989FA3A5ABADB000022A21D02E3A3E
:10237000032A1ED91A4A012196E2042A19D00E3ADC
:10238000F6E7032A15D0122AF4D112E0153A032AEF
:102390008CBF0022012233E01F2A0AD0343A012ADE
:1023A000E7E7203A92B2162AE4D82AFA02F2D307D3
:1023B000E0D53144AEE700BF94A30424F45F0324C6
:1023C0001445002440070A0828450024E7070A08A6
:1023D000948004249A800424FC070A08948003242F
:1023E00021080A081455002498800424107003243E
:1023F000280018000B004000222A14BF00220122EE
:10240000002AD6D1B6E7322AD3D0252ABCE7242A1F
:10241000F3E7332AF1E7252AEFE7A2F1250BBBF119
:10242000010FC6D9372AAFE7283A92B2102AA1D8AD
:10243000A94B23FA02F2BAE722F00402282AA3E702
:10244000032AB6D0053A062A93E7033A92B20A2A3B
:1024500090D82EFA02F2AAE7043A012A98E7142A41
:1024600088D82CFA02F2A2E7A2F1190BBBF1050FF2
:102470009FD9053A93E7222A9BD0052A84E7253A7B
:10248000EBE7A2F1250BBBF1020FF6D891E7282A62
:10249000B3E722F00202D1E722F0020BBBF1280FD2
:1024A00087D02D2A70E781427FF464AF6A1E312AFB
:1024B00001F26282DFE812F032003B00600A600A3B
:1024C000600A600A600A600A600AFB00A101040257
:1024D00043024B025B0263020A0335033A037103B2
:1024E00076034C048504C904CE044D050606600A33
:1024F000600A600A600A600A600A600A600A600A8C
:10250000600A600A600A43062E0738087E082D0913
:1025100033099F09A609A809A809A809FFF758FACD
:1025200000236E4A0193CDE90233009204E20023B6
:1025300001254FF4805202218DF8283008A88DF82B
:102540003430ADF868200AAA2D932B468DF8405000
:10255000FEF75DFB08B9624A0DE79DF82830023BA3
:10256000052BF8D82B460DAA312108A8FEF74FFB02
:102570000028F0D02B461AAA2E2108A8FEF760FBEF
:102580000028E8D0BDF86830013B9BB2B3F57A4F24
:10259000E1D22B4610AA2F2108A8FEF738FB00280D
:1025A000D9D09DF84030012BD5D82B462DAA30210B
:1025B00008A8FEF75EFB0028CDD04A4B2D9A9A4220
:1025C000C9D80EF079F82D9D474E0544474FDFF8E6
:1025D00034919DF8342030469DF82810FEF77CFA9F
:1025E00000283BD09DF840309DF8342000339DF802
:1025F00028103D4818BF01230193BDF868300093AF
:102600003B4BFEF7A0F99DF840500646394A3A4840
:102610009DF83410B6B2002D18BF0246324D9DF819
:1026200028302E48CDE90012344A4FF4805156F03C
:10263000D1FF9DF834209DF828102846FEF74CFA6B
:102640009DF828304FF6FF72023B9042D9B228BF66
:102650001046052980B219D900231CE00EF02CF891
:10266000281A0028BEDDFEF7B7F8FFF713FDFEF7C6
:1026700009F83B780BB1FEF749F899F800300BB137
:10268000FEF70AF901200EF035F8A2E705EB031575
:1026900005F58035EB6800210190CDE902310F4B43
:1026A00000933346124A2046FEF7D4FC4BE1002348
:1026B0000822012504218DF8283008A88DF834203F
:1026C0000AAA8DF840302D932B468DF86850FEF7FE
:1026D0009EFAC8B90A4A4EE60B0001007C7003243A
:1026E00041080A08E0930400906500240C7003245C
:1026F000F065022440060A083B060A0859080A0841
:10270000BC080A08147003249DF82830032BE1D874
:102710002B462DAA0E2108A8FEF7ABFA0028D9D027
:102720002D9BA54A323B9342D4D82B460DAA0F21AC
:1027300008A8FEF76CFA0028CCD09DF83430073B8F
:10274000012BC7D82B4610AA102108A8FEF75FFA64
:102750000028BFD09DF84030022BBBD82B461AAAC8
:10276000112108A8FEF753FA0028B3D09DF868207D
:10277000531E012BAED89DF83430072B41F03C811D
:102780009DF84030002B41F01C8140F2133140F2A3
:102790003333022A14BF0A461A4601F01CB99DF8C9
:1027A0004030002B41F0358140F2334140F2134379
:1027B00001F00DB940F2314140F2114301F007B987
:1027C0007E480BF02BFF7E4A01219DF828307D4D7D
:1027D000D1542D9A00927C4A4FF48051284656F0ED
:1027E000F9FE0023CDE90233CDE90053A4E0774898
:1027F000E7E77748E5E77748E3E700231AAA0321EC
:1028000008A88DF868302D930123FEF700FA08B967
:10281000714AB0E59DF86830012BF9D801232DAA43
:10282000122108A8FEF725FA0028F1D02D9B6B4A4B
:10283000934208D06A4A934205D06A4A934202D032
:10284000694A9342E4D19DF86830012B11D09DF87C
:1028500068202D99624BB2B1994208D0614B9942E0
:1028600005D05E4B604A99420CBF194611465F483D
:1028700015E0042208215E48FDF7A1FE0028E6D1FC
:102880005C4A032110E0994208D0564B994205D08A
:10289000524B554A99420CBF19461146564807F00B
:1028A000E3FE18B9554A04212046C5E4544A0121E3
:1028B0009DF86830434DD1542D9A0092514A8BE7D0
:1028C000514F00253F4E09F0AFF9DFF868A1DFF85E
:1028D00068B138604D483570FDF7F8FDE9B23868E9
:1028E00008F015F9E8B190F86B20092A19D090F892
:1028F0007120B421464B0392B0F86820B9F1000F63
:1029000018BF53464FF000090292B0F866200DEB55
:102910000100CDE900525A4656F05CFE2DA8FDF7A5
:10292000D5FD0135052DD9D13A48FDF7CFFD00235E
:10293000CDE90233CDE900631A461946B3E62146D4
:1029400008A8FEF7A9FCFDF73BFDFFF7F8BB324BEB
:10295000196851B12C4B186808F053F9034620B997
:1029600001902E4ACDE90200DFE52D4A9BE70023C6
:10297000294A136001932B4ACDE90233D5E52A4D4C
:102980002B78022B01D1294A7BE7212200211AA8AA
:10299000012656F045FB402200212DA856F040FBB1
:1029A000009621231AAA342108A8FEF784F90028EA
:1029B00044D11F4ADFE400BFCE083D00B49E04248A
:1029C000848003247C700324D7080A08EC9F042425
:1029D00024A104245CA20424F2080A0848E80100A7
:1029E00090D0030020A1070040420F001C8D04245A
:1029F0002865002414090A082C89042434090A08CB
:102A0000F25F032456090A08E8800424B6050A0880
:102A100065060A0883050A08C0140024E4090A08A8
:102A2000F3090A080B0A0A08BC140024E8050A087E
:102A30001D0A0A0844600A08A7090A0800964023EC
:102A40002DAA352108A8FEF736F90028B1D00923B0
:102A50002DAA1AA9AB482E700AF022FB21220021D0
:102A600007461AA856F0DCFA402200212DA856F09D
:102A7000D7FADFF890920DF01FFE00F5EA463036E7
:102A800048460AF0CBF903280FD1032F9E4F04D0FC
:102A90009C480AF0C3F9032810D101239B4A3B70DC
:102AA0000023CDE9023301933FE50DF005FE301A16
:102AB0000028EADD32200DF01DFEE1E700269148F6
:102AC0003E700AF03CF92E70914AECE60025914FD9
:102AD000DFF850922E46DFF850A2AB4617F8013FC0
:102AE0006BB156F8093009EB06009B6A984755F818
:102AF0000A300AEB05005B6A984787F800B0183681
:102B000005F53975C02EE9D17E480AF018F9002381
:102B10007D4A1370804A13700193804ACDE90233D5
:102B200003E5214608A8FEF751FD0CE700255AAA47
:102B30000123222102F8B45D08A8FEF768F848B323
:102B40009DF8B430072B25D8754EF25C12B31822CD
:102B5000744903EB4300534301EBC000CB589B6A1D
:102B600098479DF8B4004FF4397343436E481A58A0
:102B70001844526A90479DF8B4306C4A4FF4805123
:102B8000F5546B4E304656F025FDCDE90255CDE9A2
:102B9000006514E1674AFFF7EEBB214608A8FEF77F
:102BA000A1FFD0E601251222002110A856F038FA24
:102BB0000095122310AA242108A8FEF77CF810B96A
:102BC0005D4AFFF7D8BB2046FEF720FB00283FF404
:102BD000BAAE5A4B10A92DA81D682B689E6E0DF039
:102BE000FAFB00222DA92846B04706462DA80DF075
:102BF000A7FB0EB9524A56E60DF05EFD00F51C56D5
:102C00001AA8103601F09EFA0DF056FD301A2B6806
:102C100000282CDD5B6F29462DA898472DA801F0D0
:102C200047FA0746002830D02DA90DA801F026FA52
:102C300006E02DA801F0DFF91AA801F0DCF95BE04D
:102C400010A90AA80DF0C7FB0AA90DA80DF090FC69
:102C500007460AA80DF074FB0DA80DF071FBA7B193
:102C60002DA91AA8FEF770F82DA801F0C4F92B6859
:102C70002846DB6E984713E00AA80DF061FB002F91
:102C8000D7D00DA80DF05CFBD3E72B6828461B6955
:102C9000984705200DF02EFD2DA801F0ACF9B3E703
:102CA0001AA801F005FA28B9264A04212046FEF7A1
:102CB0009DFA1AE01AA801F005FB0028F4D01C4D7B
:102CC0001AA92148FEF740F810AB204A4FF4805172
:102CD000284656F07FFC002320461A461946CDE9C7
:102CE0000233CDE90053FEF7B5F91AA801F083F9D4
:102CF00029E62DA80DF024FB52F0D0FD99E7BEE7A0
:102D000097E799E7249704240C700324390A0A08EA
:102D1000680A0A082B1D0024BC140024800A0A0833
:102D20002C1D0024341D0024F41D0024940A0A08DC
:102D30007C700324A50A0A08BA0A0A0854100A0873
:102D4000CE0A0A08ED0A0A089C800424060B0A0829
:102D5000A74801F0ADF930B1A54801F0C9F910B1AB
:102D6000A34801F059F92DA8002501F0EBF92DA990
:102D70009F48FDF7E9FF2DA801F03DF92DA801F0CE
:102D80007DF89C4B2E9A2DA85A602F9A9A6001F0DC
:102D90004FF8994B994A1D704FF0FF331360984AD2
:102DA0001360984B18680368DB689847964B1D7052
:102DB000964B1D70964B01950093CDE902552B461D
:102DC000BAE5002520462D95ADF86850FEF71EFAAD
:102DD00000283FF4B8AD00951AAB2DAA332108A8FE
:102DE000FDF760FF00283FF4AEAD4FF0FF3383499D
:102DF0000B602D9BB3B1BDF86820062A02D0854A2E
:102E0000FFF7B9BA5A1E0A26053312F8010FA0F1CE
:102E10003007092FF3D806FB05059342A5F13005CD
:102E2000F3D10D60774B022118680368D3F898300E
:102E30009847794B2D99794A002918BF1A460023E3
:102E4000CDE902330193FFF770BB214608A8FEF7D6
:102E500071FF78E5252200211AA8012556F0E0F837
:102E6000252200212DA856F0DBF8252300951AAA6B
:102E7000194608A88DF82850FDF71DFF10B9684ABB
:102E8000FFF779BA009525232DAA262108A8FDF77A
:102E900012FF0028F3D02B460AAA372108A8FDF715
:102EA000B6FE0028EBD09DF82830012BE7D80DA8FE
:102EB0002DAA1AA9FFF71EF80DA801F035F828B9B8
:102EC000584A04212046FEF791F93AE09DF828304F
:102ED0000DA813B101F078F801E001F086F80028A0
:102EE000EED09DF82830434D434EF3B10E9B6B60FE
:102EF0000F9BAB6001239DF8281033704A4D4B4A5D
:102F00004B4B2846002918BF13464A4A4FF48051BC
:102F100056F060FB002320461A461946CDE90233DD
:102F2000CDE90053FEF796F80BE010A800F0A6FFDD
:102F3000119B10A86B60129BAB6000F079FF00231F
:102F4000D9E70DA800F074FFFDE40DA800F070FFB4
:102F5000D2E6002501232DAA282108A8ADF8B450F7
:102F60008DF834508DF840508DF86850FDF768FEAC
:102F700010B9314AFFF7FFB901230DAA292108A88A
:102F8000FDF745FE0028F4D09DF83430012BF0D831
:102F9000012310AA2B2108A8FDF739FE0028E8D04C
:102FA0009DF84030022BE4D82B461AAA382108A8F5
:102FB000FDF72DFE0028DCD09DF86830012BD8D815
:102FC000BDF8B4502846FDF7EFFA0028D1D09DF89F
:102FD0003430012B03D19DF84030002BC9D10122A0
:102FE00029461648FDF7EBFA60BB154A49E400BFD5
:102FF0009C80042488800324F15F032404000024BF
:103000000800002454100A0814700324BC1400247F
:10301000280B0A08540B0A0878070A08B1070A089F
:10302000730B0A08940B0A087C7003243B060A08F9
:1030300040060A08B60B0A08C80B0A0828650024CF
:10304000F20B0A089DF834309DF8B4006BBB9DF874
:103050004030012B27D0022B14BF002103210DF09B
:103060008DFBBDF8B4000122B64BB74D1A549DF844
:1030700034309A1A53425341B44A1354C0B20DF03B
:1030800075FC0030B24A18BF0120BDF8B430B14918
:10309000D0549DF83400B04A002818BF0A46009268
:1030A000AE4AFFF799BB0221D9E701210DF066FB7B
:1030B0009DF868109DF8B400003118BF01210DF093
:1030C000E1FBCEE7002501232DAA282108A8ADF8B1
:1030D000B4508DF86850FDF7B3FD10B9A04AFFF762
:1030E0004AB901231AAA2C2108A8FDF790FD00284F
:1030F000F4D09DF86870032FF0D8BDF8B460304666
:10310000FDF752FA0028E9D08E4B9B5D002BE5D0ED
:10311000944BF0B29F550DF029FC0030BDF8B4304F
:103120008B4A4FF4805118BF0120874ED05430464F
:103130009DF8682000928C4A56F04CFA25E5002351
:10314000FF22032108A88DF818308DF819308DF86A
:103150001A308DF81B2006AAADF81E300D9310937F
:103160001A93ADF828300123FDF751FD10B97F4ABD
:10317000FFF701B99DF81830012BF8D801230DF1A4
:103180001E020A2108A8FDF75BFD0028EFD00123ED
:103190000DAA072108A8FDF76CFD0028E7D00D9BBC
:1031A000734AA3F57A739342E1D801230DF1190212
:1031B000082108A8FDF72BFD0028D8D09DF819306C
:1031C000032BD4D801230DF11A02092108A8FDF719
:1031D0001EFD0028CBD09DF81A30012BC7D8012343
:1031E0000DF11B020B2108A8FDF711FD0028BED030
:1031F000012310AA062108A8FDF73BFD0028B6D040
:1032000000250AAB1AAA0521009508A8FDF74AFD7A
:103210000028ACD0BDF82870109B9F4238BF1F46D5
:10322000B7F57A4F51D89DF81830BDF81E10AB4253
:10323000504814BF03220222FDF7C1F9002844D0F0
:103240009DF818204C4B4D4EAA4208BF1E463368CD
:103250003046DB6A984701219DF81E000DF08EFA7A
:1032600001219DF81E000DF00DFB33680D9A3046CC
:10327000D3F81C909DF81A309DF81910B3FA83F317
:103280002D928DF8B8105B098DF8BA508DF8B930D1
:103290002DAB93E80600C847DFF8F09029469DF86B
:1032A0001E000DF0EFFABD4212D0BDF828203046C6
:1032B000336895429B6836BF1A9A9DF81B10515D82
:1032C000984709F805000135EDE72D4AFFF7D9BA0F
:1032D00001219DF81E000DF0D5FA336830461A4ED4
:1032E0001B6A98479DF819209DF818304FF48051BB
:1032F000029230460D9A0192BDF81E200092214A9A
:1033000056F068F90021ABB2CDE90211CDE90061B8
:10331000FFF7C8B9002301250DF11B0203218DF829
:103320001B3008A88DF81E3010931A932D93ADF81A
:1033300034302B468DF82850FDF769FC40BB124A0B
:10334000FFF719B8157003247C700324C4140024FB
:1033500053810424DA070A08E1070A080C0C0A085A
:10336000260C0A08EC800424500C0A08680C0A0891
:1033700098ECFA0228650024F49604240C9704249F
:103380007D0C0A08A80C0A08E00C0A08F065022463
:103390009DF81B30012BD2D82B460DF11E020C21BB
:1033A00008A8FDF734FC0028C9D09DF81E30083B62
:1033B0006F2BC4D82B4610AA072108A8FDF759FC8B
:1033C0000028BCD0109B854A934202D0844A934285
:1033D000B5D101231AAA062108A8FDF74AFC002846
:1033E000ADD01A9B202BAAD801230AAA0D2108A828
:1033F000FDF70DFC0028A2D09DF82830012B9ED8A7
:1034000000232DAA052108A800930DABFDF74AFC67
:103410000646002893D0BDF83430202B8FD89DF875
:103420001B30012B2CD16F4B1A7A0AB1052A2DD1F2
:103430005A7A0AB1052A29D105226B4D1A725A729D
:103440002B682846DB6998472B68109928469B6AA9
:103450009847BDF8343053B32B6828469DF81E10AA
:10346000DB6A98472B68BDF834202846DB6C2D9921
:103470009847BDF8343098420BD05C4AFFF713BA36
:10348000594D5B4A002B08BF1546D9E7594AFFF74B
:10349000F8B92B681A9A1B6B22B19DF82860B6FA0E
:1034A00086F676093146284698470028E5D11A9ACB
:1034B0009DF81E10002A35D02B682846DFF868A139
:1034C0009E6B0123B04700262B68B7B228461B69C4
:1034D000B946984718B11A9B0136BB4218D81A9BB7
:1034E0004B451CD1109A4FF48051434D01929DF8E9
:1034F0001E2028469DF81B300092404A56F06AF87C
:1035000000213B46CDE90211CDE90051FFF7CAB8D1
:103510002B6828465B6998470AF80700D4E7384AC1
:10352000FFF7C1B91746DDE7002310AA042108A858
:103530008DF840302D93ADF868300123FDF767FB1F
:1035400010B9304AFEF717BF9DF84030032BF8D86A
:103550002D4AD35C002BF4D001232DAA052108A805
:1035600000931AABFDF79EFB0028EAD09DF840308F
:103570002D99BDF86820032B13D8DFE803F0020C67
:103580000E1022480BF034F9BDF8683083420AD09F
:103590001F4AFFF788B91F48F4E71F48F2E71F48A2
:1035A000F0E70020F0E79DF84030134D00901C4AF2
:1035B000FFF712B900230DF11E02032108A88DF8B0
:1035C0001E308DF8283010931A93ADF83430012353
:1035D000FDF71DFB50BB134AFEF7CDBEA0860100D0
:1035E000801A060028650024449C04241F0D0A0844
:1035F000CC970424F80C0A087C7003245D0D0A089B
:10360000300D0A089B0D0A0884800324B49E04240C
:10361000C60D0A08EC9F042424A104245CA20424FF
:10362000E00D0A08F90D0A08F06502249DF81E3025
:10363000012BD0D8A24AD35C002BCCD0012310AAF6
:10364000132108A8FDF715FB0028C4D001230AAAFE
:10365000142108A8FDF7DBFA0028BCD09DF828202B
:10366000012AB8D8109B002A36D1B3F5006FB2D228
:1036700001231AAA052108A800930DABFDF712FB40
:103680000028A8D0BDF834000828A4D89DF8282028
:10369000109B22B323F0604343F00043894DC2B234
:1036A0001A998DF8BC20CDE92D530023CDF8BD30FB
:1036B000CDF8C13020B119B10DF1BD0055F0B2FB0C
:1036C0009DF81E302DA96BB97F4806F0D5FF002864
:1036D0000ADC7E4AFFF7E7B8B3F1005FC7E7C3F340
:1036E0000A03DBE77A48F0E79DF82850794A7A48E0
:1036F0001099002D18BF02469DF81E30774DCDE978
:103700000012774A4FF48051284655F063FFFFF7C7
:1037100068B8214608A8FEF719F8FFF714B9002386
:1037200010AA222108A88DF840302D93ADF86830FA
:103730000123FDF76CFA10B96A4AFEF71CBE9DF82A
:103740004030072BF8D8684AD35C002BF4D0012313
:103750002DAA052108A800931AABFDF7A3FA0028AB
:10376000EAD09DF84030614A19B2D25CA2B9182261
:103770005F4D01EB41002D995343BDF8682005EBE7
:10378000C000EB585B6898470746BDF86830BB42FD
:103790002AD0584AFFF787B84FF43975564EC1EB17
:1037A000C11105FB03F082593044D76A534A32F8FD
:1037B0001320534B03EB4101B84798B19DF84000EB
:1037C000BDF8682068432D99835930445B68984759
:1037D00007469DF840006843835930441B6B984767
:1037E0000028D2D10027D0E79DF840303B4D00970C
:1037F000444AFEF7F1BF0022214608A8FEF7AAFBC3
:10380000FFF7A1B80122F7E7002601231AAA282111
:1038100008A8ADF868608DF840602D96FDF710FAA5
:1038200040B1BDF868703846FCF7BEFE10B1364BAB
:10383000DB5D13B9354AFEF79EBD302D19D1F8B2C4
:10384000334D0DF093F80030244F4FF4805118BFE2
:103850000120BDF868302F4A2870384655F0BAFE6E
:1038600001232A463146CDE90266CDE90076FEF70E
:103870001ABF012310AA2A2108A8FDF7C8F958B1D8
:103880009DF84030012B07D8BDF86830224AD35C40
:103890002BB9224AFEF7F5BF214AFEF76CBD322D47
:1038A00044D101232DAA2D2108A8FDF7E2F920B16A
:1038B0002D9B1C4A013B934238D91B4AFEF75BBD46
:1038C000F25F0324BCFF09082C890424130E0A08A4
:1038D0001C8D042440060A083B060A087C70032459
:1038E000310E0A085F0E0A082C1D00247C80032478
:1038F000341D00247A0E0A08F41D00241C1D002427
:103900002B150024940E0A0815700324B20E0A0821
:10391000F0650224E00E0A08C4140024010F0A080E
:10392000EE0E0A083F420F00290F0A089DF84010CA
:103930009DF86800003118BF01210CF0A3FF322D63
:103940000BD12D980CF0D8FE9DF840109DF8680022
:10395000B1FA81F149090CF095FF33499DF8400017
:10396000324ABDF86830002818BF0A462D99304DFC
:10397000CDE900212F4AC5E62F4A0221FEF794BF68
:1039800041F213039A4203D900230B60FEF7DBBF19
:10399000531C08F802400B60FEF7D1BBFCF71CFF7C
:1039A000FEF778FBFCF76EFE244B1B780BB1FCF79F
:1039B000ADFE234B1B780BB1FCF76EFF5BB0BDE88F
:1039C000F08F012B1ED140F2313140F21133022A27
:1039D0000CBF0A461A469DF828302D99032B3EF657
:1039E000F2AE01A050F823F0C1270408EF27040825
:1039F000F3270408F7270408082B3EF4D0AE40F262
:103A00001342E8E7022BFAD140F2323140F212338E
:103A1000DDE7012B3EF4CEAE022BF0D140F2124195
:103A200040F23243FEF7B5BE3B060A0840060A08DC
:103A30007C700324450F0A08700F0A080C700324D9
:103A400014700324014809F043B900BF24970424EB
:103A5000014809F03DB900BF24970424704710B510
:103A600004465C213EF002FA204610BD0B4A1F219D
:103A700002600022C0E90921C0E90B2280F834204D
:103A800080F835200264A0F8442080F84620C0E980
:103A90000E22C0E91222C0E915227047940F0A08CD
:103AA00000231F22036380F83530036480F846301A
:103AB000C0E90A23C0E90E33C0E91233C0E9153367
:103AC00070478B6A8362CB6AC3620B6B036391F8A6
:103AD000343080F8343091F8353080F835308B6BE5
:103AE0008363CB6BC3630B6C0364B1F84430A0F801
:103AF000443091F8463080F846308B6C8364CB6C50
:103B0000C364B1F85030A0F850304B6D43658B6DF5
:103B10008365704708B5FFF7D4FF08BD70B586B060
:103B200005460E46684603F063FFEC6C6846002CC1
:103B3000CCBF0234002403F099FF0230241AA86A93
:103B4000241808D4AC626846AE6403F08FFFE864C2
:103B5000012006B070BD0020FBE710B5036C23B157
:103B600090F84640023304B10233941C1B1B846A54
:103B70001B194FF0000457BF8362204680F846406F
:103B8000C0E90F1258BF012010BD30B5046C24B13C
:103B900090F84650023405B102341D1D641B856A3D
:103BA00064195FBFC0E90F2301238462A0F84410A9
:103BB0004EBF002080F84630184630BD30B5846DC9
:103BC0001D1D002CCCBF04340024641B856A6419BD
:103BD00057BF84620020A0F85010C0E9152358BFD9
:103BE000012030BD70B50546806B0E4688B1047863
:103BF00014B156F005FA841C304656F001FA023032
:103C0000241AA86A24185DBFAC620120AE630020AC
:103C100070BD0446F0E790F83530826A002B0CBF87
:103C20006FF0020300239B185FBF8362012380F8BB
:103C3000341080F8353054BF1846002070470430E7
:103C40007047406A704790F83500704738B50446B1
:103C5000406A1546C0F11F03934208DB043020443C
:103C600055F0E0F8626A01202A44626238BD002003
:103C7000FCE770B50446406A0E461D461146023305
:103C8000C0F11F029A420FDB23186A1C1A71821CB2
:103C9000063062622A465E71204455F0C3F8636ABA
:103CA00001202B44636270BD0020FCE770B586B034
:103CB0000546684603F09CFE684603F0D7FE0228DE
:103CC00004466846CCBF0626022603F0CDFE2346F6
:103CD000024631462846FFF7CCFF06B070BD1346BA
:103CE0000A46FF21FFF7C5BF70B588B006461046EB
:103CF0001D4608AC1A4624F8201D01460DF10200AD
:103D000055F090F8AB1C2246FF213046FFF7B1FF7B
:103D100008B070BD70B588B0064610461D4608ACA8
:103D20001A4624F8201D01460DF1020055F07AF8DC
:103D3000AB1C224616213046FFF79BFF08B070BD32
:103D400007B5012302AA02F8011D1946FFF791FFEA
:103D500003B05DF804FB70B505460E4614461046E8
:103D600056F04EF93146034622462846BDE87040DB
:103D7000FFF77FBF70B5054608460C4656F040F980
:103D80001D2807D9224628461D230821BDE870407A
:103D9000FFF76FBF224628460921BDE87040FFF7B4
:103DA000DABF38B50023C16A0546436229B1026B08
:103DB0001AB1BDE83840FFF749BF95F835307BB3FD
:103DC00095F834102846FFF7BBFF0446A96C21B1D3
:103DD0002846FFF76BFF0440E4B2E96B61B12B6C3E
:103DE00053B195F84620EAB10A462846B5F8441082
:103DF000FFF77AFF0440E4B26A6D42B1AB6D33B1B4
:103E0000B5F850102846FFF785FF0440E4B2A96BCF
:103E100021B12846FFF7AEFF0440E4B2204638BD8A
:103E20000124D3E71A462846FFF759FFE2E70000CE
:103E30000C4B10B504460360406838B100F022FC1A
:103E400020B9606810B103685B689847A06838B112
:103E500001F0F7F920B9A06810B103685B689847D2
:103E6000204610BDA40F0A0810B50446FFF7E0FF76
:103E70000C2120463DF0FAFF204610BD024A0260A8
:103E80000022C0E901227047A40F0A08064B10B5B2
:103E9000C0E9003100230446836011B1084600F0F8
:103EA000ECFB204610BD00BFA40F0A08064B10B55E
:103EB000036000230446C0E9013111B1084601F056
:103EC000BBF9204610BD00BFA40F0A080346406896
:103ED00008B100F0C9BB986808B101F0ABB901485E
:103EE000704700BF44600A080346406808B100F00C
:103EF000D1BB986808B101F0CDB9704710B44468DF
:103F000024B120465DF8044B00F0D0BB806818B1A6
:103F10005DF8044B01F0C4B95DF8044B704780684C
:103F200008B101F011BA7047436823B980680030C6
:103F300018BF012070470120704708B5836823B17E
:103F4000FFF7D2FFC0F3400008BD1846FCE78068C9
:103F500008B101F011BA7047F8B5054640680E4641
:103F6000174618B300F0A0FBB842A8BF3846044675
:103F7000686800F097FB01462246304654F052FF35
:103F8000A86888B101F0F0F990B9A8683C4601F042
:103F900085F98742A8BF0446A86801F07DF901466B
:103FA0002246304654F03EFF2046F8BD0446E7E77F
:103FB0002846FFF7C2FF0028E7D02846FFF7C7FFD3
:103FC0000028E2D10446EFE710B584685CB1FFF742
:103FD0008BFF10F0200F204614BF02210121BDE805
:103FE000104001F067BA204610BD806810B1002172
:103FF00001F060BA70477047024B186803681B698C
:10400000184700BF44130A08024B186803685B692D
:10401000184700BF44130A08054B1B6810B41A6800
:1040200001795469421D184623465DF8044B184730
:1040300098110A080B4B10B5044618680368621DF6
:1040400021799B6A98474FF6FF730146984206D044
:10405000054B18680268BDE81040926A104794F951
:104060004B0010BD98110A0844130A0810B5044605
:104070004C213DF0FBFE204610BD000010B504466B
:104080008AB048794B7A8A7A039088790290C87905
:10409000019005A8097A0091044955F0E3FA05A9B1
:1040A00020460CF098F920460AB010BDAC0F0A0863
:1040B000002307B50622694605300093ADF80430A9
:1040C00054F07EFE003018BF012003B05DF804FB01
:1040D00008B502790B799A4208D1062205310530DC
:1040E00054F06EFEB0FA80F0400908BD0020FCE7F5
:1040F0000A4B10B50446186803681B699847236883
:1041000020461B6A984740B1054B621D217918680B
:104110000368BDE810405B6B184710BD44130A08E4
:1041200098110A0808B502790B799A4208D106223B
:104130000531053054F044FE003018BF012008BDA1
:104140000120FCE7064A7F210260002280F84B1024
:10415000C2720273C0F80520A0F80920704700BFA2
:10416000D40F0A080171002110B5C17201737F21BB
:10417000054C80F84B1004601168C0F80510928857
:10418000A0F8092010BD00BFD40F0A082DE9F041A6
:104190000F46164905460CF01EF93A7B00218A426B
:1041A00020DD7B1801F10208597B9B7B4C1E083BEC
:1041B000012B0FD8214628460CF0E1F80026B44226
:1041C00010DD08EB060328463B44597B0CF078F9D8
:1041D0000136F4E704EB0801E1E728460CF0B0F8FB
:1041E00051F05CFB2846BDE8F08100BF44600A083E
:1041F0001FB5014601A8FFF7C9FF0398041C01A8D9
:1042000018BF01240CF09CF8204604B010BD00003B
:104210002DE9F04F002485B00E462549A0460746FB
:1042200001920CF0D8F8337BA3423DD9631C5FFAAE
:1042300083FA331993F80DB006EB0A035B7B9A1EE1
:10424000012A1DD9063B012B25D81025023405FB78
:1042500005F34FF00009E4B200930BF1FF330D3486
:104260000293EBB234440393029B4B4513DD019B55
:10427000984507D0009B08F10108A9441C44F3E7C6
:104280000225E3E70399204603F0F2FB0146384696
:104290000CF0D9F8EEE70BEB0A04E4B2C3E73846BA
:1042A0000CF04EF851F0FAFA384605B0BDE8F08F40
:1042B00044600A0810B504460022FFF7A9FF204613
:1042C00010BD0000054B1B6810B41A680179146911
:1042D000421D184623465DF8044B184798110A08FA
:1042E000064B014618684A1D10B4036809799C6999
:1042F0000023A4465DF8044B604700BF98110A08EC
:10430000054B30B4044618680368621D9D690B466E
:104310002179AC4630BC604798110A08074B1B68EE
:1043200010B51A680179D46A421D1846A04718B121
:10433000BDE8104001F0EFB910BD00BF98110A08A8
:104340000E4B70B50446186815464A1D0368097976
:10435000DB6A9847064668B101F0DDF9A84209DD3D
:104360002946304601F0D9F90146204600F008F907
:10437000204670BD204600F0FBF8F9E798110A08C6
:104380002DE9F84F9946174B0546904618684A1D87
:1043900009790368DB6A98470746F0B1002401F009
:1043A000BAF982462646544517DA2146384601F0C6
:1043B000B4F9834600F03EFF0146404655F0BAF995
:1043C00048B94E4506D15946284600F0D9F8284646
:1043D000BDE8F88F01360134E5E7284600F0C8F85B
:1043E000F5E700BF98110A0810B504460023FFF74F
:1043F000C7FF204610BD0000F8B50E4B01791B68C1
:104400001A68D46A421D1846A047064678B10024AF
:1044100001F081F907462546BC4209DA21463046BB
:1044200001F07BF9013401F0F5F90544F4E70546A4
:104430002846F8BD98110A081A4B2DE9F0470546A1
:10444000186817464A1D03680979DB6A9847804651
:1044500018B3002401F05FF9814626464C451CDA6A
:104460002146404601F059F9824601F0D3F9002176
:10447000814206EB01030DDA9F4209D1504601F05B
:10448000CBF901462846FFF711FD2846BDE8F08725
:104490000131EDE701341E46E0E72846FFF7EEFC68
:1044A000F3E700BF98110A0808B5134602798A425B
:1044B00008D106221946053054F082FCB0FA80F08B
:1044C000400908BD0020FCE710B50446012000FAB1
:1044D00001F1227304F10D00E172194654F0A2FCBF
:1044E0009DF9083084F84B3010BD70B50D4611466B
:1044F000C27A04461E4642F01002C2722A46007B6F
:104500000D30204454F08EFC237B84F84B601D4416
:10451000257370BDC37A13F0180F14BF012000205B
:10452000704700000C4B10B504460360406838B17A
:1045300000F0A8F820B9606810B103685B6898477C
:10454000A06838B100F07DFE20B9A06810B1036802
:104550005B689847204610BD08100A0810B504464D
:10456000FFF7E0FF0C2120463DF080FC204610BD07
:10457000024A02600022C0E90122704708100A08BE
:10458000064B10B5036000230446C0E9013111B1A8
:10459000084600F051FE204610BD00BF08100A0872
:1045A0000346406808B100F05FB8986808B100F0B1
:1045B00041BE0148704700BF44600A08436823B900
:1045C0008068003018BF01207047012070472DE936
:1045D000F84F054688680F4691469A46F0B1002488
:1045E00001F018F980462646444517DA2146B86896
:1045F00001F012F9834600F01DFE0146484655F0D1
:1046000099F848B9564506D159462846FFF74EFC59
:104610002846BDE8F88F01360134E5E72846FFF764
:104620002DFCF5E710B504460023FFF7D0FF204628
:1046300010BD4068704770470020704710B50446B1
:1046400020213DF013FC204610BD0000054B10B5A5
:10465000044640F8043B03F0CBF900232046E36115
:1046600010BD00BF18100A08043003F0FBB9043075
:1046700003F0FAB9043003F0F9B9C3690133C36137
:1046800018467047C369013BC3611846704742F63C
:104690000300704790F82000704790F821007047A1
:1046A000406A7047806A7047808D7047436A9A42BB
:1046B000A8BF1A462DE9F0410446828592B2806A6D
:1046C0000F4654F0AFFB94F82E300BB1636AA3850C
:1046D00094F8203098060FD5A28E91070CD51F4B69
:1046E000218E1868013103685D6DA38DAC46A26A06
:1046F00089B2BDE8F0416047DA0609D5A38EDB0731
:1047000006D5164B218E1868013103681D6DECE744
:1047100094F83230F3B1124B2146186803685B6A93
:104720009847104B01463A461D682B6828461E6B79
:10473000A38DB047094B186803681B6B984748B9AD
:10474000094B186803689B68984718B12B6828467E
:104750005B6D9847A08DBDE8F08100BF98110A08F5
:10476000E4120A0854100A0898120A0838B50546D7
:104770000C46084655F044FC214602462846BDE852
:104780003840FFF793BF01867047008E7047008E58
:10479000013080B27047806B7047836B994208D2BA
:1047A000C36B0022914202D05B680132FAE71868BD
:1047B0007047002070470000114B03600B790371B4
:1047C0000B4630B553F8052F01F14904C0F8052018
:1047D00000F10D029B88A0F80930CB7AC3720B7BE5
:1047E000037301F10D0353F8045BA34242F8045B29
:1047F000F9D11B88138091F94B3080F84B3030BDD4
:10480000D40F0A0838B5044608200D463DF0FAFAE0
:104810000023C0E9005363682BB960602368A0607F
:104820000133236038BDA3685860F7E770B50446CC
:10483000002540682368AB4206D9466808213DF050
:1048400015FB01353046F5E70023C4E90033A360CA
:1048500070BD0000F8B5044615461F46FFF7F6FE8A
:10486000264B0021B7F5007F84F8205023604FEAE3
:104870001523A1854FF0100284F821303B46A8BFD4
:104880004FF40073218684F8321004F1440063620F
:104890009DF8183084F8331084F82E30A1862164F6
:1048A000C4E90E1154F0BCFB15F0300F20D02C20C1
:1048B00004F138063DF0A6FA022304F1340210494F
:1048C000054600F0EBF82846FFF7D7FE29463046AC
:1048D000FFF798FF0CE02C2128463DF0C7FA304640
:1048E000FFF7A4FF2046FFF7A6FE50F0D7FFF6E73C
:1048F000384653F045FFA0622046F8BD34100A0840
:1049000024100A0870B5154B044600250360A36BFC
:104910009D4212D2E36B0022954202D05B680132C5
:10492000FAE71E683046FFF7ADFE20B91EB13368C6
:1049300030465B6898470135E9E704F138052846B9
:10494000FFF774FFA06A08B153F022FF2846FFF773
:104950006DFF2046FFF76FFE204670BD34100A0839
:1049600010B50446FFF7CEFF542120463DF07EFAF5
:10497000204610BDF0B5C56C97B0044617461E46DC
:104980007DB103A8FFF718FF21466846FFF77EFABE
:10499000694603A8A8476846FFF74AFA03A8FFF745
:1049A0002AFBA16A30461C9A394454F03BFA17B0EE
:1049B000F0BD6846FFF73CFA03A8FFF71CFB50F078
:1049C0006DFFF9E770B50E4611460122044696B018
:1049D00080F833201A46FFF769FE256D85B1314610
:1049E00003A8FFF7E9FE21466846FFF74FFA69463C
:1049F00003A8A8476846FFF71BFA03A8FFF7FBFACE
:104A000016B070BD6846FFF713FA03A8FFF7F3FA74
:104A100050F044FFF9E702F00302838E934230B571
:104A2000044697B017D08286002A0CBF4422402249
:104A3000024455687DB103A8FFF7BEFE21466846D3
:104A4000FFF724FA694603A8A8476846FFF7F0F97C
:104A500003A8FFF7D0FA17B030BD6846FFF7E8F9B2
:104A600003A8FFF7C8FA50F019FFF9E74FF42450F4
:104A700070470000034B10B504460360FFF7DBFDF1
:104A8000204610BD48100A0810B50446FFF7F2FF93
:104A90002C2120463DF0EAF9204610BD70B51D4698
:104AA00004461646FFF7D2FD064BB5F5007F266299
:104AB00020462360A8BF4FF400750023656223855C
:104AC00070BD00BF48100A08406A7047006A70470E
:104AD00001857047024B186803681B69184700BFBF
:104AE00044130A08024B186803685B69184700BF43
:104AF00044130A08064B186810B503681B699847E9
:104B0000044B18680368BDE810401B6B184700BFD2
:104B100044130A0898110A08064B186810B5036870
:104B20001B699847044B18680368BDE81040DB6BAD
:104B3000184700BF44130A0898110A08024B186866
:104B400003689B6C184700BF98110A080C30704727
:104B500068307047024B186803681B69184700BF2C
:104B6000E4120A08024B186803685B69184700BF23
:104B7000E4120A08024B186803689B69184700BFD3
:104B8000E4120A08024B186803681B69184700BF43
:104B900098120A08024B186803685B69184700BF3F
:104BA00098120A08024B186803685B6A184700BF2E
:104BB00098120A08074B10B50446186803681B6969
:104BC0009847054B204619680B68DB6C98472046D0
:104BD00010BD00BF44130A0898110A08074B10B50E
:104BE0000446186803681B699847054B20461968F6
:104BF0000B689B6A9847204610BD00BF44130A0803
:104C000098120A08024B18680368DB6A184700BF4D
:104C100098120A08024B186803689B69184700BF7E
:104C200048150A08024B18680368DB69184700BF7B
:104C300048150A08024B186803681B6B184700BF29
:104C400098120A08024B18680368DB68184700BF0F
:104C500098110A08024B186803681B6A184700BFBE
:104C600048150A08024B186803685B6A184700BFBA
:104C700048150A08024B1B68C3F8F010704700BFC4
:104C800044130A08024B1B68C3F8F810704700BFB2
:104C900044130A08024B1B68C3F8F410704700BFA6
:104CA00044130A08024B1B68C3F8EC10704700BF9E
:104CB00044130A08024B1B68C3F8FC10704700BF7E
:104CC00044130A08024B1B68C3F80011704700BF69
:104CD00044130A08024B18680368D3F89C3018473D
:104CE00044130A08024B18680368D3F8A030184729
:104CF00044130A08F0B5012187B004460A200BF0DE
:104D000087FD00210A200BF003FE4FF4FA700BF030
:104D1000F1FC01210A200BF0FBFD4FF4FA700BF0BF
:104D2000E9FC294B1D682B6828469B689847064676
:104D300020B923682046DB6898470DE064200BF01B
:104D4000D9FC2B6828469B699847064638B12368EA
:104D500000262046DB689847304607B0F0BD05AA1C
:104D60002B680DF10D01284601920DF112020092FF
:104D700004AADF690DF10E03B8470028D9D12B68CA
:104D80004FF0FF322846D96A6FF040438847002829
:104D9000CFD12B6840F2FF322846196B0023884799
:104DA00006460028D3D12B680DF10F020DF1160134
:104DB00028465B6B98470028BBD1044B0126186836
:104DC00003689B689847C7E744130A08E4120A0877
:104DD0000C4B10B5044618680368DB6898470A4B0B
:104DE00018680368DB68984700210A200BF090FDE3
:104DF00004F10C00FEF754FE04F16800BDE8104019
:104E0000FEF74EBEE4120A0844130A0810B5002348
:104E10008CB00446059305A9ADF818300F4B1868FF
:104E200003681B6A98479DF814109DF8183007A86E
:104E300003919DF815109DF8192002919DF8161008
:104E400001919DF817100091054954F00BFC07A93A
:104E500020460BF0C0FA20460CB010BD44130A08DF
:104E6000AC0F0A080C30FEF759BE70B50368044653
:104E700008469D6AFFF794FB014620462B46BDE895
:104E8000704018470C30FEF799BE0C30FEF765BE37
:104E90000C30FEF77ABE6830FEF7A4BE6830FEF72D
:104EA00039BE10B500F10C042046FEF733FE204653
:104EB000FEF7C9FE28B920460621BDE81040FEF7DE
:104EC000AABE10BD2DE9F743044600F10C05683475
:104ED0002846FEF766FF2046FEF763FF0E4B284686
:104EE0001E683368DF68FEF7AAFE80462846FEF794
:104EF000A8FE05462046FEF7A2FE81462046FEF7A4
:104F0000A0FE4B46C0B24146EAB200903046B847D8
:104F100003B0BDE8F08300BF98120A087FB50C4BC0
:104F2000164601A81C6823689D690BF082FA324678
:104F300001A92046A84704E001A80BF001FA50F0AF
:104F4000ADFC044601A80BF0FBF9204604B070BD8F
:104F500098120A087FB50C4B164601A81C682368F6
:104F6000DD690BF066FA324601A92046A84704E045
:104F700001A80BF0E5F950F091FC044601A80BF0F4
:104F8000DFF9204604B070BD98120A087FB50C4BBB
:104F9000164601A81C6823681D6A0BF04AFA3246BF
:104FA00001A92046A84704E001A80BF0C9F950F078
:104FB00075FC044601A80BF0C3F9204604B070BD8F
:104FC00098120A0802290BBF044B054B1868186891
:104FD0000BBF036803685B6B9B6D184798120A0848
:104FE00098110A0870B5054604460D4B05F1680690
:104FF00044F80C3B2046FEF739FD3046FEF736FDFF
:1050000006212046FEF707FE08E03046FEF726FDA3
:105010002046FEF723FD50F041FCF9E7284670BD1D
:1050200060100A0810B5054C2046FFF7DBFF20464C
:10503000034A0449BDE810403CF08ABCBC8104240A
:105040000000002449500408064B10B5044640F8FF
:10505000683BFEF703FD04F10C00FEF7FFFC204661
:1050600010BD00BF60100A0810B50446FFF7ECFF42
:10507000C42120463CF0FAFE204610BD0E4B1968B4
:1050800010B594B00B6801A8DB6C984701A8FFF736
:105090000FF848B101A8FEF7CDFF044601A8FEF7BE
:1050A000AAFF204614B010BD7F24F7E701A8FEF741
:1050B000A2FF50F0F3FB00BF98110A084FF42050F4
:1050C0007047000010B50446FFF7C0FA044B2046B5
:1050D00023600023C4E90833C4E90A3310BD00BFCC
:1050E0002C110A08018442847047008C7047408C60
:1050F0007047406A7047436A994208D2836A002227
:10510000914202D05B680132FAE7186870470020CC
:10511000704738B5044608460D46FFF7AEFA08203A
:105120003CF070FE0023C0E90053A36A2BB9A062D3
:10513000636AE0620133636238BDE36A5860F7E78F
:1051400070B50446002540682368AB4206D946681E
:1051500008213CF08BFE01353046F5E70023C4E919
:105160000033A36070BD10B504462430FFF7E8FF9C
:105170000023236210BD000070B5134B04460025C8
:105180000360636A9D4212D2A36A0022954202D054
:105190005B680132FAE71E683046FFF773FA20B900
:1051A0001EB1336830465B6898470135E9E7204611
:1051B000FFF7D9FF04F12400FFF7C2FF2046FFF7F5
:1051C0003AFA204670BD00BF2C110A0810B50446FB
:1051D000FFF7D2FF302120463CF048FE204610BDAC
:1051E000044B10B5044640F8043B0BF0A9F82046E8
:1051F00010BD00BF40110A0810B50446FFF7F0FFCC
:10520000142120463CF032FE204610BD38B504463D
:10521000074B08461146254645F8043B02F028FC9A
:10522000014628460BF0D7F800232046236138BDFD
:1052300040110A084068704703690133036118464A
:1052400070470369013B03611846704770B5044617
:105250001E46BDF81450FFF7D9FF0D4B01222576ED
:105260002D0A23602046BDF81030A682E382BDF8E7
:10527000183065766383002384F8252084F8243071
:10528000C4E90733C4E90A33C4E90C3370BD00BF75
:1052900050110A08007E7047C0697047006A704765
:1052A0002DE9F0439846274B85B004461E680F460B
:1052B000818A9146336830469B6B984718B9002025
:1052C00005B0BDE8F08333683046A18A5B6C98472F
:1052D000033885B2E0694D45A8BF4D46294653F0D5
:1052E000B7FFE0610028EAD0237E1A071CD5B8F189
:1052F000000F19D003A83368628B0190E8B2A18A2D
:1053000000903046D3F860803B46C0470028D7D095
:105310009DF80C30012BD2D02A463946E06953F073
:1053200081FD25620120CBE75B07C8D53368E8B271
:10533000628B00903046D3F864803B46A18AC04718
:10534000EAE700BF98110A08064B10B50446186832
:105350000368A18A9B6B9847002394F8240084F883
:10536000243010BD98110A080346012290F8250048
:1053700083F8252070470000154B818AF0B51E6820
:10538000C1B00446336830469B6B9847054648B128
:1053900033683046628BDF6D6B46A18AB84720B90F
:1053A00000252562284641B0F0BD9DF80030012B54
:1053B000F6D0411EE069216253F04AFFE061002807
:1053C000EED0226A0DF1010153F02CFDEAE700BF97
:1053D00098110A08408B704738B5044608460D46B8
:1053E000FFF72AFF08203CF00DFD0023C0E9005321
:1053F000E36A2BB9E062A36A20630133A36238BD7C
:10540000236B5860F7E770B50446002540682368B1
:10541000AB4206D9466808213CF028FD01353046EC
:10542000F5E70023C4E90033A36070BD03688B4235
:1054300008D9436800228A4202D05B680132FAE749
:105440001868704700207047F8B50546134B0446AE
:10545000002645F8283BA36A9E420ED231462846D4
:10546000FFF7E4FF0746FFF7ECFE20B91FB13B68EA
:1054700038465B6898470136EDE72846FFF7C3FFDB
:10548000E06918B153F084F90023E3612846FFF77F
:10549000BAFF2046FFF7A4FE2046F8BD50110A08C7
:1054A00010B50446FFF7D0FF382120463CF0DEFC63
:1054B000204610BD2DE9F04306468DB00546002478
:1054C00056F8287FDFF87C80ADF80E10BC4219DA60
:1054D00021463046FFF7AAFF8146FFF7ABFE414663
:1054E00054F0C2F960B902220DF10E01484600F0F5
:1054F000B3F8041C18BF012420460DB0BDE8F083AA
:105500000134E3E72C7E14F03004F5D06A8B04A854
:10551000AB8A013292B200920022114600F08AF862
:1055200002220DF10E0104A800F096F8041C04A854
:1055300018BF012400F062F8DEE704A800F05EF86E
:1055400050F0ACF924100A0870B50446036296B016
:105550000D46C0691946164653F07AFEE06110B94F
:10556000206216B070BD01233146226A84F82430CF
:10557000002384F8253053F055FC666B002EF0D0E4
:105580001D4B05F1490103932B798DF810302B4603
:1055900053F8052F9B88CDF811200DF11902ADF8B5
:1055A0001530EB7A8DF817302B7B8DF8183005F11C
:1055B0000D0353F8040B8B4242F8040BF9D11B88FE
:1055C00021466846138095F84B308DF85730FEF72A
:1055D0006DFC694603A8B0476846FEF729FC03A89E
:1055E000FEF709FDBDE76846FEF722FC03A8FEF7BB
:1055F00002FD50F053F9F9E7D40F0A08074B10B534
:1056000004460360806918B153F0C2F80023A36117
:105610002046FFF7E5FD204610BD00BF60110A08D7
:1056200010B50446FFF7EAFF202120463CF01EFC9F
:10563000204610BD38B504461D46FFF7E7FD054B73
:10564000A58220462360BDF81030E3820023C4E920
:10565000063338BD60110A082DE9FF411C4B044692
:105660000F46818A1E689046336830469B6B984788
:1056700018B9002004B0BDE8F08133683046A18A33
:105680005B6C9847033885B2A0694545A8BF45467D
:10569000294653F0DDFDA0610028EAD003A8336855
:1056A000E28A0190E8B2A18A00903046D3F8608087
:1056B0003B46C0470028DCD09DF80C30012BD8D0E9
:1056C0002A463946A06953F0ADFBE5610120D1E7D8
:1056D00098110A08034A02600022C0E90122C26050
:1056E000704700BF70110A0838B5044608460D46D9
:1056F000FFF7A2FD08203CF085FB0023C0E9005322
:10570000A3682BB9A0606368E0600133636038BDB3
:10571000E3685860F7E7406870474368994208D2E9
:1057200083680022914202D05B680132FAE7186870
:1057300070470020704770B5044600254068236814
:10574000AB4206D9466808213CF090FB0135304653
:10575000F5E70023C4E90033A36070BD70B50646C9
:10576000002473689C4212D2B3680022944202D093
:105770005B680132FAE71D682846FFF762FD20B931
:105780001DB12B6828465B6898470134E9E7301D56
:10579000FFF7D1FF70BD000038B50446054B054644
:1057A00044F8043BFFF7DAFF2046FFF7C4FF284622
:1057B00038BD00BF70110A0810B50446FFF7ECFFB2
:1057C000102120463CF052FB204610BD38B504465F
:1057D0001D46FFF71BFD0B4BA58204F1180023604B
:1057E000BDF810300849E3820AF0F5FD04E02046D8
:1057F000FFF7F6FC50F052F800232046C4E90933C5
:10580000E36238BD80110A0844600A08808A704744
:10581000C08A7047406A7047436A994208D2836AD7
:105820000022914202D05B680132FAE718687047A3
:105830000020704738B5044608460D46FFF7FCFCCB
:1058400008203CF0DFFA0023C0E90053A36A2BB91B
:10585000A062636AE0620133636238BDE36A586044
:10586000F7E770B50446002540682368AB4206D9C7
:10587000466808213CF0FAFA01353046F5E7002386
:10588000C4E90033A36070BD70B5154B0446002514
:105890000360636A9D4212D2A36A0022954202D03D
:1058A0005B680132FAE71E683046FFF7CAFC20B990
:1058B0001EB1336830465B6898470135E9E704F16B
:1058C00024052846FFF7CDFF2846FFF7CAFF04F15D
:1058D00018000AF035FD2046FFF782FC204670BD17
:1058E00080110A0810B50446FFF7CEFF302120468C
:1058F0003CF0BCFA204610BDA0F8A8107047C0F8D4
:10590000AC1070472DE9FF41013A13F8014B0546F1
:105910000F46D6B20268CDE90233526C90470C2C88
:1059200002462968029B79D02FD8052C69D01AD855
:10593000022C60D00BD8012C53D0062322462846D7
:1059400000930023D1F8DC603946B0476EE0032CA9
:1059500054D0042CF1D10093D1F894403346394609
:105960002846A04762E0092C52D007D8062C4BD01D
:10597000082CE2D10093D1F8A440EFE70A2C4DD0D7
:105980000B2CDAD1D1F8B4402DE0162C51D00FD821
:10599000112C40D005D8102CCFD10093D1F8B840AD
:1059A000DCE7122C18D0132CC7D1D1F8C8401AE06C
:1059B0001D2C04D00CD8182C3FD01B2CBDD100932B
:1059C0002246D1F8D480334639462846C0472DE0D8
:1059D0001E2C36D0522CB0D1CDE90063D1F8C46072
:1059E00020E0D1F88440324639462846A44604B027
:1059F000BDE8F0416047D1F88840F4E7D1F8904025
:105A0000F1E7D1F89C40EEE70093D1F8A040A5E77C
:105A1000D1F8AC40E7E7D1F8C040E4E7CDE9006356
:105A2000D1F8B060234639462846B04704B0BDE8F7
:105A3000F0810093D1F8CC4090E70093D1F8D040AA
:105A40008CE7D1F8D840CEE700F18C034FF6FF7217
:105A5000B0F8B010914204D11C309842F8D1002027
:105A600070470120704708B503689B6A98474FF656
:105A7000FF73C01A18BF012008BD000038B50A4BDB
:105A800004460D46186803681B699847204604F1D0
:105A90008C03B0F8B020AA4204D01C309842F8D150
:105AA000002038BD0120FCE744130A0800F18C03F4
:105AB00090F9C820002A04DB1C309842F8D100205D
:105AC00070470120704730B500231C2404FB0302FB
:105AD000B2F8B0508D4204D00133052BF6D100202E
