:020000040804EE
:10000000000008245D040908A90409085D0808081F
:1000100063080808690808086F080808000000005D
:100020000000000000000000000000000D080508AE
:10003000A904090800000000A7080508B70805087A
:10004000A9040908A9040908A9040908A9040908B8
:10005000A9040908A9040908A9040908A9040908A8
:10006000A9040908A9040908A9040908A904090898
:10007000A9040908A9040908A9040908A904090888
:10008000A9040908A9040908A90409085D100908B8
:100090006D1009086910090879100908A9040908F0
:1000A000A9040908A9040908A9040908A904090858
:1000B000A9040908A9040908A9040908A904090848
:1000C000A9040908A9040908A9040908A904090838
:1000D000A9040908A9040908A9040908A904090828
:1000E000A9040908A904090800000000A9040908D6
:1000F000A9040908A9040908A9040908A904090808
:10010000A9040908D5FB0808A9040908A9040908D5
:10011000A9040908A9040908A9040908A9040908E7
:10012000A9040908A9040908A9040908A9040908D7
:10013000A9040908A9040908A9040908A9040908C7
:10014000A9040908A9040908000000000000000033
:10015000A9040908A9040908A9040908A9040908A7
:10016000A9040908A9040908A9040908A904090897
:10017000A9040908A9040908A90409080000000045
:10018000A9040908A9040908A9040908A904090877
:10019000A9040908A9040908A9040908A904090867
:1001A000A9040908A9040908A9040908A904090857
:1001B000A9040908A9040908A9040908A904090847
:1001C000A9040908A9040908A9040908A904090837
:1001D000A9040908A9040908A9040908A904090827
:1001E000A9040908A9040908A9040908A904090817
:1001F000A9040908A9040908A9040908A904090807
:10020000A9040908A9040908A9040908A9040908F6
:10021000A9040908A9040908A9040908A9040908E6
:10022000A9040908A9040908A9040908A9040908D6
:10023000A904090859040908A9040908A904090816
:10024000A9040908A9040908A9040908A9040908B6
:10025000A9040908A9040908A9040908A9040908A6
:10026000A9040908A9040908A9040908A904090896
:10027000A9040908A9040908A9040908A904090886
:10028000A9040908A9040908A90409080000000034
:10029000A9040908A904090810B5054C237833B945
:1002A000044B13B10448AFF300800123237010BD49
:1002B000A014002400000000483B0B0808B5034BC5
:1002C0001BB103490348AFF3008008BD00000000E4
:1002D000A4140024483B0B08154B002B08BF134BFC
:1002E0009D46A3F5803A00218B460F461348144AD9
:1002F000121A58F0ADFD0F4B002B00D098470E4B53
:10030000002B00D098470020002104000D000D486C
:10031000002802D00C4841F039FA57F05BFF20006A
:10032000290012F059FE41F04DFC00BF000008000A
:100330000000082400000000352F0508A014002448
:10034000A0AD05248D1708080000000000207047AC
:10035000704703689B6B18477047092A04BF012345
:100360004371437923B90079431A58425841704781
:100370000020704703798B4204D112F1FF3018BF7F
:100380000120704700207047034BB0FBF3F202FBE3
:100390001300024B1860704740420F000800002411
:1003A000054B1B685A1C05D0044A1068C31A5842F2
:1003B00058417047012070470400002408000024C1
:1003C00010B5084C22681AB10021074858F040FDCA
:1003D0000023064A1360064A23601380054A1380EF
:1003E00010BD00BF10700324948003249480042463
:1003F0009A8004249880042410B50446142141F006
:1004000051FC204610BD0000F8B50D4D0D4FA5F173
:10041000C00645F8187D6C697CB16368013B636078
:100420005BB9236820469B689847A368013BA3609B
:100430001BB923682046DB689847B542E9D1F8BD6F
:10044000F41D002424180A0810B54FF48051044606
:10045000074859F00FFEB0F5805F08D2C0F57F6203
:10046000214603480F32BDE8104059F057BD10BD7A
:100470007C70032470B5064C064EA4F5B955A4F55E
:100480003974204626600DF069FCAC42F7D170BD8E
:100490001435002454FE09082DE9F04389B00446C0
:1004A0000D461422002103A858F0D2FC6368227A7A
:1004B0001421002B03A800926FF00809A7BFC3F313
:1004C0000A03154A23F06043144A58F09BFF2B6837
:1004D000024603A95B682846984704F109070646C7
:1004E000A9EB0409DFF8388009EB0703227A93426D
:1004F0000ED217F8013B4246142103A858F082FFA0
:100500002B68022203A95B68284698470644EBE75C
:10051000304609B0BDE8F083110D0A08210D0A0824
:10052000310D0A08831E052B05D916383F288CBFCC
:1005300000200120704701207047F0B500F580349D
:1005400042F6AA25D7180C1B241105FB0404BA4255
:100550000BD012F8016B0868265408680130B0FB14
:10056000F5F605FB16000860F1E78A681A448A6010
:10057000F0BD2DE9FF411F4600EB0113BDF82860D7
:10058000054603F57F4306F10B08D3F8E840E03356
:10059000C4F52A542A34A045DDE90CEC06D9DA6802
:1005A00000200132DA6004B0BDE8F08101F6FE718E
:1005B0008DF804200B2301AA00EB0114CDF807E00D
:1005C000CDF80BC02146ADF80560FFF7B6FF284611
:1005D00033463A462146FFF7B0FF0120E3E700002B
:1005E0002DE9F0431D4E87B000241D4FB146A35D99
:1005F000ABB1E5B2284610F0D5F80030E35D18BF86
:10060000012083420BD0002B19F8043038550CBF61
:1006100002460022032B0CD0012B06D14AB901342B
:10062000672CE4D107B0BDE8F083022BF7D1002A94
:10063000F5D14FF000088DF814508DF816008DF8A4
:1006400015800FF067FF03232A460721009305ABAF
:10065000CDE902080348FFF78CFFE0E7EC800424B3
:1006600053810424906500242DE9F04F0026ADF558
:10067000057D2B4F35462B4B5FFA85F9EB5C002B44
:1006800043D0294BEC5CACB907EB060A0DF1100B1B
:10069000BA5950461FFA84F81269904728B3B4F546
:1006A000007F3AD0BB5950465B6998470BF804006D
:1006B0000134EDE74FF43974DFF874A06C4354F85B
:1006C0000A3004EB0A0B5B6B58469847021E1CDD90
:1006D00054F80A30B2F5007F04A958469B6BA8BFB6
:1006E0004FF4007298471FFA80F8B8F1000F0CD051
:1006F0000FF010FF0022029004AB03920521CDF809
:1007000000804A460948FFF734FF01351836082DA6
:10071000B1D10DF5057DBDE8F08FA046E8E700BF3B
:10072000341D00242C1D00247C80032490650024AB
:10073000F41D00242DE9F04FCFB01C22002100252C
:1007400006AC0DF13808DFF8A8A02046274658F07F
:100750007FFB224B6360224BE360224B6361224BA1
:10076000E361224B1A7822705A7822729A78DB78E9
:100770002274237614F835305FFA85FB2BB30026FC
:100780007B681FFA86F91968184605930969884736
:1007900058B1B6F5807F1FD0059B1A68184652697C
:1007A000904708F806000136EAE7B9F1000F0CD0CF
:1007B0000FF0B0FE002302905A4603930221CDF8B9
:1007C000009043465046FFF7D4FE01350837042D0C
:1007D000D0D14FB0BDE8F08FB146E9E7B49E042414
:1007E000EC9F042424A104245CA204248480032418
:1007F00090650024194B30B51C6885B023682046ED
:100800001B699847164B1B78DBB1164803F0A8FA12
:10081000B8B1144803F09FFA98B14FF4007212492E
:10082000104803F0B5FA051E0BDD0FF073FE002231
:10083000ADB20D4B06210095CDE902020B48FFF742
:1008400098FE23682046D3F8A030984718B1084B8B
:100850004FF0FF321A6005B030BD00BF500E0A08DD
:10086000F15F032488800324F0650224906500244E
:100870000400002470B500F5803442F6AA25049ED9
:10088000091B1E44091105FB0101B34208D0885C15
:10089000013203F8010BB2FBF5F005FB1022F4E77F
:1008A00070BD2DE9F04F8FB00446CDE907239DF8C8
:1008B000643006938B1E05939DF81430052B00F2CF
:1008C000B680189B0A2B40F2B28001F6FE7300EB53
:1008D00001184FF6E4724FF0000900EB031358F8CB
:1008E0000250CB460393059B039900EB031303F5DA
:1008F00080339E6800F58033CB1A42F6AA211B1183
:100900004B43049308EB020309930A2E51D90B239E
:100910004FF0000A2A460399009320460BABCDE91D
:100920000BAACDF833A0FFF7A5FFBDF82D700B374C
:10093000BE423ED39DF82C30079A934216D1189BA5
:10094000A3EB0903BB4234D3089B2A4600972046F9
:100950004B44B9440399FFF78DFF3D4442F6AA2367
:10096000F61BB5FBF3F203FB1255CEE7069B002BFB
:10097000F3D0099B42F6AA2204981B6820185B4416
:10098000B3FBF2F102FB1133294610F801C001312B
:100990000AF1010A00F803C001335745B1FBF2FC2C
:1009A00002FB1C11B3FBF2FC02FB1C33EDD8BB4471
:1009B000D3E7069BBBB34FF6E47342F6AA22049832
:1009C00058F8033004EB000C5B44B3FBF2F102FB7C
:1009D000113300218E4210D067190498013501317E
:1009E0003F5C0CF803700133B5FBF2F702FB1755BF
:1009F000B3FBF2F702FB1733ECE7059B5E4404EB15
:100A000003144FF6E47304F58034A66058F80330FD
:100A10001E4442F6AA23B6FBF3FB03FB1B664FF60C
:100A2000E07348F8036048460FB0BDE8F08F4FF020
:100A30000009F8E78B1E2DE9F04F9246DAB287B035
:100A40008046052A2ED801F6FE7100EB031300261E
:100A50004FF00B0B00EB011403F58033B1466568D2
:100A60009F680A2F1FD903ABCDF800B02A46214654
:100A70004046CDE90399CDF81390FFF7FBFEBDF892
:100A80000D300B339F420ED39DF80C201D44FF1AEE
:100A9000524542F6AA22B5FBF2F108BFF61802FB56
:100AA0001155DEE70026304607B0BDE8F08F0000A4
:100AB00030B5D2430144094D81420DD010F8013BBD
:100AC0005A40082342F30004013B2C4013F0FF037B
:100AD00084EA5202F6D1EFE7D04330BD2083B8ED6F
:100AE000F0B587B005460E46034601AA00F1100C8A
:100AF00017461868083353F8041C1446634503C4AA
:100B00002246F6D11868002210212060384605924E
:100B1000FFF7CEFFE98902463046FFF7C9FF07B06D
:100B2000F0BD2DE9F0438446476800200446251DAA
:100B3000BD4218D8DCF80060A7EB05083444B4F8CF
:100B400002E01FFA8EF9C1450CD8B4F80080884540
:100B500005D138B92E4401201660A3F800E064885E
:100B60002C44E4E70020BDE8F08373B500241E4662
:100B700002AB154601AA019423F8064DFFF7D1FFF9
:100B800018B986F0010002B070BDBDF80230012B2B
:100B900009BF019B20461B782B70F4E773B5002436
:100BA0001E4602AB154601AA019423F8064DFFF735
:100BB000B8FF18B986F0010002B070BDBDF8023070
:100BC000022B09BF019B20461B882B80F4E773B5DD
:100BD00000241E4602AB154601AA019423F8064DD7
:100BE000FFF79FFF18B986F0010002B070BDBDF895
:100BF0000230042B09BF019B20461B682B60F4E7E1
:100C000008B5FFF78EFF18B99DF8080080F00100C5
:100C100008BDF0B585B016461F4600229DF8284055
:100C200004AB039223F8062D03AA0094FFF7E8FF14
:100C3000054618B1039921B91CB93470284605B08E
:100C4000F0BDBDF80A4044B1BC4206D2224630464F
:100C500058F000F800233355F0E70025EEE773B5B0
:100C600004461E1D08461D4611466368A2689B1A6D
:100C70009E4215D8ADF80400ADF8065023680198DF
:100C80009850A3680433A36025B120682A4618440D
:100C900057F0E0FFA36801202B44A36002B070BDB1
:100CA0000020FBE70B4630B513F8042F00F10B04CE
:100CB0000271421D13F8015F02F8015B9442F9D101
:100CC000CB7A00F14B04C3720B4613F80C2F02735E
:100CD00000F10D0213F8015F02F8015BA242F9D1A5
:100CE00091F94B3080F84B3030BD00002DE9F041D8
:100CF0006722002133484FF47A7458F0A9F84FF472
:100D000080320021304858F0A3F8602200212F489B
:100D100058F09EF82E4B00222E4803F1C00143F8F4
:100D2000180C43E9052443E9022218338B42F6D11B
:100D30004FF439770725DFF8CC8000203E46264A5D
:100D4000264940F021FD07FB1580254C0CF0B8FF2B
:100D500041F23C42234B03FB0523234A15F1FF35A7
:100D6000E250F0D21C4A0020204940F00DFD2048FE
:100D700003F004F9184A1F491D4840F005FD1E48BC
:100D800002F098FF144A1D491B48BDE8F04140F0AD
:100D9000FBBCC5F107057543134EAB082C44184D39
:100DA0005D43104B25F0404503FB0545AC4206D0A2
:100DB000A4F53974266020460CF0D0FFF6E754F015
:100DC00089FC00BF286500249065002490650124FB
:100DD0004C1D002410FE090800000024090404082A
:100DE000F41D00241CFDFFFF54FE090875040408CF
:100DF0009C8004242F3E040888800324693C040856
:100E00008905DC293032002408B54FF4E13104486B
:100E10000DF09CFD0AF024FE024B186008BD00BFD7
:100E200094A30424E88004242DE9F04F40F6EC73E9
:100E300002F6EB748BB015464FF00008564EB4FB2B
:100E4000F3F4A4B2554B012C1B6838BF0124039363
:100E5000CDE9010140F6EC731FFA88F203FB08FEAE
:100E600075456DD9A5EB0E0940F6EB71894588BF34
:100E700099460023ADF81E2005AA0DF1240B099315
:100E8000039B9246ADF8204005934FF00103ADF867
:100E900022908DF818309DF808308DF81930019B9C
:100EA000CDF81A303E4B1F4694460833BCE8030089
:100EB000DC4543F8080C43F8041C6246F4D1DCF826
:100EC00000001860B9F1000F05D036494A46304697
:100ED000714457F0BFFE31465046FFF701FE0AAAA3
:100EE0002F4B42F8040DD4460833BCE80300944568
:100EF00043F8080C43F8041CE246F4D1DCF8000087
:100F00000121DFF89CC041F2130A186009F11403B3
:100F10000020DFF894E000930B461CF801BBBBF106
:100F2000000F10D1504533D800F80E304A1CACEBFE
:100F30000709084601230099494514D91146ECE7F1
:100F40004FF0000995E7514522D80133ACEB070972
:100F50004A1C01F80EB0DBB2FF2BECD100F80E30CA
:100F600010468A1CE6E741F21301884210D80E4968
:100F700043546AB10D4808F101080DF055FB0021FA
:100F80000A480DF011FB1FFA88F3A342FFF462AF89
:100F90000BB0BDE8F08F00BF283500240D0D0A0806
:100FA00014350024F0650124F85F032494A304247D
:100FB0002DE9F04F97B0894693464FF4803116AA39
:100FC0009A4600235E4D22F84A9D804608A8BDF847
:100FD00084700895CDE90913022348F20101DDE987
:100FE0002264FFF73CFE0246BAF1000F08D038B188
:100FF0005A46534648F2020108A8FFF730FE02465F
:10100000209B1B78002B50D04FF4805120980192E8
:1010100059F030F8019A62B1B0F5805F09D283B21D
:10102000209A48F2030108A8FFF719FE002840F0B3
:10103000848044B100262378002B7BD0204658F0D2
:10104000FFFE002E63D14FF48032002348F20101ED
:101050000BA80B950EACCDE90C2316AA042322F89D
:10106000463D0223FFF7FBFD364B224603F11806EF
:101070001868083353F8041C2546B34203C52C46B0
:10108000F6D1186899889B7928600BA8A98048F246
:101090000701AB711E23FFF7E2FD0D9A03214046C5
:1010A000FFF7C2FE17B0BDE8F08F77B1002AC0D0BD
:1010B00016AA022348F2040108A822F8487DFFF787
:1010C000CEFD0028B5D01EB90DE0EEB1002AB0D09B
:1010D00016AA042348F2050108A842F8446DFFF758
:1010E000BEFD0028A5D00FF015FA0023069006AA31
:1010F000079348F20601082308A8FFF7B0FD06464B
:10110000002896D07CB196E7002AECD191E7A02880
:10111000224648F2070128BFA02083B208A8FFF7A3
:101120009EFD00288FD0B9F1000F0A9A0CBF022152
:101130000321B4E7002EF6D185E7002FB8D1C2E72E
:10114000F065012419000A081FB500230392054A1F
:1011500000921A46CDE90133FFF72AFF05B05DF88A
:1011600004FB00BF050C0A082DE9F0411A4F804628
:101170003A78012A07D10025184A0321FFF7E4FF36
:101180002846BDE8F081164E357805BB154B1C6826
:10119000236820469B68984728B9134A0421404693
:1011A000FFF7D2FFECE7236802212046D3F89830FE
:1011B000984723680D492046D3F8B43098472368F0
:1011C0000B492046D3F8B8309847012333700223E7
:1011D00001253B70D4E700BFBC140024B50B0A08FE
:1011E00014700324500E0A08E30B0A08890304084C
:1011F000A10304082DE9F04FD5B00024894601234E
:101200000DF12E080CAD152106464246A8F8004007
:101210002C808DF82D400D94ADF83240FFF7BEFCC8
:1012200038B9AE4A01214846FFF78EFF55B0BDE8F8
:10123000F08F01232A4616213046FFF7AFFC002825
:10124000EFD023460DF12D0218213046FFF78DFC1B
:101250000028E6D000940DF132030DAA1721304684
:10126000FFF7CEFC06900028DBD0BDF832307E2B95
:10127000D7D89B4E27460AF0F3FB7F2230602146E9
:1012800034A857F0E5FD0594CDE90785E1B2306853
:1012900009F059FB0546B0B190F86B30092B12D01C
:1012A000079B1A88B0F866309A420CD1089B1A88BE
:1012B000B0F868309A4206D10D9B83B9059B2F4642
:1012C0000133DBB205930134052CDFD1059B012BE3
:1012D00002D1002F40F08F80824A0521A3E70DF153
:1012E0003C0A4FF0120800214246504657F0B0FD2C
:1012F000306818B900238DF8D030E4E74FF48073DC
:1013000000222946CDE90032CDE902A80623802239
:1013100009F0D7FE83460028ECD19AF81030002B54
:10132000E8D00DF138080423C8F8000029460190E0
:101330008022CDE902834FF4407300930623306886
:1013400009F0BFFE014610B18DF8D0B0BBE798F8A8
:10135000033098F802B00DF150084BEA032B7E23BE
:1013600040461A46099357F073FD099BCDF804B027
:1013700080222946CDE902839AF8103043F4407365
:1013800000930623306809F09CFE0028B2D198F83B
:1013900000000128AED903220023824212D218F89D
:1013A000021001330029A5D118F813100232A1F15F
:1013B000200CBCF15E0F9DD80DF1D00C9C440CF8B4
:1013C000011CEAE754AA00211A4402F8801C002BF1
:1013D0003FF479AF34A858F033FDBDF832300246FF
:1013E00098427FF470AF0D9934A857F001FC0028A3
:1013F0003FF464AF67E79DF82D3039463A4A8DF8DF
:10140000403000230F920FAA8DF84130344B1868FA
:1014100009F0D3FE002852D19DF84140002C4ED156
:101420000D9E324B324D334A1F609DF82D10002E19
:1014300008BF2A46BDF830002F4B304D304EDFF844
:10144000E48019700090BDF82E302E48CDE90112CD
:101450002D4A4FF4805157F0D5FF22469DF82D10AC
:10146000384609F0B6F9D0B190F84C20012A16D0D0
:1014700052BB264B026D7821CDE9013290F85E30E7
:10148000424614A80093069B002B14BF2B463346FC
:1014900057F0B8FF14A8FEF7D7FF002306938CB1CE
:1014A0001B48FEF7D1FF0023164A48460193194610
:1014B00000921A46CDE90233FFF77AFDB6E6154AE7
:1014C0000221B0E60124C8E7022A05D0124B1349D5
:1014D000032A18BF0B46CDE7114BCBE7340C0A08A3
:1014E000E8800424490C0A08400D0A08C0140024AE
:1014F0000D0C0A08080C0A08F05F0324445E0A0871
:10150000320C0A087C7003249B0C0A08180C0A0889
:1015100058030A086D0C0A08280C0A08200C0A084F
:10152000130C0A08DF0C0A08F0B50024C7B0064601
:101530000D46FE22214606A88DF81340ADF8144052
:10154000ADF8164057F084FC494B1B782BB9494A3B
:1015500001212846FFF7F8FD71E001230DF1130288
:1015600023213046FFF701FB0028F0D09DF813300F
:10157000012BECD8012305AA21213046FFF70EFBF1
:101580000028E4D0BDF81430002BE0D023460DF144
:10159000160236213046FFF701FB0028D7D0012381
:1015A00006AA202130460093FE23FFF732FB0028D5
:1015B000CDD0314B1E46E15CE2B2002941D001346E
:1015C000082CF8D12D4A0321C3E74FF439732C4975
:1015D000634358185B58BDF81610DB6911B9A2F5C2
:1015E000804291B298473AE00123FE20FD2206A9ED
:1015F00033559DF81360234B1E55234B00FB0430DD
:1016000058F006FDBDF81420204B4FF4805123F80C
:1016100014201F4A1F4B002E08BF13461E4E1F4AA0
:1016200000933046234657F0EDFE002328461A4625
:101630001946CDE90233CDE90063FFF7B9FC47B0A5
:10164000F0BD9DF81330002BBFD11823144806A914
:101650006343C2581844176ABDF81420B8470030D5
:1016600018BF01200028BFD10E4A042171E700BF36
:101670000C70032440000A082C1D00249A000A085C
:10168000F41D00247C8003242B1500241C1D002441
:1016900038000A083C000A087C70032479000A0814
:1016A000341D00245D000A082DE9F047944F8AB0EC
:1016B00000230446D7F800800D468DF816308DF8CB
:1016C0001730ADF81A30CDE90833B8F1000F07D163
:1016D0008C4A01212846FFF737FD0AB0BDE8F087A4
:1016E00001230DF116021A21FFF73FFA0028EFD06F
:1016F0009DF81630022BEBD801230DF117021921AA
:101700002046FFF732FA0028E2D0012308AA06217A
:101710002046FFF75CFA0028DAD0089BB3F57A4F31
:10172000D6D89DF81620022A02D1B3F5805FCFD813
:1017300000260DF11A0309AA052100962046FFF79D
:101740005FFA0028C4D09DF816309DF81790002B42
:101750006ED18DF818308DF81930ADF81C30ADF819
:101760001E30B9F1000F53D1012306AA1B212046D8
:10177000FFF7FBF900284BD001230DF119021C21C2
:101780002046FFF7F2F9002842D0012307AA1D21C5
:101790002046FFF703FA00283AD001230DF11E027C
:1017A0001E212046FFF7FAF990B39DF81820564BFA
:1017B0001606BDF81C101868BDF81E409DF81930BB
:1017C00028D5089E009141460396504ECDE901462A
:1017D00009F077FC002840F09080BDF820400026FA
:1017E0009DF817204A4F4FF480519DF81630009213
:1017F00038460196474A57F005FE2346434A31468C
:101800002846CDE90266CDE90076FFF7D1FB64E713
:10181000414A5EE7BDF81A60009141460396099E71
:10182000CDE9014609F0A1FC002866D10446D6E7BF
:10183000012BDFF8F4A014BF4FF003084FF00208AB
:1018400032469AF80010386808F0C3FF044638B1F1
:1018500090F84C30434503D190F85E304B4537D07B
:1018600016B12E4A022135E70126E9E70122CDE92A
:101870000032264B224609F007FB3BE0646E0898D5
:1018800024EAE4748442A8BF0446A4B2002CA6D083
:101890009DF817700EF03EFE009404211B4B3A4653
:1018A000CDE902061E48FEF764FE98E7012A099B6F
:1018B000BDF81A6005D1CDE90062224609F0B7FAF9
:1018C000B2E70122CDE90062224609F0CEFAABE789
:1018D0000D4B9DF8162018689DF917303968002BBC
:1018E000E4DA012A089BC1D1CDE90032074B224638
:1018F00009F0ACFA06460028C0D00A4A0421E9E6FD
:10190000C0140024A0FE0908E8800424F065022425
:101910007C7003242CFF0908CBFE0908F2FE09089D
:101920009065002418FF0908F05F03242DE9F041B9
:10193000344BADF5EA6D0125022402934FF480513A
:10194000314B324E324FDFF8F48001930095314B2A
:10195000314A324857F056FDA0B2FEF7E3FD68B1B8
:10196000002D14BF33463B464246102100940EA87A
:10197000002557F047FD0EA8FEF766FD0134562CF2
:10198000EAD1274B274C1B78274D2848002B18BF3E
:10199000254602F0A9FA18B1244802F0C5FA00B9A8
:1019A000214C234B12A81F4A19681F4B002908BF5E
:1019B0001A46204BD96D0D91D96C0C91D96B0B91B6
:1019C000D96A0A91D9690991D9680891996D0791E5
:1019D000996C0691996B0591996A049199690391A3
:1019E0004FF4E1619B680094CDE901232B46124A34
:1019F00057F008FD12A8FEF727FD0DF5EA6DBDE8CA
:101A0000F08100BF65010A08A6010A08445E0A08C1
:101A1000320C0A08B5000A08BB000A087C700324CF
:101A20000C700324080C0A080D0C0A089C8004247E
:101A3000C014002490650124D1010A08C9010A08D4
:101A40002DE9F04FEDB040F6B833044625220E469E
:101A50000EA80021079357F0FBF9012307AA3221B2
:101A60002046FFF7B4F838B9674A01213046FFF73E
:101A70006BFB6DB0BDE8F08F079B47F2CC42643B37
:101A80009342F1D84FF0000825230EAA2046CDF846
:101A900000801946FFF7BDF80028E5D03046FFF773
:101AA00063FB05460028E4D0584F9DF838103C6889
:101AB000236889B10EA92BA8D3F864900EF0A7FB78
:101AC00042462BA92046C84704462BA80EF054FBDB
:101AD0003CB94F4A0421C9E72046DB6D98470446CC
:101AE000F6E7DFF8408100244A4888F80040FEF716
:101AF000ABFC0EF0FDFC079BDFF82C9100EB030B19
:101B0000CDF814800EF0F4FCABEB0000D7F80080A9
:101B10000028D8F8003001DD0F2C11D9DB6E4046CB
:101B200098473D48FEF790FC0023059A3046019304
:101B3000194600921A46CDE90233FFF739FA98E7C1
:101B400018A85B6F4146984718A802F0CDF958B91C
:101B5000D8F8003040461B69984705200EF0E6FC97
:101B600018A802F064F9CDE72C4B18A908A8002D9D
:101B700018BF4B461D4602F09DF9089B18A8049318
:101B800002F052FA804648B118A90BA802F01AFADE
:101B9000DDF82CA018A802F069F901E0CA46F9E7BF
:101BA000049B4FF482711E4A00932B46CDE901A09D
:101BB0002BA857F027FCB8F1000F02D00BA80EF0AD
:101BC000DBFA08A80EF0D8FA2BA8FEF73DFC0CE0D3
:101BD000B8F1000F02D00BA80EF0CEFA08A80EF054
:101BE000CBFA18A802F023F909E0013418A802F092
:101BF0001EF90025E4B285E72BA80EF0BDFA53F0DC
:101C000069FDEBE7EDE700BF5B030A08500E0A0829
:101C100074030A088B030A0858030A08320C0A08DE
:101C200098030A087C700324445E0A087FB50446C2
:101C300015480E46154602F057F928B9204602F01D
:101C400039F8204604B070BD0F4802F06DF9002845
:101C5000F4D001A832460C4902F0E2FA01A802F0E1
:101C6000C9FB40B12A4601A9204602F0F7FB01A8B2
:101C700002F074FBE5E7204602F01CF8F7E701A844
:101C800002F06CFB53F026FD9C8004242DE9F0410A
:101C90009EB005460C46904614AE252200210AA8A7
:101CA00057F0D6F825220021304657F0D1F8012709
:101CB00025230AAA009728461946FEF7AAFF38B935
:101CC0003B4A01212046FFF73FFA1EB0BDE8F081F4
:101CD00000972523324626212846FEF79AFF002842
:101CE000EED007A832460AA9FFF7A0FF07A802F026
:101CF00037F828B92F4A05212046FFF725FA4EE08C
:101D0000B8F1000F3FD000230DF11502272128461E
:101D10008DF815300693ADF816300123FEF725FF38
:101D200070B39DF81530012B2AD8012306AA05218E
:101D3000284600930DF11603FEF762FF00B39DF8ED
:101D4000153007A8BDF81620B3FA83F306995B098E
:101D500001F0F0FFA0B10025174F0AAB174A4FF46E
:101D600080510096384657F04DFB00212B46144A0F
:101D70002046CDE90211CDE90071FFF719F90EE017
:101D8000104A0421B8E74FF47A420D4907A801F040
:101D9000FFFF002801DA0C4AF3E785B2DCE707A869
:101DA00001F062FF91E707A801F05EFF53F092FC9B
:101DB0005FFF090883FF09087C700324E8FF090816
:101DC000F0650224A9FF0908C9FF09082DE9F041BF
:101DD00000248EB0214B5FFA84F8E35C002B38D0EE
:101DE0001F4E204B204F002C18BF1E46304608F0D7
:101DF0008DFB70B3314609A808F0C8FB00239DF89D
:101E00002C500DF12D01CDF81A300DF11A00CDF83E
:101E10001E300A9B8DF81950002BB4BF23F060428E
:101E2000C3F30A02DB0F05922A468DF818300635F7
:101E300056F010FF0EF06EFB002302904246039313
:101E40000321009505AB3846FEF793FBCEE701244E
:101E5000C0E7002CFBD00EB0BDE8F081F25F032498
:101E60002C8904241C8D0424906500242DE9F04F56
:101E7000924AD5B000230446CDE90721ADF81830C9
:101E8000994217D9C81A03287AD9D6180020834254
:101E900009D915183788B5F800C0BC4570D06D88D1
:101EA00004352844F3E704337088CD1AA84267D874
:101EB0000344E5E764D1012306AA07A81946FEF703
:101EC0006DFE064600285BD0BDF818500021DFF8F3
:101ED000F8E140F21D68AF1EDFF8F091DFF8F0A1E5
:101EE000DDE907C3081D984200F2A3800CEB010254
:101EF000A3EB000B5188594542D81288012A21D002
:101F0000302F3DD8DFE807F0193C3C3C3C3C3C3CE2
:101F100020243C293C3C2F3C343F464A3C4C4E500C
:101F2000575E3C3C3C3C3C3C3C3C3C3C3C3C626763
:101F30006E71767D8183898B8E00022A02D02E3AC3
:101F4000032A1DD80144CDE7042AFBD00E3AF7E757
:101F5000032AF7D0122A13D1F4E7153A032A8CBFCB
:101F60000022012213E01F2AECD0343A012AE8E7CC
:101F7000203A92B2162A03D82AFA02F2D207E1D402
:101F80004F4A012156E2222A14BF00220122002AD0
:101F9000D8D1F5E7322AD5D0252ADCE7242AF3E781
:101FA000332AF1E7252AEFE7A2F1250BBBF1010F58
:101FB000C8D9372ACFE7283A92B2102AE0D829FAAE
:101FC00002F2DBE722F00402282AC4E7032AB9D090
:101FD000053A062AB5E7033A92B20A2AD0D828FA77
:101FE00002F2CBE7043A012AB9E7142AC8D82EFA3C
:101FF00002F2C3E7A2F1190BBBF1050FA2D9053A12
:10200000B4E7222A9ED0052AA5E7253AEBE7A2F1FC
:10201000250BBBF1020FF6D894E7282AB4E722F08B
:102020000202D1E722F0020BBBF1280F8AD02D2A41
:1020300091E79942A4D16B1E312B01F2E182DFE8D6
:1020400013F032004900DF0ADF0ADF0ADF0ADF0A85
:10205000DF0ADF0A09019701140253025A026A02D9
:102060007202D602FD02410377037C032B04650450
:10207000D3045905D6058806DF0ADF0ADF0ADF0A1E
:10208000DF0ADF0ADF0ADF0ADF0ADF0ADF0ADF0A08
:10209000C506DB07AD08F308A209A8091E0A250A30
:1020A000270A270A270AFFF741FC0023054A019364
:1020B000CDE9023300921A461946C7E09480032402
:1020C00030040A087C700324280018000B0001006B
:1020D0000B004000002301254FF4805202218DF8AF
:1020E000243007A88DF83030ADF8502009AA279386
:1020F0002B468DF83C50FEF738FD08B9A34A40E75F
:102100009DF82430023B052BF8D82B460CAA312130
:1021100007A8FEF72AFD0028F0D02B4614AA2E218E
:1021200007A8FEF73BFD0028E8D0BDF85030013B82
:102130009BB2B3F57A4FE1D22B460FAA2F2107A805
:10214000FEF713FD0028D9D09DF83C30012BD5D8DF
:102150002B4627AA302107A8FEF739FD0028CDD04D
:102160008B4B279A9A42C9D80EF0C2F9279B894E09
:10217000C518894FDFF85C829DF8302030469DF805
:102180002410FEF757FC00283BD09DF83C309DF80A
:10219000302000339DF824107E4818BF012301939E
:1021A000BDF8503000937D4BFEF77BFB9DF83C5013
:1021B00006467B4A7B489DF83010B6B2002D18BF0A
:1021C0000246744D9DF824307748CDE90012774AD5
:1021D0004FF4805157F016F99DF830209DF82410E7
:1021E0002846FEF727FC9DF824104FF6FF720239AF
:1021F0009042CBB228BF1046052B80B219D90023DC
:102200001CE00EF075F9281A0028BEDDFEF792FAE0
:10221000FFF7DCFDFEF7E4F93B780BB1FEF724FA9B
:1022200098F800300BB1FEF7E5FA01200EF07EF9C8
:10223000A2E705EB011505F58035EB68002101905B
:10224000CDE90231584B00933346544A2046FEF7FD
:10225000AFFE4DE100230822012504218DF8243032
:1022600007A88DF8302009AA8DF83C3027932B461B
:102270008DF85050FEF779FC08B94D4A81E69DF87B
:102280002430032BF9D82B4627AA0E2107A8FEF7E6
:102290009EFC0028F1D0279B464A323B9342ECD863
:1022A0002B460CAA0F2107A8FEF75FFC0028E4D0FC
:1022B0009DF83030073B012BDFD82B460FAA1021A9
:1022C00007A8FEF752FC0028D7D09DF83C30022B1F
:1022D000D3D82B4614AA112107A8FEF746FC0028E4
:1022E000CBD09DF85020531E012BC6D89DF830301E
:1022F000072B41F0A5819DF83C30002B41F08481F3
:1023000040F2133140F23333022A14BF0A461A4610
:1023100001F084B99DF83C30002B41F09E8140F2E1
:10232000334140F2134301F075B940F2314140F2BC
:10233000114301F06FB920480CF08CF81F4A0121BD
:102340009DF82430184DD154279A00921C4A4FF41E
:102350008051284657F056F80023CDE90233CDE9E5
:102360000053A8E61748E7E71748E5E71748E3E70B
:10237000002314AA032107A88DF8503027930123C6
:10238000FEF7F3FB40BB124AFBE500BF50040A080E
:10239000E0930400906500240C700324F06502248F
:1023A0000D0C0A08080C0A087C70032468040A084B
:1023B000CB040A08CE083D00B49E04248480032484
:1023C000E6040A08EC9F042424A104245CA204244B
:1023D00001050A08147003249DF85030012BD2D84F
:1023E000012327AA122107A8FEF7F1FB0028CAD073
:1023F0002799954B994208D0944B994205D0944B1C
:10240000994202D0934B9942BDD19DF850208F4BF9
:10241000A2B9994208D08E4B994205D08A4B8D4A79
:1024200099420CBF194611468B4808F039F890B90B
:102430008A4A04212046FEF787FE59E0994208D0D7
:10244000834B994205D0804B824A99420CBF194672
:1024500011468348E9E7834A01219DF85030824DB7
:10246000D154279A0092814A71E7DFF81082002543
:102470007D4F09F0F5FADFF84092DFF840A2DFF86F
:1024800040B2C8F800007A483D70FDF7DDFFE9B2C0
:10249000D8F8000008F057FAD0B190F86B30092B4B
:1024A00016D090F871305A46B4210393B0F86830D2
:1024B0000293B0F8663027A8CDE90053002E0CBF78
:1024C0004B465346002656F09DFF27A8FDF7BCFF5C
:1024D0000135052DDBD16748FDF7B6FF0023CDE9B7
:1024E0000233CDE90073E6E5214607A8FEF782FE38
:1024F00055B0BDE8F08F604B196851B15F4B18685B
:1025000008F09BFA034620B901905D4ACDE902002C
:10251000D0E55C4A8DE70023574A136001935A4A7D
:10252000CDE90233C6E5594D2B78022B02D1584A2A
:1025300003217FE72122002114A8012656F088FC00
:102540004022002127A856F083FC0096212314AADC
:10255000342107A8FEF75DFB08B94E4A11E5009645
:10256000402327AA352107A8FEF753FB0028F4D003
:10257000092327AA14A948482E700AF0ADFC21228D
:102580000021074614A856F063FC4022002127A82A
:1025900056F05EFCDFF800810DF0AAFF00F5EA4678
:1025A000303640460AF056FB03280FD1032F3B4F2D
:1025B00004D039480AF04EFB032810D10123384AD1
:1025C0003B700023CDE90233019373E50DF090FFDA
:1025D000301A0028EADD32200DF0A8FFE1E70026DE
:1025E0002D483E700AF0C7FA2E702E4A21E70025CA
:1025F0002D4E2E4FDFF8BC80AB5D7BB118206843B9
:10260000C35938449B6A98474FF43970684350F86F
:10261000083040445B6A98470023AB550135082DCC
:10262000EAD11D480AF0A7FA00231C4A1370174A82
:10263000137001931E4ACDE902333BE5214607A8FA
:10264000FEF772FF54E700BF48E8010090D0030096
:1026500020A1070040420F002C89042423050A080A
:102660001C8D0424F25F03247C70032445050A08B2
:102670008B030A0858030A08C0140024E8800424C5
:10268000D3050A08E2050A08FA050A08BC14002462
:10269000B50B0A080C060A08249704240C700324BE
:1026A00028060A0857060A082C1D0024341D002499
:1026B0006F060A08F41D0024320C0A08445E0A085A
:1026C00096050A08002554AA0123222102F8B45DC8
:1026D00007A8FEF74AFA48B39DF89C30072B25D887
:1026E0009B4EF25C12B318229A4903EB430053430A
:1026F00001EBC000CB589B6A98479DF89C004FF4B3
:102700003973434394481A581844526A90479DF8C5
:102710009C30924A4FF48051F554914E304656F019
:1027200071FECDE90255CDE90065ECE08D4A28E463
:10273000214607A8FFF784F9DAE6012512220021D5
:102740000FA856F085FB009512230FAA242107A895
:10275000FEF75FFA08B9844A13E42046FEF704FD49
:1027600000283FF4C5AE814B0FA927A81D682B6830
:102770009E6E0DF04CFD002227A92846B047064664
:1027800027A80DF0F9FC0EB9794A52E60DF0B0FE1B
:1027900000F51C5714A8103701F0F0FB0DF0A8FE4F
:1027A000381A2B6800282CDD5B6F294627A898472C
:1027B00027A801F099FB0646002830D027A90CA8CD
:1027C00001F078FB06E027A801F031FB14A801F026
:1027D0002EFB5BE00FA909A80DF019FD09A90CA8B3
:1027E0000DF0E2FD064609A80DF0C6FC0CA80DF0A0
:1027F000C3FCA6B127A914A8FEF754FA27A801F034
:1028000016FB2B682846DB6E984713E009A80DF0ED
:10281000B3FC002ED7D00CA80DF0AEFCD3E72B688C
:1028200028461B69984705200DF080FE27A801F077
:10283000FEFAB3E714A801F057FB28B94D4A04216A
:102840002046FEF781FC1AE014A801F057FC00288E
:10285000F4D0434D14A94848FEF724FA0FAB474A79
:102860004FF48051284656F0CDFD002320461A46ED
:102870001946CDE90233CDE90053FEF799FB14A8C0
:1028800001F0D5FA34E627A80DF076FC52F022FFCD
:1028900099E7BEE797E799E7374801F025FB30B1A4
:1028A000354801F041FB10B1334801F0D1FA27A8B7
:1028B000002501F063FB27A92F48FEF7F3F927A8AD
:1028C00001F0B5FA27A801F0F5F92D4B289A27A8B1
:1028D0005A60299A9A6001F0C7F92A4B2A4A1D705A
:1028E0004FF0FF331360294A1360204B18680368C8
:1028F000DB689847264B1D70264B1D70264B0195B3
:102900000093CDE902552B46FFF7D5BB00252046A5
:102910002795ADF85050FEF727FC00283FF4E8ADAE
:10292000009514AB27AA332107A8FEF769F9002800
:102930003FF4DEAD4FF0FF3313490B60279B002BB4
:102940003FD0BDF85020062A2AD0144AFFF719BB01
:102950002C1D0024341D0024F41D002483060A08C5
:102960007C70032494060A08A9060A08500E0A0877
:10297000BD060A08DC060A089C800424F5060A083D
:1029800088800324F15F032404000024080000244D
:1029900014700324BC14002417070A0843070A080C
:1029A000581E5A1D0A262B4610F8015FA5F1300764
:1029B000092FCAD806FB03539042A3F13003F3D189
:1029C0000B60944B022118680368D3F8983098473D
:1029D000914B2799914A002918BF1A460023CDE947
:1029E00002330193FFF766BB2522002114A856F09D
:1029F0002FFA8B4801F078FA10B98A4AFFF7C1BA6A
:102A0000874801F091FA0028F7D0002314AA07A8FC
:102A1000009325231946FEF7FCF80028EDD09DF819
:102A2000503033B114A97E4801F086FB28B97E4AA4
:102A3000FFE47B4801F070FBF8E77C4F0025784EFF
:102A4000DFF81882DFF8189279483D70FDF7FCFC3A
:102A5000304601F07FFBA8421ADD0FA82A46314616
:102A6000002D0CBFC246CA4601F086FB0FA801F03C
:102A7000B3FC009053466F4A502127A856F0C2FC81
:102A800027A8FDF7E1FC0FA8013501F067FCDFE79F
:102A90000025634EDFF8C481DFF8C4916648FDF776
:102AA000D3FC304601F0C4FBA8427FF714AD0FA859
:102AB0002A463146002D0CBFC246CA4601F0D8FB5B
:102AC0000FA801F01FF9009053465A4A502127A839
:102AD00056F098FC27A8FDF7B7FC0FA8013501F0C8
:102AE000C3F8DEE70FA801F039FCCFE60FA801F02C
:102AF000BBF8CBE62522002114A8012556F0A8F941
:102B00002522002127A856F0A3F92523009514AA11
:102B1000194607A88DF82450FEF77BF810B9474AEC
:102B2000FFF72FBA0095252327AA262107A8FEF72D
:102B300070F80028F3D02B4609AA372107A8FEF722
:102B400014F80028EBD09DF82430012BE7D80CA80E
:102B500027AA14A9FFF76AF80CA801F001F928B90F
:102B6000374A04212046FEF7EFFA3AE09DF8243078
:102B70000CA813B101F044F901E001F052F900286A
:102B8000EED09DF824302F4D2F4EF3B10D9B6B608E
:102B90000E9BAB6001239DF824103370234D2B4A0C
:102BA0002B4B2846002918BF13462A4A4FF4805160
:102BB00056F028FC002320461A461946CDE9023378
:102BC000CDE90053FEF7F4F90BE00FA801F072F81D
:102BD000109B0FA86B60119BAB6001F045F80023C0
:102BE000D9E70CA801F040F882E40CA87FE70025A3
:102BF000012327AA282107A8ADF89C508DF8305052
:102C00008DF83C508DF85050FDF7C8FF50BB124A6C
:102C1000FFF7B7B9500E0A08C1030A08FA030A08F9
:102C20009C80042462070A087C070A087C7003243D
:102C30009B070A08A9070A08B0070A08C6070A0876
:102C4000E7070A0888800324F15F0324080C0A08B8
:102C50000D0C0A0809080A081B080A08445E0A083D
:102C6000320C0A0801230CAA292107A8FDF77DFFD1
:102C70000028CCD09DF83030012BC8D801230FAAF2
:102C80002B2107A8FDF771FF0028C0D09DF83C302C
:102C9000022BBCD82B4614AA382107A8FDF765FFE4
:102CA0000028B4D09DF85030012BB0D8BDF89C500E
:102CB0002846FDF737FC0028A9D09DF83030012BBD
:102CC00003D19DF83C20002AA1D1A84A515D0129D9
:102CD00001D9A74A2CE40121E8B251556BBB9DF8FC
:102CE0003C308B4227D0022B14BF002103210DF072
:102CF00061FCBDF89C0001229E4B9F4D1A549DF82B
:102D000030309A1A534253419C4A1354C0B20DF0CA
:102D100049FD00309A4A18BF0120BDF89C309949FE
:102D2000D0549DF83000984A002818BF0A460092F7
:102D3000964AFFF70CBB0221D9E70DF03BFC9DF84A
:102D400050109DF89C00003118BF01210DF0B6FC19
:102D5000CFE70025012327AA282107A8ADF89C501A
:102D60008DF85050FDF71AFF10B9894AFFF709B9DD
:102D7000012314AA2C2107A8FDF7F7FE0028F4D0A0
:102D80009DF85070032FF0D8BDF89C603046FDF7D9
:102D9000C9FB0028E9D0774B9B5D002BE5D07D4B2C
:102DA000F0B29F550DF0FEFC0030BDF89C30744A27
:102DB0004FF4805118BF01206F4ED05430469DF81B
:102DC00050200092744A56F01DFBAAE40023FF2213
:102DD000032107A88DF814308DF815308DF81630C2
:102DE0008DF8172005AAADF81A300C930F931493A1
:102DF000ADF824300123FDF7B8FE10B9674AFFF79C
:102E0000C0B89DF81430012BF8D801230DF11A0237
:102E10000A2107A8FDF7C2FE0028EFD001230CAA63
:102E2000072107A8FDF7D3FE0028E7D00C9B5C4ADA
:102E3000A3F57A739342E1D801230DF1150208211D
:102E400007A8FDF792FE0028D8D09DF81530032B77
:102E5000D4D801230DF11602092107A8FDF785FE3C
:102E60000028CBD09DF81630012BC7D801230DF1D7
:102E700017020B2107A8FDF778FE0028BED001231A
:102E80000FAA062107A8FDF7A2FE0028B6D000234E
:102E900014AA052107A8009309ABFDF7B1FE00288D
:102EA000ACD0BDF824700F9B9F4238BF1F46B7F5CA
:102EB0007A4F58D89DF81480BDF81A50B8F1000F19
:102EC000284614BF03260226FDF72CFB00284AD013
:102ED000264B5A5D0AB1964245D15E550025314BCD
:102EE000314EB8F1000F08BF1E4633683046DB6A2A
:102EF000984701219DF81A000DF05CFB01219DF817
:102F00001A000DF0DBFB33680C993046D3F81C80B7
:102F10009DF816309DF81520B3FA83F327918DF8AC
:102F2000A0205B098DF8A2508DF8A13027AB93E863
:102F30000600C047DFF8788029469DF81A000DF09A
:102F4000BDFBBD4236D0BDF82420304633689542E3
:102F50009B6836BF149A9DF81710515D984708F882
:102F600005000135EDE7114AFFF7E2BA28650024B4
:102F700045080A08157003247C700324C414002437
:102F80005381042423040A082A040A085F080A0853
:102F900079080A08EC800424A3080A08BB080A0878
:102FA00098ECFA02F49604240C970424D0080A083A
:102FB000F065022401219DF81A000DF07FFB3368B3
:102FC0003046A34E1B6A98479DF815209DF8143093
:102FD0004FF48051029230460C9A0192BDF81A20AB
:102FE00000929C4A56F00EFA0021ABB2CDE90211D4
:102FF000CDE90061FFF729B9002301250DF1170282
:1030000003218DF8173007A88DF81A300F93149309
:103010002793ADF830302B468DF82450FDF7A5FDF1
:1030200010B98D4AFEF7ADBF9DF81730012BF8D8C7
:103030002B460DF11A020C2107A8FDF796FD00287A
:10304000EFD09DF81A30083B6F2BEAD82B460FAA19
:10305000072107A8FDF7BBFD0028E2D00F9B7F4AA0
:10306000934202D07E4A9342DBD1012314AA062167
:1030700007A8FDF7ACFD0028D3D0149B202BD0D897
:10308000012309AA0D2107A8FDF76FFD0028C8D06C
:103090009DF82430012BC4D8002327AA052107A8B6
:1030A00000930CABFDF7ACFD05460028B9D0BDF888
:1030B0003030202BB5D89DF817206A4B6A4E002A75
:1030C00008BF1E4633683046DB69984733680F995E
:1030D00030469B6A9847BDF830300BB333683046B2
:1030E0009DF81A10DB6A98473368BDF830203046E7
:1030F000DB6C27999847BDF83030984202D05B4A84
:10310000FFF797B93368149A1B6B22B19DF82450CE
:10311000B5FA85F56D092946304698470028EED165
:10312000149A9DF81A10002A36D033683046DFF81A
:103130006C919D6B0123A847002533681FFA85F821
:1031400030461B694746984718B1149B01354345E3
:1031500018D8149BBB421CD10F9A4FF480513C4DA0
:1031600001929DF81A2028469DF817300092404A97
:1031700056F048F900214346CDE90211CDE900514E
:10318000FFF763B8336830465B69984709F8080071
:10319000D3E7384AFFF74DB99046DDE700230FAA81
:1031A000042107A88DF83C302793ADF85030012357
:1031B000FDF7DBFC10B9304AFEF7E3BE9DF83C306A
:1031C000032BF8D82D4AD35C002BF4D0012327AA77
:1031D000052107A8009314ABFDF712FD0028EAD0E3
:1031E0009DF83C302799BDF85020032B13D8DFE819
:1031F00003F0020C0E1022480BF016FABDF8503006
:1032000083420AD01F4AFFF714B91F48F4E71F484A
:10321000F2E71F48F0E70020F0E79DF83C300C4D46
:1032200000901C4AFFF793B800230DF11A02032106
:1032300007A88DF81A308DF824300F931493ADF849
:1032400030300123FDF791FC50BB134AFEF799BEC5
:103250007C700324FB080A0833090A08A0860100D1
:10326000801A0600CC970424449C04244B090A08C5
:1032700089090A085C090A08C7090A088480032426
:10328000B49E0424F2090A08EC9F042424A1042417
:103290005CA204240C0A0A08250A0A08F065022424
:1032A0009DF81A30012BD0D8A74AD35C002BCCD084
:1032B00001230FAA132107A8FDF789FC0028C4D019
:1032C000012309AA142107A8FDF74FFC0028BCD050
:1032D0009DF82420012AB8D80F9B002A36D1B3F5D7
:1032E000006FB2D2012314AA052107A800930CABEA
:1032F000FDF786FC0028A8D0BDF830000828A4D827
:103300009DF824200F9B22B323F0604343F0004339
:103310008E4DC2B214998DF8A420CDE92753002315
:10332000CDF8A530CDF8A93020B119B10DF1A50027
:1033300055F090FC9DF81A3027A96BB9844807F026
:10334000B7F800280ADC834AFFF773B8B3F1005FCF
:10335000C7E7C3F30A03DBE77F48F0E79DF8245093
:103360007E4A7F480F99002D18BF02469DF81A30FB
:103370007C4DCDE900127C4A4FF48051284656F02E
:1033800041F8FEF7E9BF214607A8FEF78DF9FFF7E0
:10339000AFB800230FAA222107A88DF83C3027934D
:1033A000ADF850300123FDF7E0FB10B96F4AFEF78E
:1033B000E8BD9DF83C30072BF8D86D4AD35C002B54
:1033C000F4D0012327AA052107A8009314ABFDF729
:1033D00017FC0028EAD09DF83C20664B11B29B5C9C
:1033E000A3B91823644D01EB410027995343BDF85D
:1033F000502005EBC000EB585B6898470546BDF8C8
:103400005030AB422AD05D4AFFF713B84FF43976FB
:103410005B4F5C4DC1EBC11106FB02F035F8122089
:10342000C3593844584DDB6A05EB4101984798B1C0
:103430009DF83C00BDF8502070432799C35938448B
:103440005B68984705469DF83C007043C359384473
:103450001B6B98470028D2D10025D0E7414E4FF48E
:1034600080519DF83C3000953046484A55F0CAFFDF
:103470000023CDE90233CDE90063FEF71CBE002234
:10348000214607A8FEF702FCFFF732B80122F7E752
:103490000027012314AA282107A8ADF850708DF841
:1034A0003C702797FDF77AFB40B1BDF8506030467D
:1034B000FDF738F810B1364B9B5D13B9354AFEF76E
:1034C00060BD302D19D1F0B2334D0DF06BF90030E5
:1034D000244E4FF4805118BF0120BDF850302F4AC0
:1034E0002870304655F08EFF01232A463946CDE933
:1034F0000277CDE90067FEF7A9BE01230FAA2A21B2
:1035000007A8FDF732FB58B19DF83C30012B07D8D6
:10351000BDF85030224AD35C2BB9224AFFF708B8D5
:10352000214AFEF72EBD322D44D1012327AA2D2199
:1035300007A8FDF74CFB20B1279B1C4A013B934297
:1035400038D91B4AFEF71DBDF25F0324FCFD0908B4
:103550002C8904243F0A0A081C8D04240D0C0A0837
:10356000080C0A087C7003245D0A0A088B0A0A0802
:103570002C1D00247C800324341D0024A60A0A0884
:10358000F41D00241C1D00242B150024C00A0A0869
:1035900015700324DE0A0A08F06502240C0B0A08E1
:1035A000C41400242D0B0A081A0B0A083F420F000E
:1035B000550B0A089DF83C109DF85000003118BFCB
:1035C00001210DF07BF8322D0BD127980CF0B0FFC4
:1035D0009DF83C109DF85000B1FA81F149090DF0B9
:1035E0006DF823499DF83C00224ABDF85030002870
:1035F00018BF0A462799204DCDE900211F4ABBE696
:103600001F4A0221FEF716BF012B1FD140F23131B4
:1036100040F21133022A0CBF0A461A469DF82430A4
:103620002799032B3EF68AAE01A050F823F000BF85
:103630003723040865230408692304086D2304085C
:10364000082B3EF467AE40F21342E7E7022BFAD1B3
:1036500040F2323140F21233DCE7012B3EF465AE2A
:10366000022BF0D140F2124140F23243FEF74CBE41
:10367000080C0A080D0C0A087C700324710B0A0858
:103680009C0B0A082DE9F04F6D4D87B06D480BF08B
:1036900041F8002800F0BD806A480BF0ADF8041E28
:1036A000C0F2B78068490A6840F0A880002AEDD0CF
:1036B0002346DFF898E1A04623E0F818824226D39B
:1036C00007F1FF3C1B1B204654FA8CFC2B4484451D
:1036D0000BD0B0F5805F1AD20130013600EB0E043A
:1036E00013F8009004F8019CF1E7FF2F07D0B242D5
:1036F00005D9B0F5805F0AD200F80E80013004468B
:103700003346934206D25F5D5E1C002FD5D1002365
:103710000B60BBE70023132C0B60B7D94B4B01AAFE
:1037200003F1100792461868083353F8041C164634
:10373000BB4203C63246F6D11868042244493060C1
:10374000504655F055FADDF80A80E8B99DF8083082
:10375000012B19D19DF80930012B15D1BDF810901E
:10376000B9F1000F10D0BDF80E60B1450CD9BDF80D
:103770001270A4F11400874206D136495046FDF775
:10378000AFF9059B984207D0334A01214046FDF727
:10379000DBFCFCF715FE79E7304C36B9FCF710FE80
:1037A0002F4BC4F80080A3F80090236843450FD145
:1037B0002B4B1B884B450BD12A4C2388B34207D196
:1037C000DFF8B4B0DBF800A0CAF580339F4201D91E
:1037D000254ADAE7013625481E493A46B6B2504432
:1037E00055F038FA07EB0A01B1452680CBF80010F6
:1037F0007FF44CAF4046FEF739FBCAE741F21303B2
:103800009A4202D900230B60C3E7531CAC540B60EF
:103810003CE7FCF78FFFFEF7D9FAFCF7E1FE144B0B
:103820001B780BB1FCF720FF124B1B7823B107B0BC
:10383000BDE8F04FFCF7DEBF07B0BDE8F08F00BF7A
:103840001455002494A30424F45F03241445002495
:103850000D0D0A08284500244C0D0A089480042404
:103860009A80042498800424610D0A08948003241B
:103870000C7003241470032410700324014809F011
:1038800043B900BF24970424014809F03DB900BFA3
:1038900024970424704710B504465C213EF002FAD8
:1038A000204610BD0B4A1F2102600022C0E90921F9
:1038B000C0E90B2280F8342080F835200264A0F89B
:1038C000442080F84620C0E90E22C0E91222C0E957
:1038D00015227047900D0A0800231F22036380F809
:1038E0003530036480F84630C0E90A23C0E90E335E
:1038F000C0E91233C0E9153370478B6A8362CB6A23
:10390000C3620B6B036391F8343080F8343091F864
:10391000353080F835308B6B8363CB6BC3630B6CB6
:103920000364B1F84430A0F8443091F8463080F890
:1039300046308B6C8364CB6CC364B1F85030A0F814
:1039400050304B6D43658B6D8365704708B5FFF74D
:10395000D4FF08BD70B586B005460E46684603F034
:1039600063FFEC6C6846002CCCBF0234002403F0EB
:1039700099FF0230241AA86A241808D4AC62684659
:10398000AE6403F08FFFE864012006B070BD002034
:10399000FBE710B5036C23B190F84640023304B145
:1039A0000233941C1B1B846A1B194FF0000457BF81
:1039B0008362204680F84640C0E90F1258BF0120BC
:1039C00010BD30B5046C24B190F84650023405B1F6
:1039D00002341D1D641B856A64195FBFC0E90F2393
:1039E00001238462A0F844104EBF002080F84630C6
:1039F000184630BD30B5846D1D1D002CCCBF04347D
:103A00000024641B856A641957BF84620020A0F8F3
:103A10005010C0E9152358BF012030BD70B50546D0
:103A2000806B0E4688B1047814B156F009FA841CF4
:103A3000304656F005FA0230241AA86A24185DBFF1
:103A4000AC620120AE63002070BD0446F0E790F840
:103A50003530826A002B0CBF6FF0020300239B18E5
:103A60005FBF8362012380F8341080F8353054BF83
:103A700018460020704704307047406A704790F83D
:103A80003500704738B50446406A1546C0F11F033B
:103A9000934208DB0430204455F0DCF8626A0120D0
:103AA0002A44626238BD0020FCE770B50446406AD3
:103AB0000E461D4611460233C0F11F029A420FDB2B
:103AC00023186A1C1A71821C063062622A465E71D3
:103AD000204455F0BFF8636A01202B44636270BD37
:103AE0000020FCE770B586B00546684603F09CFEF2
:103AF000684603F0D7FE022804466846CCBF062677
:103B0000022603F0CDFE2346024631462846FFF743
:103B1000CCFF06B070BD13460A46FF21FFF7C5BFB4
:103B200070B588B0064610461D4608AC1A4624F803
:103B3000201D01460DF1020055F08CF8AB1C224609
:103B4000FF213046FFF7B1FF08B070BD70B588B0F7
:103B5000064610461D4608AC1A4624F8201D0146AC
:103B60000DF1020055F076F8AB1C224616213046C6
:103B7000FFF79BFF08B070BD07B5012302AA02F84A
:103B8000011D1946FFF791FF03B05DF804FB70B506
:103B900005460E461446104656F052F93146034685
:103BA00022462846BDE87040FFF77FBF70B5054646
:103BB00008460C4656F044F91D2807D922462846E7
:103BC0001D230821BDE87040FFF76FBF224628463D
:103BD0000921BDE87040FFF7DABF38B50023C16A9C
:103BE0000546436229B1026B1AB1BDE83840FFF7C0
:103BF00049BF95F835307BB395F834102846FFF768
:103C0000BBFF0446A96C21B12846FFF76BFF0440B7
:103C1000E4B2E96B61B12B6C53B195F84620EAB17F
:103C20000A462846B5F84410FFF77AFF0440E4B28C
:103C30006A6D42B1AB6D33B1B5F850102846FFF74D
:103C400085FF0440E4B2A96B21B12846FFF7AEFF1F
:103C50000440E4B2204638BD0124D3E71A46284682
:103C6000FFF759FFE2E700000C4B10B50446036074
:103C7000406838B100F022FC20B9606810B10368D8
:103C80005B689847A06838B101F0F7F920B9A068DF
:103C900010B103685B689847204610BDA00D0A0864
:103CA00010B50446FFF7E0FF0C2120463DF0FAFF77
:103CB000204610BD024A02600022C0E9012270477E
:103CC000A00D0A08064B10B5C0E9003100230446D8
:103CD000836011B1084600F0ECFB204610BD00BF28
:103CE000A00D0A08064B10B5036000230446C0E986
:103CF000013111B1084601F0BBF9204610BD00BFEB
:103D0000A00D0A080346406808B100F0C9BB9868D6
:103D100008B101F0ABB90148704700BF445E0A0822
:103D20000346406808B100F0D1BB986808B101F0C3
:103D3000CDB9704710B4446824B120465DF8044BF7
:103D400000F0D0BB806818B15DF8044B01F0C4B935
:103D50005DF8044B7047806808B101F011BA7047F4
:103D6000436823B98068003018BF012070470120E4
:103D7000704708B5836823B1FFF7D2FFC0F3400056
:103D800008BD1846FCE7806808B101F011BA704719
:103D9000F8B5054640680E46174618B300F0A0FB7C
:103DA000B842A8BF38460446686800F097FB014651
:103DB0002246304654F04EFFA86888B101F0F0F971
:103DC00090B9A8683C4601F085F98742A8BF04462F
:103DD000A86801F07DF901462246304654F03AFFCA
:103DE0002046F8BD0446E7E72846FFF7C2FF002853
:103DF000E7D02846FFF7C7FF0028E2D10446EFE7E7
:103E000010B584685CB1FFF78BFF10F0200F2046DF
:103E100014BF02210121BDE8104001F067BA20461D
:103E200010BD806810B1002101F060BA7047704782
:103E3000024B186803681B69184700BF40110A0845
:103E4000024B186803685B69184700BF40110A08F5
:103E5000054B1B6810B41A6801795469421D184655
:103E600023465DF8044B1847940F0A080B4B10B516
:103E7000044618680368621D21799B6A98474FF6CB
:103E8000FF730146984206D0054B18680268BDE8EA
:103E90001040926A104794F94B0010BD940F0A0825
:103EA00040110A0810B504464C213DF0FBFE2046A7
:103EB00010BD000010B504468AB048794B7A8A7A62
:103EC000039088790290C879019005A8097A009139
:103ED000044955F0DFFA05A920460CF098F9204670
:103EE0000AB010BDA80D0A08002307B506226946CE
:103EF00005300093ADF8043054F07AFE003018BF5E
:103F0000012003B05DF804FB08B502790B799A42F1
:103F100008D106220531053054F06AFEB0FA80F06F
:103F2000400908BD0020FCE70A4B10B5044618689C
:103F300003681B699847236820461B6A984740B16D
:103F4000054B621D217918680368BDE810405B6B62
:103F5000184710BD40110A08940F0A0808B50279E5
:103F60000B799A4208D106220531053054F040FE03
:103F7000003018BF012008BD0120FCE7064A7F2160
:103F80000260002280F84B10C2720273C0F8052054
:103F9000A0F80920704700BFD00D0A080171002168
:103FA00010B5C17201737F21054C80F84B1004607D
:103FB0001168C0F805109288A0F8092010BD00BF54
:103FC000D00D0A082DE9F0410F46164905460CF0C0
:103FD0001EF93A7B00218A4220DD7B1801F102089C
:103FE000597B9B7B4C1E083B012B0FD82146284652
:103FF0000CF0E1F80026B44210DD08EB0603284679
:104000003B44597B0CF078F90136F4E704EB0801E6
:10401000E1E728460CF0B0F851F05CFB2846BDE81B
:10402000F08100BF445E0A081FB5014601A8FFF7F2
:10403000C9FF0398041C01A818BF01240CF09CF8C8
:10404000204604B010BD00002DE9F04F002485B0DB
:104050000E462549A046074601920CF0D8F8337B5E
:10406000A3423DD9631C5FFA83FA331993F80DB06C
:1040700006EB0A035B7B9A1E012A1DD9063B012B26
:1040800025D81025023405FB05F34FF00009E4B2F2
:1040900000930BF1FF330D340293EBB234440393DE
:1040A000029B4B4513DD019B984507D0009B08F10F
:1040B0000108A9441C44F3E70225E3E703992046DD
:1040C00003F0F2FB014638460CF0D9F8EEE70BEBB3
:1040D0000A04E4B2C3E738460CF04EF851F0FAFA9D
:1040E000384605B0BDE8F08F445E0A0810B50446B6
:1040F0000022FFF7A9FF204610BD0000054B1B68FA
:1041000010B41A6801791469421D184623465DF8F7
:10411000044B1847940F0A08064B014618684A1DBD
:1041200010B4036809799C690023A4465DF8044B28
:10413000604700BF940F0A08054B30B40446186866
:104140000368621D9D690B462179AC4630BC60470F
:10415000940F0A08074B1B6810B51A680179D46AD6
:10416000421D1846A04718B1BDE8104001F0EFB954
:1041700010BD00BF940F0A080E4B70B504461868B6
:1041800015464A1D03680979DB6A9847064668B1F7
:1041900001F0DDF9A84209DD2946304601F0D9F9E0
:1041A0000146204600F008F9204670BD204600F088
:1041B000FBF8F9E7940F0A082DE9F84F9946174BD9
:1041C0000546904618684A1D09790368DB6A9847D6
:1041D0000746F0B1002401F0BAF98246264654455C
:1041E00017DA2146384601F0B4F9834600F03EFF65
:1041F0000146404655F0B6F948B94E4506D15946F4
:10420000284600F0D9F82846BDE8F88F0136013479
:10421000E5E7284600F0C8F8F5E700BF940F0A0864
:1042200010B504460023FFF7C7FF204610BD00006D
:10423000F8B50E4B01791B681A68D46A421D1846FE
:10424000A047064678B1002401F081F907462546CB
:10425000BC4209DA2146304601F07BF9013401F015
:10426000F5F90544F4E705462846F8BD940F0A0819
:104270001A4B2DE9F0470546186817464A1D036892
:104280000979DB6A9847804618B3002401F05FF98A
:10429000814626464C451CDA2146404601F059F934
:1042A000824601F0D3F90021814206EB01030DDAC9
:1042B0009F4209D1504601F0CBF901462846FFF74D
:1042C00011FD2846BDE8F0870131EDE701341E46B7
:1042D000E0E72846FFF7EEFCF3E700BF940F0A087B
:1042E00008B5134602798A4208D1062219460530DC
:1042F00054F07EFCB0FA80F0400908BD0020FCE7D5
:1043000010B50446012000FA01F1227304F10D00FA
:10431000E172194654F09EFC9DF9083084F84B3048
:1043200010BD70B50D461146C27A04461E4642F0D5
:104330001002C2722A46007B0D30204454F08AFCE1
:10434000237B84F84B601D44257370BDC37A13F042
:10435000180F14BF01200020704700000C4B10B54F
:1043600004460360406838B100F0A8F820B96068DE
:1043700010B103685B689847A06838B100F07DFE13
:1043800020B9A06810B103685B689847204610BD4B
:10439000040E0A0810B50446FFF7E0FF0C21204682
:1043A0003DF080FC204610BD024A02600022C0E9B8
:1043B00001227047040E0A08064B10B50360002363
:1043C0000446C0E9013111B1084600F051FE204613
:1043D00010BD00BF040E0A080346406808B100F093
:1043E0005FB8986808B100F041BE0148704700BF4F
:1043F000445E0A08436823B98068003018BF012072
:104400007047012070472DE9F84F054688680F4630
:1044100091469A46F0B1002401F018F980462646EC
:10442000444517DA2146B86801F012F9834600F0D6
:104430001DFE0146484655F095F848B9564506D147
:1044400059462846FFF74EFC2846BDE8F88F01364E
:104450000134E5E72846FFF72DFCF5E710B50446E3
:104460000023FFF7D0FF204610BD4068704770471B
:104470000020704710B5044620213DF013FC204673
:1044800010BD0000054B10B5044640F8043B03F096
:10449000CBF900232046E36110BD00BF140E0A08CB
:1044A000043003F0FBB9043003F0FAB9043003F030
:1044B000F9B9C3690133C36118467047C369013B49
:1044C000C3611846704742F60300704790F8200019
:1044D000704790F821007047406A7047806A7047C3
:1044E000808D7047436A9A42A8BF1A462DE9F04171
:1044F0000446828592B2806A0F4654F0ABFB94F872
:104500002E300BB1636AA38594F8203098060FD53E
:10451000A28E91070CD51F4B218E186801310368BC
:104520005D6DA38DAC46A26A89B2BDE8F0416047DB
:10453000DA0609D5A38EDB0706D5164B218E18683F
:10454000013103681D6DECE794F83230F3B1124B82
:104550002146186803685B6A9847104B01463A4643
:104560001D682B6828461E6BA38DB047094B186841
:1045700003681B6B984748B9094B186803689B6828
:10458000984718B12B6828465B6D9847A08DBDE809
:10459000F08100BF940F0A08E0100A08500E0A08C4
:1045A00094100A0838B505460C46084655F048FCF4
:1045B000214602462846BDE83840FFF793BF0186F2
:1045C0007047008E7047008E013080B27047806B5C
:1045D0007047836B994208D2C36B0022914202D08C
:1045E0005B680132FAE718687047002070470000E6
:1045F000114B03600B7903710B4630B553F8052F4F
:1046000001F14904C0F8052000F10D029B88A0F8D3
:104610000930CB7AC3720B7B037301F10D0353F89E
:10462000045BA34242F8045BF9D11B88138091F923
:104630004B3080F84B3030BDD00D0A0838B50446F9
:1046400008200D463DF0FAFA0023C0E900536368E4
:104650002BB960602368A0600133236038BDA36874
:104660005860F7E770B50446002540682368AB4200
:1046700006D9466808213DF015FB01353046F5E7BF
:104680000023C4E90033A36070BD0000F8B5044600
:1046900015461F46FFF7F6FE264B0021B7F5007FB3
:1046A00084F8205023604FEA1523A1854FF01002B3
:1046B00084F821303B46A8BF4FF40073218684F86C
:1046C000321004F1440063629DF8183084F833100E
:1046D00084F82E30A1862164C4E90E1154F0B8FB91
:1046E00015F0300F20D02C2004F138063DF0A6FA4A
:1046F000022304F134021049054600F0EBF8284685
:10470000FFF7D7FE29463046FFF798FF0CE02C2133
:1047100028463DF0C7FA3046FFF7A4FF2046FFF7D2
:10472000A6FE50F0D7FFF6E7384653F045FFA062EB
:104730002046F8BD300E0A08200E0A0870B5154B49
:10474000044600250360A36B9D4212D2E36B002256
:10475000954202D05B680132FAE71E683046FFF7E7
:10476000ADFE20B91EB1336830465B68984701350D
:10477000E9E704F138052846FFF774FFA06A08B19D
:1047800053F022FF2846FFF76DFF2046FFF76FFE2C
:10479000204670BD300E0A0810B50446FFF7CEFF64
:1047A000542120463DF07EFA204610BDF0B5C56C80
:1047B00097B0044617461E467DB103A8FFF718FFC1
:1047C00021466846FFF77EFA694603A8A84768466F
:1047D000FFF74AFA03A8FFF72AFBA16A30461C9AA2
:1047E000394454F037FA17B0F0BD6846FFF73CFA89
:1047F00003A8FFF71CFB50F06DFFF9E770B50E46FC
:1048000011460122044696B080F833201A46FFF77D
:1048100069FE256D85B1314603A8FFF7E9FE214603
:104820006846FFF74FFA694603A8A8476846FFF7AE
:104830001BFA03A8FFF7FBFA16B070BD6846FFF736
:1048400013FA03A8FFF7F3FA50F044FFF9E702F078
:104850000302838E934230B5044697B017D0828608
:10486000002A0CBF44224022024455687DB103A8AF
:10487000FFF7BEFE21466846FFF724FA694603A803
:10488000A8476846FFF7F0F903A8FFF7D0FA17B07A
:1048900030BD6846FFF7E8F903A8FFF7C8FA50F003
:1048A00019FFF9E74FF4245070470000034B10B58F
:1048B00004460360FFF7DBFD204610BD440E0A08E6
:1048C00010B50446FFF7F2FF2C2120463DF0EAF92F
:1048D000204610BD70B51D4604461646FFF7D2FDB2
:1048E000064BB5F5007F266220462360A8BF4FF433
:1048F000007500236562238570BD00BF440E0A0861
:10490000406A7047006A704701857047024B18681B
:1049100003681B69184700BF40110A08024B18685A
:1049200003685B69184700BF40110A08064B186806
:1049300010B503681B699847044B18680368BDE805
:1049400010401B6B184700BF40110A08940F0A085B
:10495000064B186810B503681B699847044B186824
:104960000368BDE81040DB6B184700BF40110A0820
:10497000940F0A08024B186803689B6C184700BF25
:10498000940F0A080C30704768307047024B186863
:1049900003681B69184700BFE0100A08024B18683B
:1049A00003685B69184700BFE0100A08024B1868EB
:1049B00003689B69184700BFE0100A08024B18689B
:1049C00003681B69184700BF94100A08024B186857
:1049D00003685B69184700BF94100A08024B186807
:1049E00003685B6A184700BF94100A08074B10B5AC
:1049F0000446186803681B699847054B20461968E8
:104A00000B68DB6C9847204610BD00BF40110A08B8
:104A1000940F0A08074B10B50446186803681B6911
:104A20009847054B204619680B689B6A98472046B3
:104A300010BD00BF40110A0894100A08024B186804
:104A40000368DB6A184700BF94100A08024B186815
:104A500003689B69184700BF44130A08024B186893
:104A60000368DB69184700BF44130A08024B186843
:104A700003681B6B184700BF94100A08024B1868A4
:104A80000368DB68184700BF940F0A08024B1868D8
:104A900003681B6A184700BF44130A08024B1868D2
:104AA00003685B6A184700BF44130A08024B1B687F
:104AB000C3F8F010704700BF40110A08024B1B6892
:104AC000C3F8F810704700BF40110A08024B1B687A
:104AD000C3F8F410704700BF40110A08024B1B686E
:104AE000C3F8EC10704700BF40110A08024B1B6866
:104AF000C3F8FC10704700BF40110A08024B1B6846
:104B0000C3F80011704700BF40110A08024B186833
:104B10000368D3F89C30184740110A08024B186804
:104B20000368D3F8A030184740110A08F0B50121F6
:104B300087B004460A200BF087FD00210A200BF005
:104B400003FE4FF4FA700BF0F1FC01210A200BF088
:104B5000FBFD4FF4FA700BF0E9FC294B1D682B6844
:104B600028469B689847064620B923682046DB689C
:104B700098470DE064200BF0D9FC2B6828469B6910
:104B80009847064638B1236800262046DB689847D8
:104B9000304607B0F0BD05AA2B680DF10D0128467F
:104BA00001920DF11202009204AADF690DF10E03C9
:104BB000B8470028D9D12B684FF0FF322846D96A70
:104BC0006FF0404388470028CFD12B6840F2FF3276
:104BD0002846196B0023884706460028D3D12B6846
:104BE0000DF10F020DF1160128465B6B9847002866
:104BF000BBD1044B0126186803689B689847C7E738
:104C000040110A08E0100A080C4B10B50446186859
:104C10000368DB6898470A4B18680368DB689847A5
:104C200000210A200BF090FD04F10C00FEF754FE69
:104C300004F16800BDE81040FEF74EBEE0100A081F
:104C400040110A0810B500238CB00446059305A94D
:104C5000ADF818300F4B186803681B6A98479DF829
:104C600014109DF8183007A803919DF815109DF8B1
:104C7000192002919DF8161001919DF817100091CE
:104C8000054954F007FC07A920460BF0C0FA20465E
:104C90000CB010BD40110A08A80D0A080C30FEF730
:104CA00059BE70B50368044608469D6AFFF794FB39
:104CB000014620462B46BDE8704018470C30FEF7F1
:104CC00099BE0C30FEF765BE0C30FEF77ABE683038
:104CD000FEF7A4BE6830FEF739BE10B500F10C0433
:104CE0002046FEF733FE2046FEF7C9FE28B92046CF
:104CF0000621BDE81040FEF7AABE10BD2DE9F7431E
:104D0000044600F10C0568342846FEF766FF20468D
:104D1000FEF763FF0E4B28461E683368DF68FEF718
:104D2000AAFE80462846FEF7A8FE05462046FEF766
:104D3000A2FE81462046FEF7A0FE4B46C0B2414689
:104D4000EAB200903046B84703B0BDE8F08300BF38
:104D500094100A087FB50C4B164601A81C682368FE
:104D60009D690BF082FA324601A92046A84704E06B
:104D700001A80BF001FA50F0ADFC044601A80BF0BD
:104D8000FBF9204604B070BD94100A087FB50C4BA7
:104D9000164601A81C682368DD690BF066FA3246E6
:104DA00001A92046A84704E001A80BF0E5F950F05E
:104DB00091FC044601A80BF0DFF9204604B070BD59
:104DC00094100A087FB50C4B164601A81C6823688E
:104DD0001D6A0BF04AFA324601A92046A84704E0B2
:104DE00001A80BF0C9F950F075FC044601A80BF0BE
:104DF000C3F9204604B070BD94100A0802290BBF05
:104E0000044B054B186818680BBF036803685B6B9D
:104E10009B6D184794100A08940F0A0870B5054650
:104E200004460D4B05F1680644F80C3B2046FEF79E
:104E300039FD3046FEF736FD06212046FEF707FE17
:104E400008E03046FEF726FD2046FEF723FD50F031
:104E500041FCF9E7284670BD5C0E0A0810B5054C08
:104E60002046FFF7DBFF2046034A0449BDE8104017
:104E70003CF08ABCBC81042400000024814E04085C
:104E8000064B10B5044640F8683BFEF703FD04F1FD
:104E90000C00FEF7FFFC204610BD00BF5C0E0A08A8
:104EA00010B50446FFF7ECFFC42120463CF0FAFEA3
:104EB000204610BD0E4B196810B594B00B6801A8C0
:104EC000DB6C984701A8FFF70FF848B101A8FEF77F
:104ED000CDFF044601A8FEF7AAFF204614B010BD7E
:104EE0007F24F7E701A8FEF7A2FF50F0F3FB00BF15
:104EF000940F0A084FF420507047000010B5044684
:104F0000FFF7C0FA044B204623600023C4E90833AE
:104F1000C4E90A3310BD00BF280F0A080184428487
:104F20007047008C7047408C7047406A7047436AF6
:104F3000994208D2836A0022914202D05B68013212
:104F4000FAE7186870470020704738B504460846ED
:104F50000D46FFF7AEFA08203CF070FE0023C0E9D2
:104F60000053A36A2BB9A062636AE06201336362F3
:104F700038BDE36A5860F7E770B50446002540681D
:104F80002368AB4206D9466808213CF08BFE013508
:104F90003046F5E70023C4E90033A36070BD10B5C7
:104FA00004462430FFF7E8FF0023236210BD000011
:104FB00070B5134B044600250360636A9D4212D20C
:104FC000A36A0022954202D05B680132FAE71E68AC
:104FD0003046FFF773FA20B91EB1336830465B687C
:104FE00098470135E9E72046FFF7D9FF04F124008F
:104FF000FFF7C2FF2046FFF73AFA204670BD00BF18
:10500000280F0A0810B50446FFF7D2FF30212046CA
:105010003CF048FE204610BD044B10B5044640F855
:10502000043B0BF0A9F8204610BD00BF3C0F0A0856
:1050300010B50446FFF7F0FF142120463CF032FE85
:10504000204610BD38B50446074B08461146254694
:1050500045F8043B02F028FC014628460BF0D7F83F
:1050600000232046236138BD3C0F0A084068704782
:10507000036901330361184670470369013B03610B
:105080001846704770B504461E46BDF81450FFF729
:10509000D9FF0D4B012225762D0A23602046BDF84D
:1050A0001030A682E382BDF8183065766383002352
:1050B00084F8252084F82430C4E90733C4E90A338E
:1050C000C4E90C3370BD00BF4C0F0A08007E704766
:1050D000C0697047006A70472DE9F0439846274B36
:1050E00085B004461E680F46818A91463368304673
:1050F0009B6B984718B9002005B0BDE8F083336872
:105100003046A18A5B6C9847033885B2E0694D450B
:10511000A8BF4D46294653F0B3FFE0610028EAD00E
:10512000237E1A071CD5B8F1000F19D003A83368E5
:10513000628B0190E8B2A18A00903046D3F860807B
:105140003B46C0470028D7D09DF80C30012BD2D069
:105150002A463946E06953F07DFD25620120CBE700
:105160005B07C8D53368E8B2628B00903046D3F84D
:1051700064803B46A18AC047EAE700BF940F0A0853
:10518000064B10B5044618680368A18A9B6B9847C4
:10519000002394F8240084F8243010BD940F0A08EA
:1051A0000346012290F8250083F82520704700006F
:1051B000154B818AF0B51E68C1B00446336830468D
:1051C0009B6B9847054648B133683046628BDF6D6C
:1051D0006B46A18AB84720B900252562284641B010
:1051E000F0BD9DF80030012BF6D0411EE069216230
:1051F00053F046FFE0610028EED0226A0DF1010174
:1052000053F028FDEAE700BF940F0A08408B70476F
:1052100038B5044608460D46FFF72AFF08203CF043
:105220000DFD0023C0E90053E36A2BB9E062A36AD5
:1052300020630133A36238BD236B5860F7E770B574
:105240000446002540682368AB4206D94668082119
:105250003CF028FD01353046F5E70023C4E9003372
:10526000A36070BD03688B4208D9436800228A425C
:1052700002D05B680132FAE7186870470020704777
:10528000F8B50546134B0446002645F8283BA36AAB
:105290009E420ED231462846FFF7E4FF0746FFF74D
:1052A000ECFE20B91FB13B6838465B689847013671
:1052B000EDE72846FFF7C3FFE06918B153F084F922
:1052C0000023E3612846FFF7BAFF2046FFF7A4FE5C
:1052D0002046F8BD4C0F0A0810B50446FFF7D0FF72
:1052E000382120463CF0DEFC204610BD2DE9F0437D
:1052F00006468DB00546002456F8287FDFF87C80EE
:10530000ADF80E10BC4219DA21463046FFF7AAFF6D
:105310008146FFF7ABFE414654F0C6F960B9022260
:105320000DF10E01484600F0B3F8041C18BF01242B
:1053300020460DB0BDE8F0830134E3E72C7E14F085
:105340003004F5D06A8B04A8AB8A013292B2009285
:105350000022114600F08AF802220DF10E0104A885
:1053600000F096F8041C04A818BF012400F062F8AD
:10537000DEE704A800F05EF850F0ACF9200E0A0851
:1053800070B50446036296B00D46C06919461646CC
:1053900053F076FEE06110B9206216B070BD0123B3
:1053A0003146226A84F82430002384F8253053F0F3
:1053B00051FC666B002EF0D01D4B05F149010393A3
:1053C0002B798DF810302B4653F8052F9B88CDF89C
:1053D00011200DF11902ADF81530EB7A8DF8173068
:1053E0002B7B8DF8183005F10D0353F8040B8B421D
:1053F00042F8040BF9D11B8821466846138095F8C2
:105400004B308DF85730FEF76DFC694603A8B04766
:105410006846FEF729FC03A8FEF709FDBDE76846CC
:10542000FEF722FC03A8FEF702FD50F053F9F9E75E
:10543000D00D0A08074B10B504460360806918B107
:1054400053F0C2F80023A3612046FFF7E5FD204694
:1054500010BD00BF5C0F0A0810B50446FFF7EAFF55
:10546000202120463CF01EFC204610BD38B50446E5
:105470001D46FFF7E7FD054BA58220462360BDF8DA
:105480001030E3820023C4E9063338BD5C0F0A08FC
:105490002DE9FF411C4B04460F46818A1E68904649
:1054A000336830469B6B984718B9002004B0BDE8BC
:1054B000F08133683046A18A5B6C9847033885B227
:1054C000A0694545A8BF4546294653F0D9FDA061CE
:1054D0000028EAD003A83368E28A0190E8B2A18AE2
:1054E00000903046D3F860803B46C0470028DCD0AF
:1054F0009DF80C30012BD8D02A463946A06953F0CC
:10550000A9FBE5610120D1E7940F0A08034A026074
:105510000022C0E90122C260704700BF6C0F0A0878
:1055200038B5044608460D46FFF7A2FD08203CF0BA
:1055300085FB0023C0E90053A3682BB9A060636812
:10554000E0600133636038BDE3685860F7E74068A6
:1055500070474368994208D283680022914202D082
:105560005B680132FAE7186870470020704770B531
:105570000446002540682368AB4206D946680821E6
:105580003CF090FB01353046F5E70023C4E90033D9
:10559000A36070BD70B50646002473689C4212D2A9
:1055A000B3680022944202D05B680132FAE71D68BA
:1055B0002846FFF762FD20B91DB12B6828465B68BD
:1055C00098470134E9E7301DFFF7D1FF70BD0000B7
:1055D00038B50446054B054644F8043BFFF7DAFFAF
:1055E0002046FFF7C4FF284638BD00BF6C0F0A08ED
:1055F00010B50446FFF7ECFF102120463CF052FBAB
:10560000204610BD38B504461D46FFF71BFD0B4B69
:10561000A58204F118002360BDF810300849E38228
:105620000AF0F5FD04E02046FFF7F6FC50F052F8D2
:1056300000232046C4E90933E36238BD7C0F0A0821
:10564000445E0A08808A7047C08A7047406A704783
:10565000436A994208D2836A0022914202D05B6871
:105660000132FAE7186870470020704738B50446E1
:1056700008460D46FFF7FCFC08203CF0DFFA00234B
:10568000C0E90053A36A2BB9A062636AE0620133E8
:10569000636238BDE36A5860F7E770B504460025D9
:1056A00040682368AB4206D9466808213CF0FAFA04
:1056B00001353046F5E70023C4E90033A36070BD2F
:1056C00070B5154B044600250360636A9D4212D2F3
:1056D000A36A0022954202D05B680132FAE71E6895
:1056E0003046FFF7CAFC20B91EB1336830465B680C
:1056F00098470135E9E704F124052846FFF7CDFF77
:105700002846FFF7CAFF04F118000AF035FD2046CD
:10571000FFF782FC204670BD7C0F0A0810B50446D6
:10572000FFF7CEFF302120463CF0BCFA204610BDEA
:10573000A0F8A8107047C0F8AC1070472DE9FF41E1
:10574000013A13F8014B05460F46D6B20268CDE97F
:105750000233526C90470C2C02462968029B79D088
:105760002FD8052C69D01AD8022C60D00BD8012C68
:1057700053D006232246284600930023D1F8DC604C
:105780003946B0476EE0032C54D0042CF1D100937D
:10579000D1F89440334639462846A04762E0092CA8
:1057A00052D007D8062C4BD0082CE2D10093D1F868
:1057B000A440EFE70A2C4DD00B2CDAD1D1F8B4403D
:1057C0002DE0162C51D00FD8112C40D005D8102C1C
:1057D000CFD10093D1F8B840DCE7122C18D0132CAD
:1057E000C7D1D1F8C8401AE01D2C04D00CD8182C11
:1057F0003FD01B2CBDD100932246D1F8D480334634
:1058000039462846C0472DE01E2C36D0522CB0D148
:10581000CDE90063D1F8C46020E0D1F8844032467D
:1058200039462846A44604B0BDE8F0416047D1F8A7
:105830008840F4E7D1F89040F1E7D1F89C40EEE7DA
:105840000093D1F8A040A5E7D1F8AC40E7E7D1F844
:10585000C040E4E7CDE90063D1F8B06023463946A3
:105860002846B04704B0BDE8F0810093D1F8CC40A1
:1058700090E70093D1F8D0408CE7D1F8D840CEE73C
:1058800000F18C034FF6FF72B0F8B010914204D1D2
:105890001C309842F8D1002070470120704708B5AD
:1058A00003689B6A98474FF6FF73C01A18BF012020
:1058B00008BD000038B50A4B04460D461868036859
:1058C0001B699847204604F18C03B0F8B020AA4227
:1058D00004D01C309842F8D1002038BD0120FCE7EC
:1058E00040110A0800F18C0390F9C820002A04DB5B
:1058F0001C309842F8D1002070470120704730B525
:1059000000231C2404FB0302B2F8B0508D4204D0E3
:105910000133052BF6D1002002E092F8C800C0093F
:1059200030BD30B500231C2404FB0302B2F8B05094
:105930008D4202D1B2F8C00030BD0133052BF3D146
:105940001720F9E71FB50224ADF80D2002688DF885
:105950000C4000930323D2F8F04003AAA04704B000
:1059600010BD1FB50424ADF80920ADF80B30069A20
:1059700003688DF80840009202AAD3F8F04005238E
:10598000A04704B010BD1FB5ADF80B301024BDF812
:105990001830ADF80920ADF80D30079A03688DF87E
:1059A0000840009202AAD3F8F0400723A04704B0B1
:1059B00010BD1FB5ADF80B300824BDF81830ADF898
:1059C0000920ADF80D30079A03688DF80840009261
:1059D00002AAD3F8F0400723A04704B010BD01236A
:1059E00080F83C31704700001FB5ADF80A30012047
:1059F0009DF818308DF808008DF80C30064B8DF8A6
:105A0000092002AA1868036800920422D3F894407F
:105A10000523A04704B010BD40110A0801299CBF0E
:105A200000EB8100C0F8542170471FB50A24ADF87F
:105A30000D2002688DF80C4000930323D2F8F0404B
:105A400003AAA04704B010BD70B500231C2505FBB8
:105A50000304B4F8B0608E4204D00133052BF6D1B4
:105A6000002002E0012084F8C82070BD70B500233A
:105A70001C2505FB03F40619B6F8B0608E4204D06D
:105A80000133052BF5D1002010E004F1B301941D82
:105A9000014411F8015F04F801599442F9D11C2224
:105AA00002FB0303012093F8B330237070BD0000A4
:105AB000054B10B504460360D0F8400108B152F020
:105AC00083FD204610BD00BFA00F0A0810B5044694
:105AD000FFF7EEFF4FF4AE7120463CF0E3F82046AE
