:020000040804EE
:1000000000000824010309084D0309080107080836
:10001000070708080D070808130708080000000074
:10002000000000000000000000000000B10605080C
:100030004D030908000000004B0705085B07050891
:100040004D0309084D0309084D0309084D0309082C
:100050004D0309084D0309084D0309084D0309081C
:100060004D0309084D0309084D0309084D0309080C
:100070004D0309084D0309084D0309084D030908FC
:100080004D0309084D0309084D030908010F09082C
:10009000110F09080D0F09081D0F09084D03090864
:1000A0004D0309084D0309084D0309084D030908CC
:1000B0004D0309084D0309084D0309084D030908BC
:1000C0004D0309084D0309084D0309084D030908AC
:1000D0004D0309084D0309084D0309084D0309089C
:1000E0004D0309084D030908000000004D030908ED
:1000F0004D0309084D0309084D0309084D0309087C
:100100004D03090879FA08084D0309084D03090849
:100110004D0309084D0309084D0309084D0309085B
:100120004D0309084D0309084D0309084D0309084B
:100130004D0309084D0309084D0309084D0309083B
:100140004D0309084D0309080000000000000000ED
:100150004D0309084D0309084D0309084D0309081B
:100160004D0309084D0309084D0309084D0309080B
:100170004D0309084D0309084D030908000000005C
:100180004D0309084D0309084D0309084D030908EB
:100190004D0309084D0309084D0309084D030908DB
:1001A0004D0309084D0309084D0309084D030908CB
:1001B0004D0309084D0309084D0309084D030908BB
:1001C0004D0309084D0309084D0309084D030908AB
:1001D0004D0309084D0309084D0309084D0309089B
:1001E0004D0309084D0309084D0309084D0309088B
:1001F0004D0309084D0309084D0309084D0309087B
:100200004D0309084D0309084D0309084D0309086A
:100210004D0309084D0309084D0309084D0309085A
:100220004D0309084D0309084D0309084D0309084A
:100230004D030908FD0209084D0309084D0309088B
:100240004D0309084D0309084D0309084D0309082A
:100250004D0309084D0309084D0309084D0309081A
:100260004D0309084D0309084D0309084D0309080A
:100270004D0309084D0309084D0309084D030908FA
:100280004D0309084D0309084D030908000000004B
:100290004D0309084D03090810B5054C237833B9FF
:1002A000044B13B10448AFF300800123237010BD49
:1002B000A014002400000000083A0B0808B5034B06
:1002C0001BB103490348AFF3008008BD00000000E4
:1002D000A4140024083A0B08154B002B08BF134B3D
:1002E0009D46A3F5803A00218B460F461348144AD9
:1002F000121A58F0FDFC0F4B002B00D098470E4B04
:10030000002B00D098470020002104000D000D486C
:10031000002802D00C4841F08BF957F0ADFE2000C8
:10032000290012F0ABFD41F09FFB00BF0000080068
:100330000000082400000000D92D0508A0140024A6
:10034000A0AD052431160808000000000020704709
:10035000704703689B6B18477047092A04BF012345
:100360004371437923B90079431A58425841704781
:100370000020704703798B4204D112F1FF3018BF7F
:100380000120704700207047034BB0FBF3F202FBE3
:100390001300024B1860704740420F000800002411
:1003A000054B1B685A1C05D0044A1068C31A5842F2
:1003B00058417047012070470400002408000024C1
:1003C00010B5084C22681AB10021074858F090FC7B
:1003D0000023064A1360064A23601380054A1380EF
:1003E00010BD00BF10700324948003249480042463
:1003F0009A8004249880042410B50446142141F006
:10040000A3FB204610BD0000F8B50D4D0D4FA5F122
:10041000C00645F8187D6C697CB16368013B636078
:100420005BB9236820469B689847A368013BA3609B
:100430001BB923682046DB689847B542E9D1F8BD6F
:10044000F41D0024E4160A0810B54FF48051044648
:10045000074859F06FFDB0F5805F08D2C0F57F62A4
:10046000214603480F32BDE8104059F0B7BC10BD1B
:100470007C70032470B5064C064EA4F5B955A4F55E
:100480003974204626600DF0BBFBAC42F7D170BD3D
:100490001435002414FD09082DE9F04389B0044601
:1004A0000D461422002103A858F022FC6368227A2A
:1004B0001421002B03A800926FF00809A7BFC3F313
:1004C0000A03154A23F06043144A58F0EBFE2B68E8
:1004D000024603A95B682846984704F109070646C7
:1004E000A9EB0409DFF8388009EB0703227A93426D
:1004F0000ED217F8013B4246142103A858F0D2FE51
:100500002B68022203A95B68284698470644EBE75C
:10051000304609B0BDE8F083D10B0A08E10B0A08A8
:10052000F10B0A08831E052B05D916383F288CBF0E
:10053000002001207047012070472DE9F04F89B05D
:100540009946A1F1020C9DF84830029203935FFA9C
:100550008CF3052B66D8B9F10A0F63D900EB0113B0
:1005600001F18051002401934FF6E473019A02399E
:10057000A646D55800EB0C1341F31B0142F6AA2204
:1005800003F5803302FB01019B680A2B3BD905AFC1
:100590002E464FF00008C7F804E0CDF814E0C7F885
:1005A00007E011F806A008F807A006F1010A08F113
:1005B0000108BAFBF2F6B8F10B0F02FB16A6F0D158
:1005C000BDF815600B36B3421DD3A9EB0407BE423C
:1005D00019D8029F07EB040A2F46D04611F807B03E
:1005E000013708F801BBB7FBF2FB02FB1B77A8EB56
:1005F0000A0B5E45F2D835449B1B3444B5FBF2F739
:1006000002FB1755C1E7039A42B100EB0C104FF6FD
:10061000E472019900F580308D508360204609B066
:10062000BDE8F08F0024F9E7F0B500F5803442F61C
:10063000AA25D7180C1B241105FB0404BA420BD0C1
:1006400012F8016B0868265408680130B0FBF5F613
:1006500005FB16000860F1E78A681A448A60F0BD5D
:100660002DE9FF411F4600EB0113BDF82860054648
:1006700003F57F4306F10B08D3F8E840E033C4F5F7
:100680002A542A34A045DDE90CEC06D9DA680020AA
:100690000132DA6004B0BDE8F08101F6FE718DF838
:1006A00004200B2301AA00EB0114CDF807E0CDF8DC
:1006B0000BC02146ADF80560FFF7B6FF284633466C
:1006C0003A462146FFF7B0FF0120E3E72DE9F0436A
:1006D0001D4E87B000241D4FB146A35DABB1E5B2FE
:1006E00028460FF0B1FF0030E35D18BF01208342C0
:1006F0000BD0002B19F8043038550CBF02460022ED
:10070000032B0CD0012B06D14AB90134672CE4D15C
:1007100007B0BDE8F083022BF7D1002AF5D14FF0E6
:1007200000088DF814508DF816008DF815800FF024
:1007300043FE03232A460721009305ABCDE90208B7
:100740000348FFF78DFFE0E7EC8004245381042485
:10075000906500242DE9F04F0026ADF5057D2B4F67
:1007600035462B4B5FFA85F9EB5C002B43D0294BC8
:10077000EC5CACB907EB060A0DF1100BBA59504608
:100780001FFA84F81269904728B3B4F5007F3AD075
:10079000BB5950465B6998470BF804000134EDE7FC
:1007A0004FF43974DFF874A06C4354F80A3004EB4A
:1007B0000A0B5B6B58469847021E1CDD54F80A3042
:1007C000B2F5007F04A958469B6BA8BF4FF4007296
:1007D00098471FFA80F8B8F1000F0CD00FF0ECFD2D
:1007E0000022029004AB03920521CDF800804A4616
:1007F0000948FFF735FF01351836082DB1D10DF541
:10080000057DBDE8F08FA046E8E700BF341D002459
:100810002C1D00247C80032490650024F41D0024FA
:100820002DE9F04FCFB01C220021002506AC0DF1C0
:100830003808DFF8A8A02046274658F059FA224B7E
:100840006360224BE360224B6361224BE361224BE6
:100850001A7822705A7822729A78DB78227423767A
:1008600014F835305FFA85FB2BB300267B681FFA3E
:1008700086F91968184605930969884758B1B6F58D
:10088000807F1FD0059B1A6818465269904708F868
:1008900006000136EAE7B9F1000F0CD00FF08CFD2D
:1008A000002302905A4603930221CDF8009043465C
:1008B0005046FFF7D5FE01350837042DD0D14FB093
:1008C000BDE8F08FB146E9E7B49E0424EC9F042410
:1008D00024A104245CA204248480032490650024C1
:1008E000194B30B51C6885B0236820461B699847B2
:1008F000164B1B78DBB1164803F084F9B8B11448E5
:1009000003F07BF998B14FF400721249104803F0DC
:1009100091F9051E0BDD0FF04FFD0022ADB20D4B1E
:1009200006210095CDE902020B48FFF799FE2368E6
:100930002046D3F8A030984718B1084B4FF0FF324B
:100940001A6005B030BD00BF100D0A08F15F032426
:1009500088800324F06502249065002404000024AC
:1009600030B5D2430144094D81420DD010F8013B0E
:100970005A40082342F30004013B2C4013F0FF03CC
:1009800084EA5202F6D1EFE7D04330BD2083B8EDC0
:10099000F0B587B005460E46034601AA00F1100CDB
:1009A00017461868083353F8041C1446634503C4FB
:1009B0002246F6D1186800221021206038460592A0
:1009C000FFF7CEFFE98902463046FFF7C9FF07B0BF
:1009D000F0BD2DE9F0438446476800200446251DFC
:1009E000BD4218D8DCF80060A7EB05083444B4F821
:1009F00002E01FFA8EF9C1450CD8B4F80080884592
:100A000005D138B92E4401201660A3F800E06488AF
:100A10002C44E4E70020BDE8F08373B500241E46B3
:100A200002AB154601AA019423F8064DFFF7D1FF4A
:100A300018B986F0010002B070BDBDF80230012B7C
:100A400009BF019B20461B782B70F4E773B5002487
:100A50001E4602AB154601AA019423F8064DFFF786
:100A6000B8FF18B986F0010002B070BDBDF80230C1
:100A7000022B09BF019B20461B882B80F4E773B52E
:100A800000241E4602AB154601AA019423F8064D28
:100A9000FFF79FFF18B986F0010002B070BDBDF8E6
:100AA0000230042B09BF019B20461B682B60F4E732
:100AB00008B5FFF78EFF18B99DF8080080F0010017
:100AC00008BDF0B585B016461F4600229DF82840A7
:100AD00004AB039223F8062D03AA0094FFF7E8FF66
:100AE000054618B1039921B91CB93470284605B0E0
:100AF000F0BDBDF80A4044B1BC4206D222463046A1
:100B000057F0F8FF00233355F0E70025EEE773B503
:100B100004461E1D08461D4611466368A2689B1ABE
:100B20009E4215D8ADF80400ADF806502368019830
:100B30009850A3680433A36025B120682A4618445E
:100B400057F0D8FFA36801202B44A36002B070BD0A
:100B50000020FBE70B4630B513F8042F00F10B041F
:100B60000271421D13F8015F02F8015B9442F9D152
:100B7000CB7A00F14B04C3720B4613F80C2F0273AF
:100B800000F10D0213F8015F02F8015BA242F9D1F6
:100B900091F94B3080F84B3030BD00002DE9F04129
:100BA0006722002133484FF47A7458F0A1F84FF4CB
:100BB00080320021304858F09BF8602200212F48F5
:100BC00058F096F82E4B00222E4803F1C00143F84E
:100BD000180C43E9052443E9022218338B42F6D16D
:100BE0004FF439770725DFF8CC8000203E46264AAF
:100BF000264940F01BFD07FB1580254C0CF0B2FF89
:100C000041F23C42234B03FB0523234A15F1FF35F8
:100C1000E250F0D21C4A0020204940F007FD204855
:100C200003F0FEF8184A1F491D4840F0FFFC1E481B
:100C300002F092FF144A1D491B48BDE8F04140F004
:100C4000F5BCC5F107057543134EAB082C44184D90
:100C50005D43104B25F0404503FB0545AC4206D0F3
:100C6000A4F53974266020460CF0CAFFF6E754F06C
:100C700083FC00BF28650024906500249065012452
:100C80004C1D0024D0FC09080000002409040408BD
:100C9000F41D00241CFDFFFF14FD09087504040861
:100CA0009C800424D33C0408888003240D3B040862
:100CB0008905DC293032002408B54FF4E1310448BD
:100CC0000DF096FD0AF01EFE024B186008BD00BF35
:100CD00094A30424E88004242DE9F04F40F6EC733B
:100CE00002F6EB748BB015464FF00008564EB4FB7D
:100CF000F3F4A4B2554B012C1B6838BF01240393B5
:100D0000CDE9010140F6EC731FFA88F203FB08FEFF
:100D100075456DD9A5EB0E0940F6EB71894588BF85
:100D200099460023ADF81E2005AA0DF1240B099366
:100D3000039B9246ADF8204005934FF00103ADF8B8
:100D400022908DF818309DF808308DF81930019BED
:100D5000CDF81A303E4B1F4694460833BCE80300DA
:100D6000DC4543F8080C43F8041C6246F4D1DCF877
:100D700000001860B9F1000F05D036494A463046E8
:100D8000714457F0B7FE31465046FFF701FE0AAAFC
:100D90002F4B42F8040DD4460833BCE803009445B9
:100DA00043F8080C43F8041CE246F4D1DCF80000D8
:100DB0000121DFF89CC041F2130A186009F1140305
:100DC0000020DFF894E000930B461CF801BBBBF158
:100DD000000F10D1504533D800F80E304A1CACEB50
:100DE0000709084601230099494514D91146ECE743
:100DF0004FF0000995E7514522D80133ACEB0709C4
:100E00004A1C01F80EB0DBB2FF2BECD100F80E301B
:100E100010468A1CE6E741F21301884210D80E49B9
:100E200043546AB10D4808F101080DF04FFB002151
:100E30000A480DF00BFB1FFA88F3A342FFF462AFE0
:100E40000BB0BDE8F08F00BF28350024CD0B0A0899
:100E500014350024F0650124F85F032494A30424CE
:100E60002DE9F04F97B0894693464FF4803116AA8A
:100E70009A4600235E4D22F84A9D804608A8BDF898
:100E800084700895CDE90913022348F20101DDE9D8
:100E90002264FFF73CFE0246BAF1000F08D038B1D9
:100EA0005A46534648F2020108A8FFF730FE0246B0
:100EB000209B1B78002B50D04FF48051209801923A
:100EC00059F038F8019A62B1B0F5805F09D283B267
:100ED000209A48F2030108A8FFF719FE002840F005
:100EE000848044B100262378002B7BD0204658F024
:100EF00007FF002E63D14FF48032002348F2010136
:100F00000BA80B950EACCDE90C2316AA042322F8EE
:100F1000463D0223FFF7FBFD364B224603F1180640
:100F20001868083353F8041C2546B34203C52C4601
:100F3000F6D1186899889B7928600BA8A98048F297
:100F40000701AB711E23FFF7E2FD0D9A0321404616
:100F5000FFF7C2FE17B0BDE8F08F77B1002AC0D00E
:100F600016AA022348F2040108A822F8487DFFF7D8
:100F7000CEFD0028B5D01EB90DE0EEB1002AB0D0EC
:100F800016AA042348F2050108A842F8446DFFF7A9
:100F9000BEFD0028A5D00FF00FFA0023069006AA88
:100FA000079348F20601082308A8FFF7B0FD06469C
:100FB000002896D07CB196E7002AECD191E7A028D2
:100FC000224648F2070128BFA02083B208A8FFF7F5
:100FD0009EFD00288FD0B9F1000F0A9A0CBF0221A4
:100FE0000321B4E7002EF6D185E7002FB8D1C2E780
:100FF000F0650124D9FE09081FB500230392054AB4
:1010000000921A46CDE90133FFF72AFF05B05DF8DB
:1010100004FB00BFC50A0A082DE9F0411A4F8046BB
:101020003A78012A07D10025184A0321FFF7E4FF87
:101030002846BDE8F081164E357805BB154B1C6877
:10104000236820469B68984728B9134A04214046E4
:10105000FFF7D2FFECE7236802212046D3F898304F
:10106000984723680D492046D3F8B4309847236841
:101070000B492046D3F8B830984701233370022338
:1010800001253B70D4E700BFBC140024750A0A0890
:1010900014700324100D0A08A30A0A08890304081F
:1010A000A10304082DE9F04FD5B00024894601239F
:1010B0000DF12E080CAD152106464246A8F8004059
:1010C0002C808DF82D400D94ADF83240FFF7BEFC1A
:1010D00038B9AE4A01214846FFF78EFF55B0BDE84A
:1010E000F08F01232A4616213046FFF7AFFC002877
:1010F000EFD023460DF12D0218213046FFF78DFC6D
:101100000028E6D000940DF132030DAA17213046D5
:10111000FFF7CEFC06900028DBD0BDF832307E2BE6
:10112000D7D89B4E27460AF0EDFB7F223060214640
:1011300034A857F0DDFD0594CDE90785E1B23068AC
:1011400009F053FB0546B0B190F86B30092B12D073
:10115000079B1A88B0F866309A420CD1089B1A880F
:10116000B0F868309A4206D10D9B83B9059B2F4693
:101170000133DBB205930134052CDFD1059B012B34
:1011800002D1002F40F08F80824A0521A3E70DF1A4
:101190003C0A4FF0120800214246504657F0A8FD85
:1011A000306818B900238DF8D030E4E74FF480732D
:1011B00000222946CDE90032CDE902A8062380228B
:1011C00009F0D1FE83460028ECD19AF81030002BAC
:1011D000E8D00DF138080423C8F800002946019032
:1011E0008022CDE902834FF44073009306233068D8
:1011F00009F0B9FE014610B18DF8D0B0BBE798F800
:10120000033098F802B00DF150084BEA032B7E230F
:1012100040461A46099357F06BFD099BCDF804B080
:1012200080222946CDE902839AF8103043F44073B6
:1012300000930623306809F096FE0028B2D198F892
:1012400000000128AED903220023824212D218F8EE
:10125000021001330029A5D118F813100232A1F1B0
:10126000200CBCF15E0F9DD80DF1D00C9C440CF805
:10127000011CEAE754AA00211A4402F8801C002B42
:101280003FF479AF34A858F03BFDBDF83230024648
:1012900098427FF470AF0D9934A857F0F9FB0028FD
:1012A0003FF464AF67E79DF82D3039463A4A8DF830
:1012B000403000230F920FAA8DF84130344B18684C
:1012C00009F0CDFE002852D19DF84140002C4ED1AE
:1012D0000D9E324B324D334A1F609DF82D10002E6B
:1012E00008BF2A46BDF830002F4B304D304EDFF896
:1012F000E48019700090BDF82E302E48CDE901121F
:101300002D4A4FF4805157F0CDFF22469DF82D1005
:10131000384609F0B0F9D0B190F84C20012A16D027
:1013200052BB264B026D7821CDE9013290F85E3038
:10133000424614A80093069B002B14BF2B4633464D
:1013400057F0B0FF14A8FFF77FF8002306938CB185
:101350001B48FFF779F80023164A484601931946BF
:1013600000921A46CDE90233FFF77AFDB6E6154A38
:101370000221B0E60124C8E7022A05D0124B134926
:10138000032A18BF0B46CDE7114BCBE7F40A0A0836
:10139000E8800424090B0A08000C0A08C014002481
:1013A000CD0A0A08C80A0A08F05F0324045D0A0887
:1013B000F20A0A087C7003245B0B0A08D80A0A08A0
:1013C00018020A082D0B0A08E80A0A08E00A0A08A7
:1013D000D30A0A089F0B0A08F0B50024C7B00646D6
:1013E0000D46FE22214606A88DF81340ADF81440A4
:1013F000ADF8164057F07CFC494B1B782BB9494A95
:1014000001212846FFF7F8FD71E001230DF11302D9
:1014100023213046FFF701FB0028F0D09DF8133060
:10142000012BECD8012305AA21213046FFF70EFB42
:101430000028E4D0BDF81430002BE0D023460DF195
:10144000160236213046FFF701FB0028D7D00123D2
:1014500006AA202130460093FE23FFF732FB002826
:10146000CDD0314B1E46E15CE2B2002941D00134BF
:10147000082CF8D12D4A0321C3E74FF439732C49C6
:10148000634358185B58BDF81610DB6911B9A2F513
:10149000804291B298473AE00123FE20FD2206A93E
:1014A00033559DF81360234B1E55234B00FB04302E
:1014B00058F00EFDBDF81420204B4FF4805123F856
:1014C00014201F4A1F4B002E08BF13461E4E1F4AF2
:1014D00000933046234657F0E5FE002328461A467F
:1014E0001946CDE90233CDE90063FFF7B9FC47B0F7
:1014F000F0BD9DF81330002BBFD11823144806A966
:101500006343C2581844176ABDF81420B847003026
:1015100018BF01200028BFD10E4A042171E700BF87
:101520000C70032400FF09082C1D00245AFF090831
:10153000F41D00247C8003242B1500241C1D002492
:10154000F8FE0908FCFE09087C70032439FF09082D
:10155000341D00241DFF09082DE9F047944F8AB07F
:1015600000230446D7F800800D468DF816308DF81C
:101570001730ADF81A30CDE90833B8F1000F07D1B4
:101580008C4A01212846FFF737FD0AB0BDE8F087F5
:1015900001230DF116021A21FFF73FFA0028EFD0C0
:1015A0009DF81630022BEBD801230DF117021921FB
:1015B0002046FFF732FA0028E2D0012308AA0621CC
:1015C0002046FFF75CFA0028DAD0089BB3F57A4F83
:1015D000D6D89DF81620022A02D1B3F5805FCFD865
:1015E00000260DF11A0309AA052100962046FFF7EF
:1015F0005FFA0028C4D09DF816309DF81790002B94
:101600006ED18DF818308DF81930ADF81C30ADF86A
:101610001E30B9F1000F53D1012306AA1B21204629
:10162000FFF7FBF900284BD001230DF119021C2113
:101630002046FFF7F2F9002842D0012307AA1D2116
:101640002046FFF703FA00283AD001230DF11E02CD
:101650001E212046FFF7FAF990B39DF81820564B4B
:101660001606BDF81C101868BDF81E409DF819300C
:1016700028D5089E009141460396504ECDE901467B
:1016800009F071FC002840F09080BDF82040002651
:101690009DF817204A4F4FF480519DF81630009264
:1016A00038460196474A57F0FDFD2346434A3146E6
:1016B0002846CDE90266CDE90076FFF7D1FB64E765
:1016C000414A5EE7BDF81A60009141460396099EC3
:1016D000CDE9014609F09BFC002866D10446D6E717
:1016E000012BDFF8F4A014BF4FF003084FF00208FD
:1016F00032469AF80010386808F0BDFF044638B149
:1017000090F84C30434503D190F85E304B4537D0CC
:1017100016B12E4A022135E70126E9E70122CDE97B
:101720000032264B224609F001FB3BE0646E08982C
:1017300024EAE4748442A8BF0446A4B2002CA6D0D4
:101740009DF817700EF038FE009404211B4B3A46AA
:10175000CDE902061E48FEF783FF98E7012A099BA0
:10176000BDF81A6005D1CDE90062224609F0B1FA50
:10177000B2E70122CDE90062224609F0C8FAABE7E0
:101780000D4B9DF8162018689DF917303968002B0D
:10179000E4DA012A089BC1D1CDE90032074B224689
:1017A00009F0A6FA06460028C0D00A4A0421E9E654
:1017B000C014002460FD0908E8800424F0650224B8
:1017C0007C700324ECFD09088BFD0908B2FD0908B3
:1017D00090650024D8FD0908F05F03242DE9F0414D
:1017E000344BADF5EA6D0125022402934FF480518C
:1017F000314B324E324FDFF8F48001930095314B7C
:10180000314A324857F04EFDA0B2FEF78BFE68B168
:10181000002D14BF33463B464246102100940EA8CB
:10182000002557F03FFD0EA8FEF70EFE0134562CA2
:10183000EAD1274B274C1B78274D2848002B18BF8F
:10184000254602F0A3FA18B1244802F0BFFA00B905
:10185000214C234B12A81F4A19681F4B002908BFAF
:101860001A46204BD96D0D91D96C0C91D96B0B9107
:10187000D96A0A91D9690991D9680891996D079136
:10188000996C0691996B0591996A049199690391F4
:101890004FF4E1619B680094CDE901232B46124A85
:1018A00057F000FD12A8FEF7CFFD0DF5EA6DBDE87B
:1018B000F08100BF25000A0866000A08045D0A08D6
:1018C000F20A0A0875FF09087BFF09087C700324E7
:1018D0000C700324C80A0A08CD0A0A089C80042454
:1018E000C01400249065012491000A0889000A08A8
:1018F0002DE9F04FEDB040F6B833044625220E46F0
:101900000EA80021079357F0F3F9012307AA32210B
:101910002046FFF7B4F838B9674A01213046FFF78F
:101920006BFB6DB0BDE8F08F079B47F2CC42643B88
:101930009342F1D84FF0000825230EAA2046CDF897
:1019400000801946FFF7BDF80028E5D03046FFF7C4
:1019500063FB05460028E4D0584F9DF838103C68DA
:10196000236889B10EA92BA8D3F864900EF0A1FBCF
:1019700042462BA92046C84704462BA80EF04EFB32
:101980003CB94F4A0421C9E72046DB6D984704461D
:10199000F6E7DFF8408100244A4888F80040FEF767
:1019A00053FD0EF0F7FC079BDFF82C9100EB030BC7
:1019B000CDF814800EF0EEFCABEB0000D7F8008001
:1019C0000028D8F8003001DD0F2C11D9DB6E40461D
:1019D00098473D48FEF738FD0023059A30460193AD
:1019E000194600921A46CDE90233FFF739FA98E713
:1019F00018A85B6F4146984718A802F0C7F958B974
:101A0000D8F8003040461B69984705200EF0E0FCEE
:101A100018A802F05EF9CDE72C4B18A908A8002DF4
:101A200018BF4B461D4602F097F9089B18A804936F
:101A300002F04CFA804648B118A90BA802F014FA3B
:101A4000DDF82CA018A802F063F901E0CA46F9E716
:101A5000049B4FF482711E4A00932B46CDE901A0EE
:101A60002BA857F01FFCB8F1000F02D00BA80EF006
:101A7000D5FA08A80EF0D2FA2BA8FEF7E5FC0CE088
:101A8000B8F1000F02D00BA80EF0C8FA08A80EF0AB
:101A9000C5FA18A802F01DF909E0013418A802F0EF
:101AA00018F90025E4B285E72BA80EF0B7FA53F039
:101AB00063FDEBE7EDE700BF1B020A08100D0A0803
:101AC00034020A084B020A0818020A08F20A0A0835
:101AD00058020A087C700324045D0A087FB5044696
:101AE00015480E46154602F051F928B9204602F075
:101AF00033F8204604B070BD0F4802F067F90028A3
:101B0000F4D001A832460C4902F0DCFA01A802F038
:101B1000C3FB40B12A4601A9204602F0F1FB01A80F
:101B200002F06EFBE5E7204602F016F8F7E701A8A1
:101B300002F066FB53F020FD9C8004242DE9F04167
:101B40009EB005460C46904614AE252200210AA8F8
:101B500057F0CEF825220021304657F0C9F801276A
:101B600025230AAA009728461946FEF7AAFF38B986
:101B70003B4A01212046FFF73FFA1EB0BDE8F08145
:101B800000972523324626212846FEF79AFF002893
:101B9000EED007A832460AA9FFF7A0FF07A802F077
:101BA00031F828B92F4A05212046FFF725FA4EE0E3
:101BB000B8F1000F3FD000230DF115022721284670
:101BC0008DF815300693ADF816300123FEF725FF8A
:101BD00070B39DF81530012B2AD8012306AA0521E0
:101BE000284600930DF11603FEF762FF00B39DF83F
:101BF000153007A8BDF81620B3FA83F306995B09E0
:101C000001F0EAFFA0B10025174F0AAB174A4FF4C5
:101C100080510096384657F045FB00212B46144A68
:101C20002046CDE90211CDE90071FFF719F90EE068
:101C3000104A0421B8E74FF47A420D4907A801F091
:101C4000F9FF002801DA0C4AF3E785B2DCE707A8C0
:101C500001F05CFF91E707A801F058FF53F08CFCFE
:101C60001FFE090843FE09087C700324A8FE09082A
:101C7000F065022469FE090889FE09082DE9F04192
:101C800000248EB0214B5FFA84F8E35C002B38D03F
:101C90001F4E204B204F002C18BF1E46304608F028
:101CA00087FB70B3314609A808F0C2FB00239DF8FA
:101CB0002C500DF12D01CDF81A300DF11A00CDF890
:101CC0001E300A9B8DF81950002BB4BF23F06042E0
:101CD000C3F30A02DB0F05922A468DF81830063549
:101CE00056F008FF0EF068FB002302904246039373
:101CF0000321009505AB3846FEF7B2FCCEE7012480
:101D0000C0E7002CFBD00EB0BDE8F081F25F0324E9
:101D10002C8904241C8D0424906500242DE9F04FA7
:101D2000924AD5B000230446CDE90721ADF818301A
:101D3000994217D9C81A03287AD9D61800208342A5
:101D400009D915183788B5F800C0BC4570D06D8822
:101D500004352844F3E704337088CD1AA84267D8C5
:101D60000344E5E764D1012306AA07A81946FEF754
:101D70006DFE064600285BD0BDF818500021DFF844
:101D8000F8E140F21D68AF1EDFF8F091DFF8F0A136
:101D9000DDE907C3081D984200F2A3800CEB0102A5
:101DA000A3EB000B5188594542D81288012A21D053
:101DB000302F3DD8DFE807F0193C3C3C3C3C3C3C34
:101DC00020243C293C3C2F3C343F464A3C4C4E505E
:101DD000575E3C3C3C3C3C3C3C3C3C3C3C3C6267B5
:101DE0006E71767D8183898B8E00022A02D02E3A15
:101DF000032A1DD80144CDE7042AFBD00E3AF7E7A9
:101E0000032AF7D0122A13D1F4E7153A032A8CBF1C
:101E10000022012213E01F2AECD0343A012AE8E71D
:101E2000203A92B2162A03D82AFA02F2D207E1D453
:101E30004F4A012150E2222A14BF00220122002A27
:101E4000D8D1F5E7322AD5D0252ADCE7242AF3E7D2
:101E5000332AF1E7252AEFE7A2F1250BBBF1010FA9
:101E6000C8D9372ACFE7283A92B2102AE0D829FAFF
:101E700002F2DBE722F00402282AC4E7032AB9D0E1
:101E8000053A062AB5E7033A92B20A2AD0D828FAC8
:101E900002F2CBE7043A012AB9E7142AC8D82EFA8D
:101EA00002F2C3E7A2F1190BBBF1050FA2D9053A63
:101EB000B4E7222A9ED0052AA5E7253AEBE7A2F14E
:101EC000250BBBF1020FF6D894E7282AB4E722F0DD
:101ED0000202D1E722F0020BBBF1280F8AD02D2A93
:101EE00091E79942A4D16B1E312B01F2DB82DFE82E
:101EF00013F032004900D90AD90AD90AD90AD90AF5
:101F0000D90AD90A030191010E024D02540264025A
:101F10006C02D002F7023B037103760325045F04D1
:101F2000CD045305D0058206D90AD90AD90AD90A9F
:101F3000D90AD90AD90AD90AD90AD90AD90AD90A89
:101F4000BF06D507A708ED089C09A209180A1F0AB1
:101F5000210A210A210AFFF741FC0023054A0193C7
:101F6000CDE9023300921A461946C1E09480032459
:101F7000F0020A087C700324280018000B000100FE
:101F80000B004000002301254FF4805202218DF800
:101F9000243007A88DF83030ADF8502009AA2793D7
:101FA0002B468DF83C50FEF738FD08B9A04A40E7B3
:101FB0009DF82430023B052BF8D82B460CAA312182
:101FC00007A8FEF72AFD0028F0D02B4614AA2E21E0
:101FD00007A8FEF73BFD0028E8D0BDF85030013BD4
:101FE0009BB2B3F57A4FE1D22B460FAA2F2107A857
:101FF000FEF713FD0028D9D09DF83C30012BD5D831
:102000002B4627AA302107A8FEF739FD0028CDD09E
:10201000884B279A9A42C9D80EF0BCF9279D864E64
:102020000544864FDFF850829DF82430023BDAB237
:10203000052A31D806EB031303F580339B685BB3A5
:102040009DF83C20BDF8503000329DF824107A48AD
:1020500018BF012200927A4AFEF76FFA9DF83C60A1
:102060000546784A78489DF83010002E18BF024681
:102070009DF824307548CDE90012754A4FF480511F
:1020800057F010F99DF82410ABB28A1ED1B2052981
:102090001AD90022154624E00EF07CF9281A0028EF
:1020A000CEDDFEF7BDFBFFF7E9FDFEF70FFB3B784A
:1020B0000BB1FEF74FFB98F800300BB1FEF710FCA8
:1020C00001200EF085F9AFE75B494FF6FF7001EB99
:1020D000021101F580318A68CD68824228BF02462C
:1020E00092B200210192594ACDE902510092544A1C
:1020F0002046FEF7B5FE4DE100230822012504210C
:102100008DF8243007A88DF8302009AA8DF83C30CE
:1021100027932B468DF85050FEF77FFC08B94D4AA7
:1021200087E69DF82430032BF9D82B4627AA0E21E9
:1021300007A8FEF7A4FC0028F1D0279B464A323BB3
:102140009342ECD82B460CAA0F2107A8FEF765FC9A
:102150000028E4D09DF83030073B012BDFD82B4618
:102160000FAA102107A8FEF758FC0028D7D09DF829
:102170003C30022BD3D82B4614AA112107A8FEF716
:102180004CFC0028CBD09DF85020531E012BC6D804
:102190009DF83030072B41F0A5819DF83C30002B95
:1021A00041F0848140F2133140F23333022A14BFEC
:1021B0000A461A4601F084B99DF83C30002B41F0E4
:1021C0009E8140F2334140F2134301F075B940F271
:1021D000314140F2114301F06FB920480CF08CF806
:1021E0001F4A01219DF82430184DD154279A00929E
:1021F0001C4A4FF48051284657F054F80023CDE98B
:102200000233CDE90053AEE61748E7E71748E5E7A4
:102210001748E3E7002314AA032107A88DF85030DC
:1022200027930123FEF7F9FB40BB124A01E600BFEA
:1022300010030A08E0930400906500240C70032446
:10224000F0650224CD0A0A08C80A0A087C70032433
:1022500028030A088B030A08CE083D00B49E042414
:1022600084800324A6030A08EC9F042424A10424E8
:102270005CA20424C1030A08147003249DF85030A2
:10228000012BD2D8012327AA122107A8FEF7F7FBBA
:102290000028CAD02799954B994208D0944B99426F
:1022A00005D0944B994202D0934B9942BDD19DF8F1
:1022B00050208F4BA2B9994208D08E4B994205D03D
:1022C0008A4B8D4A99420CBF194611468B4808F03B
:1022D00039F890B98A4A04212046FEF78DFE59E06C
:1022E000994208D0834B994205D0804B824A99424B
:1022F0000CBF194611468348E9E7834A01219DF83E
:102300005030824DD154279A0092814A71E7DFF80C
:10231000108200257D4F09F0F5FADFF84092DFF8D2
:1023200040A2DFF840B2C8F800007A483D70FEF7DE
:102330008BF8E9B2D8F8000008F057FAD0B190F85D
:102340006B30092B16D090F871305A46B4210393A4
:10235000B0F868300293B0F8663027A8CDE9005392
:10236000002E0CBF4B465346002656F09BFF27A875
:10237000FEF76AF80135052DDBD16748FEF764F8F2
:102380000023CDE90233CDE90073ECE5214607A82F
:10239000FEF788FE55B0BDE8F08F604B196851B16B
:1023A0005F4B186808F09BFA034620B901905D4A1C
:1023B000CDE90200D6E55C4A8DE70023574A136059
:1023C00001935A4ACDE90233CCE5594D2B78022BC3
:1023D00002D1584A03217FE72122002114A80126B7
:1023E00056F086FC4022002127A856F081FC00967A
:1023F000212314AA342107A8FEF763FB08B94E4A2B
:1024000017E50096402327AA352107A8FEF759FBB8
:102410000028F4D0092327AA14A948482E700AF0EE
:10242000ADFC21220021074614A856F061FC402291
:10243000002127A856F05CFCDFF800810DF0AAFF10
:1024400000F5EA46303640460AF056FB03280FD125
:10245000032F3B4F04D039480AF04EFB032810D11C
:102460000123384A3B700023CDE90233019379E51B
:102470000DF090FF301A0028EADD32200DF0A8FFA1
:10248000E1E700262D483E700AF0C7FA2E702E4A6A
:1024900021E700252D4E2E4FDFF8BC80AB5D7BB1D0
:1024A00018206843C35938449B6A98474FF43970E1
:1024B000684350F8083040445B6A98470023AB55A6
:1024C0000135082DEAD11D480AF0A7FA00231C4A5D
:1024D0001370174A137001931E4ACDE9023341E588
:1024E000214607A8FEF778FF54E700BF48E801003F
:1024F00090D0030020A1070040420F002C89042443
:10250000E3030A081C8D0424F25F03247C70032477
:1025100005040A084B020A0818020A08C01400241D
:10252000E880042493040A08A2040A08BA040A08EA
:10253000BC140024750A0A08CC040A082497042451
:102540000C700324E8040A0817050A082C1D00244F
:10255000341D00242F050A08F41D0024F20A0A087D
:10256000045D0A0856040A08002554AA0123222102
:1025700002F8B45D07A8FEF750FA48B39DF89C3006
:10258000072B25D89B4EF25C12B318229A4903EB15
:102590004300534301EBC000CB589B6A98479DF81A
:1025A0009C004FF43973434394481A581844526AB4
:1025B00090479DF89C30924A4FF48051F554914ECB
:1025C000304656F06FFECDE90255CDE90065ECE0EE
:1025D0008D4A2EE4214607A8FFF78AF9DAE601259D
:1025E000122200210FA856F083FB009512230FAA98
:1025F000242107A8FEF765FA08B9844A19E42046A1
:10260000FEF70AFD00283FF4C5AE814B0FA927A8AD
:102610001D682B689E6E0DF04CFD002227A92846F0
:10262000B047064627A80DF0F9FC0EB9794A52E6E4
:102630000DF0B0FE00F51C5714A8103701F0F0FBA8
:102640000DF0A8FE381A2B6800282CDD5B6F294698
:1026500027A8984727A801F099FB0646002830D004
:1026600027A90CA801F078FB06E027A801F031FBB0
:1026700014A801F02EFB5BE00FA909A80DF019FDCD
:1026800009A90CA80DF0E2FD064609A80DF0C6FC4C
:102690000CA80DF0C3FCA6B127A914A8FEF75AFA9E
:1026A00027A801F016FB2B682846DB6E984713E03D
:1026B00009A80DF0B3FC002ED7D00CA80DF0AEFC8D
:1026C000D3E72B6828461B69984705200DF080FE4C
:1026D00027A801F0FEFAB3E714A801F057FB28B9C8
:1026E0004D4A04212046FEF787FC1AE014A801F0A9
:1026F00057FC0028F4D0434D14A94848FEF72AFAA5
:102700000FAB474A4FF48051284656F0CBFD0023CB
:1027100020461A461946CDE90233CDE90053FEF7AB
:102720009FFB14A801F0D5FA34E627A80DF076FC3B
:1027300052F022FF99E7BEE797E799E7374801F0A3
:1027400025FB30B1354801F041FB10B1334801F0B1
:10275000D1FA27A8002501F063FB27A92F48FEF72F
:10276000F9F927A801F0B5FA27A801F0F5F92D4BE2
:10277000289A27A85A60299A9A6001F0C7F92A4B2B
:102780002A4A1D704FF0FF331360294A1360204B13
:1027900018680368DB689847264B1D70264B1D7030
:1027A000264B01950093CDE902552B46FFF7DBBB85
:1027B000002520462795ADF85050FEF72DFC002847
:1027C0003FF4E8AD009514AB27AA332107A8FEF724
:1027D0006FF900283FF4DEAD4FF0FF3313490B6073
:1027E000279B002B3FD0BDF85020062A2AD0144A40
:1027F000FFF71FBB2C1D0024341D0024F41D0024F2
:1028000043050A087C70032454050A0869050A0870
:10281000100D0A087D050A089C050A089C800424FE
:10282000B5050A0888800324F15F0324040000240E
:102830000800002414700324BC140024D7050A08DF
:1028400003060A08581E5A1D0A262B4610F8015F77
:10285000A5F13007092FCAD806FB03539042A3F114
:102860003003F3D10B60944B022118680368D3F84E
:1028700098309847914B2799914A002918BF1A46DA
:102880000023CDE902330193FFF76CBB2522002121
:1028900014A856F02DFA8B4801F078FA10B98A4A3C
:1028A000FFF7C7BA874801F091FA0028F7D0002354
:1028B00014AA07A8009325231946FEF702F9002859
:1028C000EDD09DF8503033B114A97E4801F086FB5D
:1028D00028B97E4AFFE47B4801F070FBF8E77C4FA3
:1028E0000025784EDFF81882DFF8189279483D709D
:1028F000FDF7AAFD304601F07FFBA8421ADD0FA8C4
:102900002A463146002D0CBFC246CA4601F086FB5E
:102910000FA801F0B3FC009053466F4A502127A83E
:1029200056F0C0FC27A8FDF78FFD0FA8013501F078
:1029300067FCDFE70025634EDFF8C481DFF8C49150
:102940006648FDF781FD304601F0C4FBA8427FF7E1
:1029500014AD0FA82A463146002D0CBFC246CA4608
:1029600001F0D8FB0FA801F01FF9009053465A4A16
:10297000502127A856F096FC27A8FDF765FD0FA863
:10298000013501F0C3F8DEE70FA801F039FCCFE60E
:102990000FA801F0BBF8CBE62522002114A80125E1
:1029A00056F0A6F92522002127A856F0A1F92523E3
:1029B000009514AA194607A88DF82450FEF781F84F
:1029C00010B9474AFFF735BA0095252327AA2621D3
:1029D00007A8FEF776F80028F3D02B4609AA37217E
:1029E00007A8FEF71AF80028EBD09DF82430012B39
:1029F000E7D80CA827AA14A9FFF770F80CA801F0D3
:102A000001F928B9374A04212046FEF7F5FA3AE0E1
:102A10009DF824300CA813B101F044F901E001F055
:102A200052F90028EED09DF824302F4D2F4EF3B1EF
:102A30000D9B6B600E9BAB6001239DF824103370DF
:102A4000234D2B4A2B4B2846002918BF13462A4AF0
:102A50004FF4805156F026FC002320461A461946B2
:102A6000CDE90233CDE90053FEF7FAF90BE00FA8E8
:102A700001F072F8109B0FA86B60119BAB6001F026
:102A800045F80023D9E70CA801F040F882E40CA82F
:102A90007FE70025012327AA282107A8ADF89C502D
:102AA0008DF830508DF83C508DF85050FDF7CEFF2A
:102AB00050BB124AFFF7BDB9100D0A0881020A087F
:102AC000BA020A089C80042422060A083C060A0866
:102AD0007C7003245B060A0869060A0870060A0867
:102AE00086060A08A7060A0888800324F15F0324E3
:102AF000C80A0A08CD0A0A08C9060A08DB060A0835
:102B0000045D0A08F20A0A0801230CAA292107A871
:102B1000FDF783FF0028CCD09DF83030012BC8D8BA
:102B200001230FAA2B2107A8FDF777FF0028C0D0AB
:102B30009DF83C30022BBCD82B4614AA382107A89C
:102B4000FDF76BFF0028B4D09DF85030012BB0D8B2
:102B5000BDF89C502846FDF7E5FC0028A9D09DF85B
:102B60003030012B03D19DF83C20002AA1D1A84A86
:102B7000515D012901D9A74A2CE40121E8B2515540
:102B80006BBB9DF83C308B4227D0022B14BF002139
:102B900003210DF061FCBDF89C0001229E4B9F4D6E
:102BA0001A549DF830309A1A534253419C4A135498
:102BB000C0B20DF049FD00309A4A18BF0120BDF89F
:102BC0009C309949D0549DF83000984A002818BF8D
:102BD0000A460092964AFFF70CBB0221D9E70DF096
:102BE0003BFC9DF850109DF89C00003118BF01215E
:102BF0000DF0B6FCCFE70025012327AA282107A85E
:102C0000ADF89C508DF85050FDF720FF10B9894A5F
:102C1000FFF70FB9012314AA2C2107A8FDF7FDFE29
:102C20000028F4D09DF85070032FF0D8BDF89C60B8
:102C30003046FDF777FC0028E9D0774B9B5D002BF1
:102C4000E5D07D4BF0B29F550DF0FEFC0030BDF895
:102C50009C30744A4FF4805118BF01206F4ED054FD
:102C600030469DF850200092744A56F01BFBAAE4AF
:102C70000023FF22032107A88DF814308DF81530AA
:102C80008DF816308DF8172005AAADF81A300C9380
:102C90000F931493ADF824300123FDF7BEFE10B955
:102CA000674AFFF7C6B89DF81430012BF8D8012306
:102CB0000DF11A020A2107A8FDF7C8FE0028EFD07F
:102CC00001230CAA072107A8FDF7D9FE0028E7D0A9
:102CD0000C9B5C4AA3F57A739342E1D801230DF172
:102CE0001502082107A8FDF798FE0028D8D09DF806
:102CF0001530032BD4D801230DF11602092107A8A2
:102D0000FDF78BFE0028CBD09DF81630012BC7D8DD
:102D100001230DF117020B2107A8FDF77EFE002805
:102D2000BED001230FAA062107A8FDF7A8FE0028A0
:102D3000B6D0002314AA052107A8009309ABFDF71C
:102D4000B7FE0028ACD0BDF824700F9B9F4238BF5F
:102D50001F46B7F57A4F58D89DF81480BDF81A5021
:102D6000B8F1000F284614BF03260226FDF7DAFB50
:102D700000284AD0264B5A5D0AB1964245D15E558D
:102D80000025314B314EB8F1000F08BF1E463368A5
:102D90003046DB6A984701219DF81A000DF05CFB74
:102DA00001219DF81A000DF0DBFB33680C993046C9
:102DB000D3F81C809DF816309DF81520B3FA83F3E4
:102DC00027918DF8A0205B098DF8A2508DF8A130D5
:102DD00027AB93E80600C047DFF8788029469DF8C6
:102DE0001A000DF0BDFBBD4236D0BDF824203046A0
:102DF000336895429B6836BF149A9DF81710515D51
:102E0000984708F805000135EDE7114AFFF7E2BAE7
:102E10002865002405070A08157003247C70032424
:102E2000C414002453810424E3020A08EA020A08B5
:102E30001F070A0839070A08EC80042463070A08F8
:102E40007B070A0898ECFA02F49604240C970424F1
:102E500090070A08F065022401219DF81A000DF080
:102E60007FFB33683046A34E1B6A98479DF81520B8
:102E70009DF814304FF48051029230460C9A019222
:102E8000BDF81A2000929C4A56F00CFA0021ABB211
:102E9000CDE90211CDE90061FFF729B90023012531
:102EA0000DF1170203218DF8173007A88DF81A309D
:102EB0000F9314932793ADF830302B468DF82450A0
:102EC000FDF7ABFD10B98D4AFEF7B3BF9DF8173083
:102ED000012BF8D82B460DF11A020C2107A8FDF79B
:102EE0009CFD0028EFD09DF81A30083B6F2BEAD8E4
:102EF0002B460FAA072107A8FDF7C1FD0028E2D045
:102F00000F9B7F4A934202D07E4A9342DBD101233A
:102F100014AA062107A8FDF7B2FD0028D3D0149B00
:102F2000202BD0D8012309AA0D2107A8FDF775FD94
:102F30000028C8D09DF82430012BC4D8002327AA2C
:102F4000052107A800930CABFDF7B2FD054600284C
:102F5000B9D0BDF83030202BB5D89DF817206A4B7A
:102F60006A4E002A08BF1E4633683046DB69984720
:102F700033680F9930469B6A9847BDF830300BB3E1
:102F8000336830469DF81A10DB6A98473368BDF8FD
:102F900030203046DB6C27999847BDF83030984296
:102FA00002D05B4AFFF797B93368149A1B6B22B1C2
:102FB0009DF82450B5FA85F56D09294630469847A5
:102FC0000028EED1149A9DF81A10002A36D03368E2
:102FD0003046DFF86C919D6B0123A84700253368CC
:102FE0001FFA85F830461B694746984718B1149B6D
:102FF0000135434518D8149BBB421CD10F9A4FF49E
:1030000080513C4D01929DF81A2028469DF81730BA
:103010000092404A56F046F900214346CDE902119C
:10302000CDE90051FFF763B8336830465B699847D4
:1030300009F80800D3E7384AFFF74DB99046DDE7B5
:1030400000230FAA042107A88DF83C302793ADF880
:1030500050300123FDF7E1FC10B9304AFEF7E9BE1C
:103060009DF83C30032BF8D82D4AD35C002BF4D0CC
:10307000012327AA052107A8009314ABFDF718FD2B
:103080000028EAD09DF83C302799BDF85020032B4A
:1030900013D8DFE803F0020C0E1022480BF016FAEA
:1030A000BDF8503083420AD01F4AFFF714B91F48B9
:1030B000F4E71F48F2E71F48F0E70020F0E79DF82B
:1030C0003C300C4D00901C4AFFF793B800230DF1E3
:1030D0001A02032107A88DF81A308DF824300F93B7
:1030E0001493ADF830300123FDF797FC50BB134A21
:1030F000FEF79FBE7C700324BB070A08F3070A088B
:10310000A0860100801A0600CC970424449C042465
:103110000B080A0849080A081C080A0887080A0850
:1031200084800324B49E0424B2080A08EC9F04247B
:1031300024A104245CA20424CC080A08E5080A0897
:10314000F06502249DF81A30012BD0D8A74AD35C31
:10315000002BCCD001230FAA132107A8FDF78FFC69
:103160000028C4D0012309AA142107A8FDF755FCA3
:103170000028BCD09DF82420012AB8D80F9B002A33
:1031800036D1B3F5006FB2D2012314AA052107A8E6
:1031900000930CABFDF78CFC0028A8D0BDF83000E4
:1031A0000828A4D89DF824200F9B22B323F0604365
:1031B00043F000438E4DC2B214998DF8A420CDE99E
:1031C00027530023CDF8A530CDF8A93020B119B18F
:1031D0000DF1A50055F08EFC9DF81A3027A96BB9AA
:1031E000844807F0B7F800280ADC834AFFF773B871
:1031F000B3F1005FC7E7C3F30A03DBE77F48F0E7FB
:103200009DF824507E4A7F480F99002D18BF024632
:103210009DF81A307C4DCDE900127C4A4FF4805164
:10322000284656F03FF8FEF7E9BF214607A8FEF70B
:1032300093F9FFF7AFB800230FAA222107A88DF852
:103240003C302793ADF850300123FDF7E6FB10B971
:103250006F4AFEF7EEBD9DF83C30072BF8D86D4A5B
:10326000D35C002BF4D0012327AA052107A80093E3
:1032700014ABFDF71DFC0028EAD09DF83C20664BFE
:1032800011B29B5CA3B91823644D01EB410027994F
:103290005343BDF8502005EBC000EB585B689847DE
:1032A0000546BDF85030AB422AD05D4AFFF713B84F
:1032B0004FF439765B4F5C4DC1EBC11106FB02F058
:1032C00035F81220C3593844584DDB6A05EB4101EB
:1032D000984798B19DF83C00BDF85020704327995D
:1032E000C35938445B68984705469DF83C007043D5
:1032F000C35938441B6B98470028D2D10025D0E72A
:10330000414E4FF480519DF83C3000953046484A7C
:1033100055F0C8FF0023CDE90233CDE90063FEF785
:1033200022BE0022214607A8FEF708FCFFF732B8AC
:103330000122F7E70027012314AA282107A8ADF8E6
:1033400050708DF83C702797FDF780FB40B1BDF8B9
:1033500050603046FDF7E6F810B1364B9B5D13B96F
:10336000354AFEF766BD302D19D1F0B2334D0DF060
:103370006BF90030244E4FF4805118BF0120BDF886
:1033800050302F4A2870304655F08CFF01232A46D2
:103390003946CDE90277CDE90067FEF7A9BE0123E2
:1033A0000FAA2A2107A8FDF738FB58B19DF83C3039
:1033B000012B07D8BDF85030224AD35C2BB9224AE2
:1033C000FFF708B8214AFEF734BD322D44D101235E
:1033D00027AA2D2107A8FDF752FB20B1279B1C4AE5
:1033E000013B934238D91B4AFEF723BDF25F032409
:1033F000BCFC09082C890424FF080A081C8D04243D
:10340000CD0A0A08C80A0A087C7003241D090A08A4
:103410004B090A082C1D00247C800324341D002441
:1034200066090A08F41D00241C1D00242B15002425
:1034300080090A08157003249E090A08F065022411
:10344000CC090A08C4140024ED090A08DA090A089C
:103450003F420F00150A0A089DF83C109DF85000E5
:10346000003118BF01210DF07BF8322D0BD12798C8
:103470000CF0B0FF9DF83C109DF85000B1FA81F1BE
:1034800049090DF06DF823499DF83C00224ABDF82A
:103490005030002818BF0A462799204DCDE9002159
:1034A0001F4ABBE61F4A0221FEF716BF012B1FD1A0
:1034B00040F2313140F21133022A0CBF0A461A465B
:1034C0009DF824302799032B3EF68AAE01A050F8D0
:1034D00023F000BFDB210408092204080D220408A0
:1034E00011220408082B3EF467AE40F21342E7E7CE
:1034F000022BFAD140F2323140F21233DCE7012BD9
:103500003EF465AE022BF0D140F2124140F232435C
:10351000FEF74CBEC80A0A08CD0A0A087C700324CC
:10352000310A0A085C0A0A082DE9F04F6D4D87B090
:103530006D480BF041F8002800F0BD806A480BF0A0
:10354000ADF8041EC0F2B78068490A6840F0A88050
:10355000002AEDD02346DFF898E1A04623E0F818D2
:10356000824226D307F1FF3C1B1B204654FA8CFCF9
:103570002B4484450BD0B0F5805F1AD20130013660
:1035800000EB0E0413F8009004F8019CF1E7FF2F04
:1035900007D0B24205D9B0F5805F0AD200F80E809C
:1035A000013004463346934206D25F5D5E1C002F15
:1035B000D5D100230B60BBE70023132C0B60B7D9D8
:1035C0004B4B01AA03F1100792461868083353F8D1
:1035D000041C1646BB4203C63246F6D118680422C4
:1035E00044493060504655F053FADDF80A80E8B996
:1035F0009DF80830012B19D19DF80930012B15D108
:10360000BDF81090B9F1000F10D0BDF80E60B145B3
:103610000CD9BDF81270A4F11400874206D13649C6
:103620005046FDF7B5F9059B984207D0334A012172
:103630004046FDF7E1FCFCF7C3FE79E7304C36B9B4
:10364000FCF7BEFE2F4BC4F80080A3F8009023685F
:1036500043450FD12B4B1B884B450BD12A4C23885C
:10366000B34207D1DFF8B4B0DBF800A0CAF580336D
:103670009F4201D9254ADAE7013625481E493A46D4
:10368000B6B2504455F036FA07EB0A01B145268030
:10369000CBF800107FF44CAF4046FEF73FFBCAE783
:1036A00041F213039A4202D900230B60C3E7531C73
:1036B000AC540B603CE7FDF7B3F8FEF7DFFAFDF71B
:1036C00005F8144B1B780BB1FDF744F8124B1B782F
:1036D00023B107B0BDE8F04FFDF702B907B0BDE870
:1036E000F08F00BF1455002494A30424F45F032436
:1036F00014450024CD0B0A08284500240C0C0A08A8
:10370000948004249A80042498800424210C0A08BC
:10371000948003240C700324147003241070032479
:10372000014809F043B900BF24970424014809F077
:103730003DB900BF24970424704710B504465C21AE
:103740003EF002FA204610BD0B4A1F210260002203
:10375000C0E90921C0E90B2280F8342080F8352027
:103760000264A0F8442080F84620C0E90E22C0E997
:103770001222C0E915227047500C0A0800231F22AC
:10378000036380F83530036480F84630C0E90A23CB
:10379000C0E90E33C0E91233C0E9153370478B6AB4
:1037A0008362CB6AC3620B6B036391F8343080F899
:1037B000343091F8353080F835308B6B8363CB6BC8
:1037C000C3630B6C0364B1F84430A0F8443091F843
:1037D000463080F846308B6C8364CB6CC364B1F8A0
:1037E0005030A0F850304B6D43658B6D836570474A
:1037F00008B5FFF7D4FF08BD70B586B005460E4684
:10380000684603F063FFEC6C6846002CCCBF0234C2
:10381000002403F099FF0230241AA86A241808D45F
:10382000AC626846AE6403F08FFFE864012006B026
:1038300070BD0020FBE710B5036C23B190F8464043
:10384000023304B10233941C1B1B846A1B194FF012
:10385000000457BF8362204680F84640C0E90F123B
:1038600058BF012010BD30B5046C24B190F846500B
:10387000023405B102341D1D641B856A64195FBFE3
:10388000C0E90F2301238462A0F844104EBF00203A
:1038900080F84630184630BD30B5846D1D1D002CB3
:1038A000CCBF04340024641B856A641957BF84624A
:1038B0000020A0F85010C0E9152358BF012030BDEA
:1038C00070B50546806B0E4688B1047814B156F089
:1038D00017FA841C304656F013FA0230241AA86AEC
:1038E00024185DBFAC620120AE63002070BD0446A9
:1038F000F0E790F83530826A002B0CBF6FF00203BE
:1039000000239B185FBF8362012380F8341080F886
:10391000353054BF18460020704704307047406A65
:10392000704790F83500704738B50446406A154630
:10393000C0F11F03934208DB0430204455F0DAF84D
:10394000626A01202A44626238BD0020FCE770B53B
:103950000446406A0E461D4611460233C0F11F025E
:103960009A420FDB23186A1C1A71821C06306262AD
:103970002A465E71204455F0BDF8636A01202B444D
:10398000636270BD0020FCE770B586B005466846EE
:1039900003F09CFE684603F0D7FE02280446684602
:1039A000CCBF0626022603F0CDFE23460246314652
:1039B0002846FFF7CCFF06B070BD13460A46FF212C
:1039C000FFF7C5BF70B588B0064610461D4608AC67
:1039D0001A4624F8201D01460DF1020055F08AF820
:1039E000AB1C2246FF213046FFF7B1FF08B070BD87
:1039F00070B588B0064610461D4608AC1A4624F835
:103A0000201D01460DF1020055F074F8AB1C224652
:103A100016213046FFF79BFF08B070BD07B50123A4
:103A200002AA02F8011D1946FFF791FF03B05DF8E5
:103A300004FB70B505460E461446104656F060F974
:103A40003146034622462846BDE87040FFF77FBF57
:103A500070B5054608460C4656F052F91D2807D9A0
:103A6000224628461D230821BDE87040FFF76FBF9E
:103A7000224628460921BDE87040FFF7DABF38B575
:103A80000023C16A0546436229B1026B1AB1BDE841
:103A90003840FFF749BF95F835307BB395F83410BF
:103AA0002846FFF7BBFF0446A96C21B12846FFF763
:103AB0006BFF0440E4B2E96B61B12B6C53B195F834
:103AC0004620EAB10A462846B5F84410FFF77AFFC7
:103AD0000440E4B26A6D42B1AB6D33B1B5F8501039
:103AE0002846FFF785FF0440E4B2A96B21B12846C0
:103AF000FFF7AEFF0440E4B2204638BD0124D3E70F
:103B00001A462846FFF759FFE2E700000C4B10B5B4
:103B100004460360406838B100F022FC20B96068B8
:103B200010B103685B689847A06838B101F0F7F9F5
:103B300020B9A06810B103685B689847204610BDA3
:103B4000600C0A0810B50446FFF7E0FF0C21204680
:103B50003DF0FAFF204610BD024A02600022C0E993
:103B600001227047600C0A08064B10B5C0E900310D
:103B700000230446836011B1084600F0ECFB2046A8
:103B800010BD00BF600C0A08064B10B5036000238F
:103B90000446C0E9013111B1084601F0BBF92046E5
:103BA00010BD00BF600C0A080346406808B100F071
:103BB000C9BB986808B101F0ABB90148704700BFB4
:103BC000045D0A080346406808B100F0D1BB98685C
:103BD00008B101F0CDB9704710B4446824B1204653
:103BE0005DF8044B00F0D0BB806818B15DF8044B61
:103BF00001F0C4B95DF8044B7047806808B101F06A
:103C000011BA7047436823B98068003018BF01209B
:103C100070470120704708B5836823B1FFF7D2FFD2
:103C2000C0F3400008BD1846FCE7806808B101F009
:103C300011BA7047F8B5054640680E46174618B3E6
:103C400000F0A0FBB842A8BF38460446686800F000
:103C500097FB01462246304654F04CFFA86888B1D5
:103C600001F0F0F990B9A8683C4601F085F9874267
:103C7000A8BF0446A86801F07DF9014622463046F7
:103C800054F038FF2046F8BD0446E7E72846FFF722
:103C9000C2FF0028E7D02846FFF7C7FF0028E2D17F
:103CA0000446EFE710B584685CB1FFF78BFF10F0B6
:103CB000200F204614BF02210121BDE8104001F071
:103CC00067BA204610BD806810B1002101F060BACB
:103CD00070477047024B186803681B69184700BF9C
:103CE00000100A08024B186803685B69184700BF98
:103CF00000100A08054B1B6810B41A680179546952
:103D0000421D184623465DF8044B1847540E0A0816
:103D10000B4B10B5044618680368621D21799B6A35
:103D200098474FF6FF730146984206D0054B186836
:103D30000268BDE81040926A104794F94B0010BD2C
:103D4000540E0A0800100A0810B504464C213DF034
:103D5000FBFE204610BD000010B504468AB048792D
:103D60004B7A8A7A039088790290C879019005A8E5
:103D7000097A0091044955F0DDFA05A920460CF0B6
:103D800098F920460AB010BD680C0A08002307B550
:103D90000622694605300093ADF8043054F078FEF1
:103DA000003018BF012003B05DF804FB08B50279AC
:103DB0000B799A4208D106220531053054F068FE8D
:103DC000B0FA80F0400908BD0020FCE70A4B10B5AE
:103DD0000446186803681B699847236820461B6AD5
:103DE000984740B1054B621D217918680368BDE80A
:103DF00010405B6B184710BD00100A08540E0A08EB
:103E000008B502790B799A4208D1062205310530AE
:103E100054F03EFE003018BF012008BD0120FCE731
:103E2000064A7F210260002280F84B10C2720273A2
:103E3000C0F80520A0F80920704700BF900C0A08C0
:103E40000171002110B5C17201737F21054C80F80A
:103E50004B1004601168C0F805109288A0F8092082
:103E600010BD00BF900C0A082DE9F0410F4616491D
:103E700005460CF01EF93A7B00218A4220DD7B18B2
:103E800001F10208597B9B7B4C1E083B012B0FD88C
:103E9000214628460CF0E1F80026B44210DD08EB7C
:103EA000060328463B44597B0CF078F90136F4E7C9
:103EB00004EB0801E1E728460CF0B0F851F05CFB98
:103EC0002846BDE8F08100BF045D0A081FB5014621
:103ED00001A8FFF7C9FF0398041C01A818BF01241B
:103EE0000CF09CF8204604B010BD00002DE9F04F06
:103EF000002485B00E462549A046074601920CF0E5
:103F0000D8F8337BA3423DD9631C5FFA83FA331997
:103F100093F80DB006EB0A035B7B9A1E012A1DD9AC
:103F2000063B012B25D81025023405FB05F34FF085
:103F30000009E4B200930BF1FF330D340293EBB2AE
:103F400034440393029B4B4513DD019B984507D0F6
:103F5000009B08F10108A9441C44F3E70225E3E7AC
:103F60000399204603F0F2FB014638460CF0D9F8DD
:103F7000EEE70BEB0A04E4B2C3E738460CF04EF868
:103F800051F0FAFA384605B0BDE8F08F045D0A0832
:103F900010B504460022FFF7A9FF204610BD00001F
:103FA000054B1B6810B41A6801791469421D184644
:103FB00023465DF8044B1847540E0A08064B014689
:103FC00018684A1D10B4036809799C690023A44647
:103FD0005DF8044B604700BF540E0A08054B30B42F
:103FE000044618680368621D9D690B462179AC463A
:103FF00030BC6047540E0A08074B1B6810B51A689E
:104000000179D46A421D1846A04718B1BDE8104096
:1040100001F0EFB910BD00BF540E0A080E4B70B589
:104020000446186815464A1D03680979DB6A9847F3
:10403000064668B101F0DDF9A84209DD294630469F
:1040400001F0D9F90146204600F008F9204670BD7C
:10405000204600F0FBF8F9E7540E0A082DE9F84F66
:104060009946174B0546904618684A1D097903681A
:10407000DB6A98470746F0B1002401F0BAF982469E
:104080002646544517DA2146384601F0B4F98346EE
:1040900000F03EFF0146404655F0B4F948B94E45A0
:1040A00006D15946284600F0D9F82846BDE8F88FD1
:1040B00001360134E5E7284600F0C8F8F5E700BF0F
:1040C000540E0A0810B504460023FFF7C7FF204628
:1040D00010BD0000F8B50E4B01791B681A68D46A50
:1040E000421D1846A047064678B1002401F081F928
:1040F00007462546BC4209DA2146304601F07BF9E5
:10410000013401F0F5F90544F4E705462846F8BD09
:10411000540E0A081A4B2DE9F04705461868174651
:104120004A1D03680979DB6A9847804618B3002462
:1041300001F05FF9814626464C451CDA214640468F
:1041400001F059F9824601F0D3F90021814206EBD2
:1041500001030DDA9F4209D1504601F0CBF9014627
:104160002846FFF711FD2846BDE8F0870131EDE74D
:1041700001341E46E0E72846FFF7EEFCF3E700BFF8
:10418000540E0A0808B5134602798A4208D106225D
:104190001946053054F07CFCB0FA80F0400908BDA7
:1041A0000020FCE710B50446012000FA01F122735B
:1041B00004F10D00E172194654F09CFC9DF90830A1
:1041C00084F84B3010BD70B50D461146C27A0446D6
:1041D0001E4642F01002C2722A46007B0D30204477
:1041E00054F088FC237B84F84B601D44257370BD1C
:1041F000C37A13F0180F14BF01200020704700008D
:104200000C4B10B504460360406838B100F0A8F8C4
:1042100020B9606810B103685B689847A06838B13E
:1042200000F07DFE20B9A06810B103685B68984774
:10423000204610BDC40C0A0810B50446FFF7E0FF85
:104240000C2120463DF080FC204610BD024A026051
:104250000022C0E901227047C40C0A08064B10B5C1
:10426000036000230446C0E9013111B1084600F0A3
:1042700051FE204610BD00BFC40C0A08034640682A
:1042800008B100F05FB8986808B100F041BE01487D
:10429000704700BF045D0A08436823B98068003096
:1042A00018BF01207047012070472DE9F84F0546DF
:1042B00088680F4691469A46F0B1002401F018F93B
:1042C00080462646444517DA2146B86801F012F9BF
:1042D000834600F01DFE0146484655F093F848B964
:1042E000564506D159462846FFF74EFC2846BDE8FC
:1042F000F88F01360134E5E72846FFF72DFCF5E796
:1043000010B504460023FFF7D0FF204610BD4068DB
:10431000704770470020704710B5044620213DF0DB
:1043200013FC204610BD0000054B10B5044640F8B4
:10433000043B03F0CBF900232046E36110BD00BF2E
:10434000D40C0A08043003F0FBB9043003F0FAB9C6
:10435000043003F0F9B9C3690133C36118467047EB
:10436000C369013BC3611846704742F603007047BA
:1043700090F82000704790F821007047406A70471D
:10438000806A7047808D7047436A9A42A8BF1A4678
:104390002DE9F0410446828592B2806A0F4654F0BE
:1043A000A9FB94F82E300BB1636AA38594F82030F2
:1043B00098060FD5A28E91070CD51F4B218E186839
:1043C000013103685D6DA38DAC46A26A89B2BDE878
:1043D000F0416047DA0609D5A38EDB0706D5164BF8
:1043E000218E1868013103681D6DECE794F83230B6
:1043F000F3B1124B2146186803685B6A9847104B6B
:1044000001463A461D682B6828461E6BA38DB047AF
:10441000094B186803681B6B984748B9094B186823
:1044200003689B68984718B12B6828465B6D9847CE
:10443000A08DBDE8F08100BF540E0A08A00F0A0845
:10444000100D0A08540F0A0838B505460C460846F0
:1044500055F056FC214602462846BDE83840FFF795
:1044600093BF01867047008E7047008E013080B286
:104470007047806B7047836B994208D2C36B0022F0
:10448000914202D05B680132FAE718687047002059
:1044900070470000114B03600B7903710B4630B578
:1044A00053F8052F01F14904C0F8052000F10D0271
:1044B0009B88A0F80930CB7AC3720B7B037301F1A0
:1044C0000D0353F8045BA34242F8045BF9D11B8847
:1044D000138091F94B3080F84B3030BD900C0A08B6
:1044E00038B5044608200D463DF0FAFA0023C0E92D
:1044F000005363682BB960602368A06001332360B8
:1045000038BDA3685860F7E770B5044600254068D9
:104510002368AB4206D9466808213DF015FB0135FA
:104520003046F5E70023C4E90033A36070BD000006
:10453000F8B5044615461F46FFF7F6FE264B002148
:10454000B7F5007F84F8205023604FEA1523A1853A
:104550004FF0100284F821303B46A8BF4FF400739F
:10456000218684F8321004F1440063629DF818300B
:1045700084F8331084F82E30A1862164C4E90E112A
:1045800054F0B6FB15F0300F20D02C2004F1380683
:104590003DF0A6FA022304F134021049054600F06A
:1045A000EBF82846FFF7D7FE29463046FFF798FF7D
:1045B0000CE02C2128463DF0C7FA3046FFF7A4FF57
:1045C0002046FFF7A6FE50F0D7FFF6E7384653F037
:1045D00045FFA0622046F8BDF00C0A08E00C0A086E
:1045E00070B5154B044600250360A36B9D4212D2A3
:1045F000E36B0022954202D05B680132FAE71E6845
:104600003046FFF7ADFE20B91EB1336830465B6817
:1046100098470135E9E704F138052846FFF774FFAC
:10462000A06A08B153F022FF2846FFF76DFF20462D
:10463000FFF76FFE204670BDF00C0A0810B5044667
:10464000FFF7CEFF542120463DF07EFA204610BDF4
:10465000F0B5C56C97B0044617461E467DB103A859
:10466000FFF718FF21466846FFF77EFA694603A860
:10467000A8476846FFF74AFA03A8FFF72AFBA16A92
:1046800030461C9A394454F035FA17B0F0BD6846EC
:10469000FFF73CFA03A8FFF71CFB50F06DFFF9E7AA
:1046A00070B50E4611460122044696B080F83320BC
:1046B0001A46FFF769FE256D85B1314603A8FFF75D
:1046C000E9FE21466846FFF74FFA694603A8A84766
:1046D0006846FFF71BFA03A8FFF7FBFA16B070BD98
:1046E0006846FFF713FA03A8FFF7F3FA50F044FF08
:1046F000F9E702F00302838E934230B5044697B087
:1047000017D08286002A0CBF4422402202445568FA
:104710007DB103A8FFF7BEFE21466846FFF724FAE5
:10472000694603A8A8476846FFF7F0F903A8FFF712
:10473000D0FA17B030BD6846FFF7E8F903A8FFF7D5
:10474000C8FA50F019FFF9E74FF424507047000001
:10475000034B10B504460360FFF7DBFD204610BD98
:10476000040D0A0810B50446FFF7F2FF2C2120467D
:104770003DF0EAF9204610BD70B51D4604461646C8
:10478000FFF7D2FD064BB5F5007F26622046236079
:10479000A8BF4FF4007500236562238570BD00BF7C
:1047A000040D0A08406A7047006A70470185704727
:1047B000024B186803681B69184700BF00100A08FD
:1047C000024B186803685B69184700BF00100A08AD
:1047D000064B186810B503681B699847044B1868A6
:1047E0000368BDE810401B6B184700BF00100A08A3
:1047F000540E0A08064B186810B503681B699847E1
:10480000044B18680368BDE81040DB6B184700BF15
:1048100000100A08540E0A08024B186803689B6CC3
:10482000184700BF540E0A080C30704768307047B4
:10483000024B186803681B69184700BFA00F0A08DD
:10484000024B186803685B69184700BFA00F0A088D
:10485000024B186803689B69184700BFA00F0A083D
:10486000024B186803681B69184700BF540F0A08F9
:10487000024B186803685B69184700BF540F0A08A9
:10488000024B186803685B6A184700BF540F0A0898
:10489000074B10B50446186803681B699847054B19
:1048A000204619680B68DB6C9847204610BD00BF96
:1048B00000100A08540E0A08074B10B50446186881
:1048C00003681B699847054B204619680B689B6A6B
:1048D0009847204610BD00BF00100A08540F0A0870
:1048E000024B18680368DB6A184700BF540F0A08B8
:1048F000024B186803689B69184700BF04120A0836
:10490000024B18680368DB69184700BF04120A08E5
:10491000024B186803681B6B184700BF540F0A0846
:10492000024B18680368DB68184700BF540E0A087A
:10493000024B186803681B6A184700BF04120A0874
:10494000024B186803685B6A184700BF04120A0824
:10495000024B1B68C3F8F010704700BF00100A0834
:10496000024B1B68C3F8F810704700BF00100A081C
:10497000024B1B68C3F8F410704700BF00100A0810
:10498000024B1B68C3F8EC10704700BF00100A0808
:10499000024B1B68C3F8FC10704700BF00100A08E8
:1049A000024B1B68C3F80011704700BF00100A08D3
:1049B000024B18680368D3F89C30184700100A08A7
:1049C000024B18680368D3F8A030184700100A0893
:1049D000F0B5012187B004460A200BF087FD0021C5
:1049E0000A200BF003FE4FF4FA700BF0F1FC0121EA
:1049F0000A200BF0FBFD4FF4FA700BF0E9FC294B99
:104A00001D682B6828469B689847064620B923688E
:104A10002046DB6898470DE064200BF0D9FC2B683A
:104A200028469B699847064638B1236800262046E9
:104A3000DB689847304607B0F0BD05AA2B680DF13A
:104A40000D01284601920DF11202009204AADF69BD
:104A50000DF10E03B8470028D9D12B684FF0FF3273
:104A60002846D96A6FF0404388470028CFD12B6889
:104A700040F2FF322846196B00238847064600287B
:104A8000D3D12B680DF10F020DF1160128465B6B97
:104A900098470028BBD1044B0126186803689B681F
:104AA0009847C7E700100A08A00F0A080C4B10B57A
:104AB000044618680368DB6898470A4B186803685F
:104AC000DB68984700210A200BF090FD04F10C00F0
:104AD000FEF754FE04F16800BDE81040FEF74EBE3C
:104AE000A00F0A0800100A0810B500238CB0044675
:104AF000059305A9ADF818300F4B186803681B6AB9
:104B000098479DF814109DF8183007A803919DF858
:104B100015109DF8192002919DF8161001919DF82D
:104B200017100091054954F005FC07A920460BF029
:104B3000C0FA20460CB010BD00100A08680C0A0824
:104B40000C30FEF759BE70B50368044608469D6AEE
:104B5000FFF794FB014620462B46BDE870401847FE
:104B60000C30FEF799BE0C30FEF765BE0C30FEF738
:104B70007ABE6830FEF7A4BE6830FEF739BE10B5C5
:104B800000F10C042046FEF733FE2046FEF7C9FE76
:104B900028B920460621BDE81040FEF7AABE10BD88
:104BA0002DE9F743044600F10C0568342846FEF76A
:104BB00066FF2046FEF763FF0E4B28461E683368EB
:104BC000DF68FEF7AAFE80462846FEF7A8FE0546E7
:104BD0002046FEF7A2FE81462046FEF7A0FE4B4689
:104BE000C0B24146EAB200903046B84703B0BDE8D3
:104BF000F08300BF540F0A087FB50C4B164601A87E
:104C00001C6823689D690BF082FA324601A9204690
:104C1000A84704E001A80BF001FA50F0ADFC0446EF
:104C200001A80BF0FBF9204604B070BD540F0A0830
:104C30007FB50C4B164601A81C682368DD690BF094
:104C400066FA324601A92046A84704E001A80BF005
:104C5000E5F950F091FC044601A80BF0DFF920467D
:104C600004B070BD540F0A087FB50C4B164601A85E
:104C70001C6823681D6A0BF04AFA324601A92046D7
:104C8000A84704E001A80BF0C9F950F075FC0446F0
:104C900001A80BF0C3F9204604B070BD540F0A08F8
:104CA00002290BBF044B054B186818680BBF03683B
:104CB00003685B6B9B6D1847540F0A08540E0A0873
:104CC00070B5054604460D4B05F1680644F80C3BEB
:104CD0002046FEF739FD3046FEF736FD0621204618
:104CE000FEF707FE08E03046FEF726FD2046FEF7F9
:104CF00023FD50F041FCF9E7284670BD1C0D0A0861
:104D000010B5054C2046FFF7DBFF2046034A044957
:104D1000BDE810403CF08ABCBC81042400000024A3
:104D2000254D0408064B10B5044640F8683BFEF7D5
:104D300003FD04F10C00FEF7FFFC204610BD00BF90
:104D40001C0D0A0810B50446FFF7ECFFC4212046ED
:104D50003CF0FAFE204610BD0E4B196810B594B019
:104D60000B6801A8DB6C984701A8FFF70FF848B162
:104D700001A8FEF7CDFF044601A8FEF7AAFF2046D2
:104D800014B010BD7F24F7E701A8FEF7A2FF50F092
:104D9000F3FB00BF540E0A084FF420507047000088
:104DA00010B50446FFF7C0FA044B204623600023E9
:104DB000C4E90833C4E90A3310BD00BFE80D0A088E
:104DC000018442847047008C7047408C7047406A71
:104DD0007047436A994208D2836A0022914202D006
:104DE0005B680132FAE7186870470020704738B5F1
:104DF000044608460D46FFF7AEFA08203CF070FE68
:104E00000023C0E90053A36A2BB9A062636AE06281
:104E10000133636238BDE36A5860F7E770B5044652
:104E2000002540682368AB4206D9466808213CF05B
:104E30008BFE01353046F5E70023C4E90033A3605B
:104E400070BD10B504462430FFF7E8FF002323624D
:104E500010BD000070B5134B044600250360636A63
:104E60009D4212D2A36A0022954202D05B680132B1
:104E7000FAE71E683046FFF773FA20B91EB13368AF
:104E800030465B6898470135E9E72046FFF7D9FFD0
:104E900004F12400FFF7C2FF2046FFF73AFA20464C
:104EA00070BD00BFE80D0A0810B50446FFF7D2FF39
:104EB000302120463CF048FE204610BD044B10B582
:104EC000044640F8043B0BF0A9F8204610BD00BF93
:104ED000FC0D0A0810B50446FFF7F0FF1421204628
:104EE0003CF032FE204610BD38B50446074B08465C
:104EF0001146254645F8043B02F028FC01462846A9
:104F00000BF0D7F800232046236138BDFC0D0A08BA
:104F100040687047036901330361184670470369AD
:104F2000013B03611846704770B504461E46BDF844
:104F30001450FFF7D9FF0D4B012225762D0A23606F
:104F40002046BDF81030A682E382BDF818306576A1
:104F50006383002384F8252084F82430C4E90733D0
:104F6000C4E90A33C4E90C3370BD00BF0C0E0A0853
:104F7000007E7047C0697047006A70472DE9F043B2
:104F80009846274B85B004461E680F46818A914695
:104F9000336830469B6B984718B9002005B0BDE8D0
:104FA000F08333683046A18A5B6C9847033885B23A
:104FB000E0694D45A8BF4D46294653F0B1FFE06179
:104FC0000028EAD0237E1A071CD5B8F1000F19D0AB
:104FD00003A83368628B0190E8B2A18A0090304642
:104FE000D3F860803B46C0470028D7D09DF80C30EE
:104FF000012BD2D02A463946E06953F07BFD256269
:105000000120CBE75B07C8D53368E8B2628B00901C
:105010003046D3F864803B46A18AC047EAE700BF28
:10502000540E0A08064B10B5044618680368A18A96
:105030009B6B9847002394F8240084F8243010BD1B
:10504000540E0A080346012290F8250083F8252013
:1050500070470000154B818AF0B51E68C1B0044648
:10506000336830469B6B9847054648B133683046F5
:10507000628BDF6D6B46A18AB84720B90025256297
:10508000284641B0F0BD9DF80030012BF6D0411EFE
:10509000E069216253F044FFE0610028EED0226A0B
:1050A0000DF1010153F026FDEAE700BF540E0A0896
:1050B000408B704738B5044608460D46FFF72AFF77
:1050C00008203CF00DFD0023C0E90053E36A2BB932
:1050D000E062A36A20630133A36238BD236B58608A
:1050E000F7E770B50446002540682368AB4206D94F
:1050F000466808213CF028FD01353046F5E70023DD
:10510000C4E90033A36070BD03688B4208D94368CB
:1051100000228A4202D05B680132FAE718687047C1
:1051200000207047F8B50546134B0446002645F8A5
:10513000283BA36A9E420ED231462846FFF7E4FF81
:105140000746FFF7ECFE20B91FB13B6838465B68A5
:1051500098470136EDE72846FFF7C3FFE06918B12D
:1051600053F084F90023E3612846FFF7BAFF204695
:10517000FFF7A4FE2046F8BD0C0E0A0810B5044641
:10518000FFF7D0FF382120463CF0DEFC204610BD62
:105190002DE9F04306468DB00546002456F8287FD9
:1051A000DFF87C80ADF80E10BC4219DA214630469B
:1051B000FFF7AAFF8146FFF7ABFE414654F0C4F962
:1051C00060B902220DF10E01484600F0B3F8041C4C
:1051D00018BF012420460DB0BDE8F0830134E3E799
:1051E0002C7E14F03004F5D06A8B04A8AB8A01320F
:1051F00092B200920022114600F08AF802220DF1CC
:105200000E0104A800F096F8041C04A818BF01249D
:1052100000F062F8DEE704A800F05EF850F0ACF9A8
:10522000E00C0A0870B50446036296B00D46C069EA
:105230001946164653F074FEE06110B9206216B0AC
:1052400070BD01233146226A84F82430002384F89B
:10525000253053F04FFC666B002EF0D01D4B05F14E
:10526000490103932B798DF810302B4653F8052F05
:105270009B88CDF811200DF11902ADF81530EB7AAD
:105280008DF817302B7B8DF8183005F10D0353F88E
:10529000040B8B4242F8040BF9D11B882146684667
:1052A000138095F84B308DF85730FEF76DFC69464A
:1052B00003A8B0476846FEF729FC03A8FEF709FDDE
:1052C000BDE76846FEF722FC03A8FEF702FD50F09A
:1052D00053F9F9E7900C0A08074B10B50446036030
:1052E000806918B153F0C2F80023A3612046FFF78C
:1052F000E5FD204610BD00BF1C0E0A0810B504468F
:10530000FFF7EAFF202120463CF01EFC204610BD9E
:1053100038B504461D46FFF7E7FD054BA58220463C
:105320002360BDF81030E3820023C4E9063338BDA2
:105330001C0E0A082DE9FF411C4B04460F46818ACA
:105340001E689046336830469B6B984718B900201A
:1053500004B0BDE8F08133683046A18A5B6C9847A1
:10536000033885B2A0694545A8BF4546294653F094
:10537000D7FDA0610028EAD003A83368E28A019033
:10538000E8B2A18A00903046D3F860803B46C0471F
:105390000028DCD09DF80C30012BD8D02A463946A5
:1053A000A06953F0A7FBE5610120D1E7540E0A087C
:1053B000034A02600022C0E90122C260704700BFB8
:1053C0002C0E0A0838B5044608460D46FFF7A2FD24
:1053D00008203CF085FB0023C0E90053A3682BB9EB
:1053E000A0606368E0600133636038BDE3685860C3
:1053F000F7E7406870474368994208D28368002203
:10540000914202D05B680132FAE7186870470020C9
:10541000704770B50446002540682368AB4206D942
:10542000466808213CF090FB01353046F5E7002343
:10543000C4E90033A36070BD70B5064600247368EC
:105440009C4212D2B3680022944202D05B680132BF
:10545000FAE71D682846FFF762FD20B91DB12B68E9
:1054600028465B6898470134E9E7301DFFF7D1FF14
:1054700070BD000038B50446054B054644F8043BB2
:10548000FFF7DAFF2046FFF7C4FF284638BD00BF0C
:105490002C0E0A0810B50446FFF7ECFF1021204639
:1054A0003CF052FB204610BD38B504461D46FFF7C0
:1054B0001BFD0B4BA58204F118002360BDF81030D2
:1054C0000849E3820AF0F5FD04E02046FFF7F6FC08
:1054D00050F052F800232046C4E90933E36238BD96
:1054E0003C0E0A08045D0A08808A7047C08A70472B
:1054F000406A7047436A994208D2836A0022914207
:1055000002D05B680132FAE71868704700207047E4
:1055100038B5044608460D46FFF7FCFC08203CF071
:10552000DFFA0023C0E90053A36A2BB9A062636AC3
:10553000E0620133636238BDE36A5860F7E770B533
:105540000446002540682368AB4206D94668082116
:105550003CF0FAFA01353046F5E70023C4E90033A0
:10556000A36070BD70B5154B044600250360636AE7
:105570009D4212D2A36A0022954202D05B6801329A
:10558000FAE71E683046FFF7CAFC20B91EB133683F
:1055900030465B6898470135E9E704F12405284661
:1055A000FFF7CDFF2846FFF7CAFF04F118000AF005
:1055B00035FD2046FFF782FC204670BD3C0E0A08F0
:1055C00010B50446FFF7CEFF302120463CF0BCFA70
:1055D000204610BDA0F8A8107047C0F8AC10704766
:1055E0002DE9FF41013A13F8014B05460F46D6B2AB
:1055F0000268CDE90233526C90470C2C02462968B0
:10560000029B79D02FD8052C69D01AD8022C60D0F3
:105610000BD8012C53D006232246284600930023A2
:10562000D1F8DC603946B0476EE0032C54D0042C2E
:10563000F1D10093D1F89440334639462846A0472B
:1056400062E0092C52D007D8062C4BD0082CE2D1AE
:105650000093D1F8A440EFE70A2C4DD00B2CDAD1FF
:10566000D1F8B4402DE0162C51D00FD8112C40D0D9
:1056700005D8102CCFD10093D1F8B840DCE7122C1C
:1056800018D0132CC7D1D1F8C8401AE01D2C04D073
:105690000CD8182C3FD01B2CBDD100932246D1F83A
:1056A000D480334639462846C0472DE01E2C36D0DC
:1056B000522CB0D1CDE90063D1F8C46020E0D1F81C
:1056C0008440324639462846A44604B0BDE8F0413D
:1056D0006047D1F88840F4E7D1F89040F1E7D1F87D
:1056E0009C40EEE70093D1F8A040A5E7D1F8AC408C
:1056F000E7E7D1F8C040E4E7CDE90063D1F8B06056
:10570000234639462846B04704B0BDE8F0810093EF
:10571000D1F8CC4090E70093D1F8D0408CE7D1F895
:10572000D840CEE700F18C034FF6FF72B0F8B0100E
:10573000914204D11C309842F8D1002070470120DA
:10574000704708B503689B6A98474FF6FF73C01A05
:1057500018BF012008BD000038B50A4B04460D46AD
:10576000186803681B699847204604F18C03B0F859
:10577000B020AA4204D01C309842F8D1002038BD95
:105780000120FCE700100A0800F18C0390F9C82002
:10579000002A04DB1C309842F8D100207047012019
:1057A000704730B500231C2404FB0302B2F8B0504C
:1057B0008D4204D00133052BF6D1002002E092F88F
:1057C000C800C00930BD30B500231C2404FB03020F
:1057D000B2F8B0508D4202D1B2F8C00030BD0133F2
:1057E000052BF3D11720F9E71FB50224ADF80D20E2
:1057F00002688DF80C4000930323D2F8F04003AA0E
:10580000A04704B010BD1FB50424ADF80920ADF8C1
:105810000B30069A03688DF80840009202AAD3F86C
:10582000F0400523A04704B010BD1FB5ADF80B3004
:105830001024BDF81830ADF80920ADF80D30079AE6
:1058400003688DF80840009202AAD3F8F0400723BD
:10585000A04704B010BD1FB5ADF80B300824BDF84B
:105860001830ADF80920ADF80D30079A03688DF8AF
:105870000840009202AAD3F8F0400723A04704B0E2
:1058800010BD012380F83C31704700001FB5ADF812
:105890000A3001209DF818308DF808008DF80C3082
:1058A000064B8DF8092002AA1868036800920422AA
:1058B000D3F894400523A04704B010BD00100A0897
:1058C00001299CBF00EB8100C0F8542170471FB52F
:1058D0000A24ADF80D2002688DF80C4000930323D4
:1058E000D2F8F04003AAA04704B010BD70B5002361
:1058F0001C2505FB0304B4F8B0608E4204D00133CC
:10590000052BF6D1002002E0012084F8C82070BDEC
:1059100070B500231C2505FB03F40619B6F8B0602A
:105920008E4204D00133052BF5D1002010E004F1A4
:10593000B301941D014411F8015F04F80159944228
:10594000F9D11C2202FB0303012093F8B33023702A
:1059500070BD0000054B10B504460360D0F840014F
:1059600008B152F083FD204610BD00BF600E0A084A
:1059700010B50446FFF7EEFF4FF4AE7120463CF041
:10598000E3F8204610BD00001E4B2DE9F0431D68D2
:105990008BB006230F460421002490462A68064651
:1059A00000972846CDE90713C821CDE905410C2110
:1059B000CDE90184CDE903312346D2F8549060212A
:1059C0003022C847D8B90AF0E5FC04460AF0E2FCE8
:1059D000D6F8AC30001B98422B680DD21B692846C4
:1059E00098473368424639465B6B304698470028F3
:1059F000ECD00BB0BDE8F083DB6D28469847002063
:105A0000F7E700BF00100A08F8B5036804469B6A70
:105A100098474FF6FF73064698421ED0104B01463A
:105A20001D682B682846D3F8983098470AF0B2FCD6
:105A300007460AF0AFFCD4F8AC30C01B98420CD239
:105A40002B6828461B6998472368314620469B6B84
:105A500098470028EDD10120F8BD0020FCE700BFE9
:105A600000100A082DE9F3410546089CDBB20F46F9
:105A7000A5F848111078C5F84C41013085F84A0165
:105A8000002085F85001184806683068009204220A
:105A9000D0F894803046C04724B30AF07BFC04461B
:105AA0000AF078FCD5F8AC30001B984214D2336869
:105AB00030461B6998472B68394628469B6B9847A8
:105AC00050B195F850010028EAD04FF6FF73A5F8C1
:105AD000483102B0BDE8F0814FF6FF730020A5F811
